:0400000007EF00F016
:100008003682A0ED01F015EF0AF010EC07F0000EB3
:10001800296E000E286EE4EC08F0D9EC0AF0020E06
:10002800216E450E206EAA0EE82EFED7202EFCD794
:10003800212EFAD790EC08F0000E296E000E286EDB
:10004800ECEC02F0000E316E010E306EB2EC0AF0EC
:10005800000E82B0010E226E2204D8A434D0335090
:10006800D8A431D0000E296E000E286E020E30186A
:100078003110D8A428D02D5006E13B0E2C5CD8B006
:1000880002D02C4A2D2A2CC013F02DC014F0000EDB
:10009800166E0A0E156E5AEC09F013501410D8B4E7
:1000A800D9EC0AF02E502C5C2F502D58D8A009D02E
:1000B800F0EC03F0000E316E030E306E4EEC07F0DC
:1000C80002D0F0EC03F022C033F024502510D8B44D
:1000D8000DD024042510D8A402D08B840ED0020E93
:1000E80024182510D8A409D08B9407D02750F5E1FF
:1000F8007F0E265CD8B0F1D7F7D73450D8B4A8D73C
:10010800000E296E000E286EC40E3424F66EF76AAF
:100118007E0EF7220800F5CF23F0346A440E231828
:10012800D8B47BEC09F0430E2318D8A4EAD0355094
:10013800D8A402D0010E01D0000E356E35A002D031
:10014800898ADFD0899ADDD02F0E236444D03A0EF5
:10015800236041D00A0E2A02F3CF20F0F4CF21F019
:100168002B02F350212623502026000E2122D00EE8
:1001780020242A6EFF0E21202B6E2B5004E1640EE2
:100188002A5CD8A004D0000E2B6E000E2A6EB2ECAA
:100198000AF0070E166E020E7EEC0AF02AC013F063
:1001A8002BC014F0000E166E0A0E156EBBEC08F08C
:1001B8001350300FEAEC04F02AC013F02BC014F0EF
:1001C800000E166E0A0E156E5AEC09F01350300F19
:1001D800EAEC04F0A8D02A0E2318D8A432D02AC0FA
:1001E80013F02BC014F0000E166E0A0E156EBBEC41
:1001F80008F013C02AF014C02BF0B2EC0AF0070E76
:10020800166E020E7EEC0AF02AC013F02BC014F012
:10021800000E166E0A0E156EBBEC08F01350300F68
:10022800EAEC04F02AC013F02BC014F0000E166E8E
:100238000A0E156E5AEC09F01350300FEAEC04F070
:1002480072D0230E2318D8A46ED02A502B10D8B4FD
:1002580019D02B5017E13C0E2A5CD8B013D02AC015
:100268002EF02BC02FF0000E2D6E000E2C6E000EFF
:100278002B6E000E2A6E000E316E020E306EF0EC00
:1002880003F051D0F6EC0AF0010E166E010E7EEC6A
:100298000AF0C20E166E7F0E176E2BEC0AF0020ED5
:1002A800216EE70E206E000EE82EFED7202EFCD71A
:1002B800212EFAD700D0000E2B6E000E2A6EB2EC5B
:1002C8000AF031D0420E2318D8A407D0000E316EA0
:1002D800030E306E4EEC07F026D0410E2318D8A43A
:1002E80022D0000E2D6E000E2C6EC9D7CEEC0AF06F
:1002F800230E2318D8A417D0000E316E010E306ECD
:10030800DAD730C020F031C021F02150000AD8A43B
:100318000AD02050010AD8B417D7030AD8B4D2D7C4
:10032800010AD8B4E3D7410E206EEE0EE82EFED7B0
:10033800202EFCD700D08CD60600F6CF0FF0F7CFD2
:1003480010F0F8CF11F0F5CF12F0F2A069D0F00E4E
:100358008118D8B44AD0FE0E8A6E81B802D0010E38
:1003680041D081BA02D0020E3DD081BC02D0030E2A
:1003780039D081BE02D0040E35D0FD0E8A6E81B808
:1003880002D0050E2FD081BA02D0060E2BD081BC28
:1003980002D0070E27D081BE02D0080E23D0FB0E54
:1003A8008A6E81B802D0090E1DD081BA02D00A0E19
:1003B80019D081BC02D00B0E15D081BE02D00C0E14
:1003C80011D0F70E8A6E81B802D00D0E0BD081BA0B
:1003D80002D00E0E07D081BC02D00F0E03D081BE12
:1003E80002D0100E346EF00E8A6E720E0E6EA20ED1
:1003F800E82EFED70E2EFCD7F290295004E10B0E02
:10040800285CD8A009D0295007E1140E285CD8B080
:1004180003D0010E356E898A000E296E000E286EF3
:10042800F2A46CD00B0ED76EDC0ED66EF2948972E5
:10043800284A292A000EA2EC0AF00E6E0E50266EEB
:10044800276A940E026E7F0E036E55EC0AF0265052
:1004580036EC09F00A0E28182910D8A402D0356AFB
:10046800899A295004E1140E285CD8A047D0FEECE4
:100478000AF08D6A8C6A899A8B94F28AF286F290D5
:100488000300000E296E000E286E2CC001F02DC04E
:1004980002F0000E046E0A0E036E0DEC09F001C0A6
:1004A80008F002C009F05FEC08F02CC001F02DC084
:1004B80002F0000E046E0A0E036E9CEC09F001C0F7
:1004C80006F002C007F0EDEC0AF0F28A010E356E74
:1004D800898A30043110D8A403D0C0EC0AF00ED0B9
:1004E800020E30183110D8A403D06DEC04F006D0F9
:1004F800030E30183110D8B487EC07F09EAA5ED0EE
:10050800000E296E000E286EABA202D0AB98AB8805
:10051800AECF32F0040E30183110D8B44FD0500E90
:100528003218D8B404D0700E3218D8A409D0FD0EF1
:10053800026E7E0E036E55EC0AF0BDEC09F03ED05B
:10054800450E3218D8B404D0650E3218D8A40AD093
:100558003F0E026E7F0E036E55EC0AF0000E256EFC
:10056800010E11D0410E3218D8B404D0610E3218E1
:10057800D8A40BD0840E026E7F0E036E55EC0AF0E1
:10058800000E256E020E246E19D0520E3218D8B401
:1005980004D0720E3218D8A411D0020E30183110BF
:1005A800D8A40CD02B0E026E7F0E036E55EC0AF009
:1005B800000E2D6E000E2C6E6DEC04F012C0F5FFCF
:1005C80011C0F8FF10C0F7FF0FC0F6FF36921100F8
:1005D800F50E166E7E0E176E000EFAEC09F0ED0E93
:1005E800166E7E0E176E010EFAEC09F0E50E166E09
:1005F8007E0E176E020EFAEC09F0D50E166E7E0E00
:10060800176E030EFAEC09F0DD0E166E7E0E176EED
:10061800040EFAEC09F0AD0EF66E7E0EF76E20EEC3
:1006280060F0160E0900F5CFDEFFE806FBE2000ECB
:1006380000017A6F100E796F000E816F000E806FC7
:10064800010E166E010E7EEC0AF0000E00017F6F9F
:10065800000E7E6F8051600F7E25D96EDA6ADF50FA
:100668007D6F1F0E7D6503D07E0E7D6505D0000E63
:10067800786F200E776F03D07DC077F0786B775155
:10068800EAEC04F000017E4B7F2B7FBFE3D77F515C
:1006980004E1100E7E5DD8A0DDD780C016F0020EF2
:1006A8007EEC0AF0040EEAEC04F000018029166ED4
:1006B800020E7EEC0AF080C013F081C014F0000E28
:1006C800166E030E156EC0EC07F01350EAEC04F03A
:1006D800660E1C6E4B0EE82EFED71C2EFCD70000B3
:1006E80080C016F0020E7EEC0AF0200EEAEC04F050
:1006F80000018029166E020E7EEC0AF0200EEAEC4C
:1007080004F00001804B812B7951805D8151800A72
:100718001C6E7A51800A1C58D8A092D7100E166EFB
:10072800020E7EEC0AF0030EEAEC04F0010E166EDF
:10073800010E7EEC0AF0150E166E7F0E176E2BEC6E
:100748000AF0A30E1C6E550EE82EFED71C2EFCD701
:100758000000000E00017C6F000E7B6F100E166EFD
:10076800020E7EEC0AF0200EEAEC04F0310E1C6E4C
:10077800B20EE82EFED71C2EFCD700D0100E166E37
:10078800020E7EEC0AF0030EEAEC04F0310E1C6E49
:10079800B20EE82EFED71C2EFCD700D000017B4BF2
:1007A8007C2B7CBFDBD77C5104E1030E7B5DD8A09A
:1007B800D5D7020E1D6E040E1C6EBA0EE82EFED79B
:1007C8001C2EFCD71D2EFAD700D0F6EC0AF0000E2E
:1007D800296E000E286E1200F6EC0AF0010E166E55
:1007E800010E7EEC0AF0F50E166E7F0E176E2BECDE
:1007F8000AF02EC013F02FC014F0000E166E0A0E69
:10080800156EBBEC08F01350300FEAEC04F02EC064
:1008180013F02FC014F0000E166E0A0E156E5AEC67
:1008280009F01350300FEAEC04F0010E166E020EB8
:100838007EEC0AF0EA0E166E7F0E176E2BEC0AF0AD
:100848002C502E5C1E6E2D502F581F6E1FAE04D0DC
:10085800000E1F6E000E1E6E1EC013F01FC014F097
:10086800000E166E0A0E156E8EEC06F01350300F41
:10087800EAEC04F01EC013F01FC014F0000E166E50
:100888000A0E156EC0EC07F01350300FEAEC04F0B6
:100898002CC013F02DC014F0000E166E0A0E156E43
:1008A8005AEC09F013C018F014C019F0E4EC0AF07F
:1008B8002CC013F02DC014F0000E166E0A0E156E23
:1008C800BBEC08F013C01AF014C01BF02EEC08F0B3
:1008D8001200FEEC0AF0010E046E010E90EC0AF014
:1008E800F50E046E7F0E056E40EC0AF02EC001F086
:1008F8002FC002F0000E046E0A0E036E0DEC09F014
:100908000150300FBCEC05F02EC001F02FC002F0F2
:10091800000E046E0A0E036E9CEC09F00150300FB5
:10092800BCEC05F0010E046E020E90EC0AF0EA0E23
:10093800046E7F0E056E40EC0AF02C502E5C0C6E97
:100948002D502F580D6E0DAE04D0000E0D6E000EFA
:100958000C6E0CC001F00DC002F0000E046E0A0E01
:10096800036ECFEC06F00150300FBCEC05F00CC064
:1009780001F00DC002F0000E046E0A0E036EF7ECD3
:1009880007F00150300FBCEC05F02CC001F02DC071
:1009980002F0000E046E0A0E036E9CEC09F001C012
:1009A80006F002C007F0EDEC0AF02CC001F02DC0F3
:1009B80002F0000E046E0A0E036E0DEC09F001C081
:1009C80008F002C009F05FEC08F01200156E898685
:1009D80015C013F0133A0F0E13161330D8A002D017
:1009E8008C8801D08C9815C013F0050E146ED89021
:1009F8001332142EFCD71330D8A002D08C8A01D021
:100A08008C9A15C013F0060E146ED8901332142E5B
:100A1800FCD71330D8A002D08C8C01D08C9C136AE0
:100A280015AE01D0132A1330D8A002D08C8E01D075
:100A38008C9E8988100EE82EFED700D0899815A0C4
:100A480002D08C8801D08C9815C013F0D89013323E
:100A58001330D8A002D08C8A01D08C9A15C013F01C
:100A6800D8901332D89013321330D8A002D08C8C7F
:100A780001D08C9C15C013F0D8901332D890133243
:100A8800D89013321330D8A002D08C8E01D08C9E0F
:100A98008988100EE82EFED700D089981200156EAE
:100AA800899615C013F0133A0F0E13161330D8A0F9
:100AB80002D08C8801D08C9815C013F0050E146EE6
:100AC800D8901332142EFCD71330D8A002D08C8AB9
:100AD80001D08C9A15C013F0060E146ED8901332FC
:100AE800142EFCD71330D8A002D08C8C01D08C9C4B
:100AF800136A15AE01D0132A1330D8A002D08C8EF9
:100B080001D08C9E8988A60EE82EFED700D0899841
:100B180015A002D08C8801D08C9815C013F0D890FD
:100B280013321330D8A002D08C8A01D08C9A15C009
:100B380013F0D8901332D89013321330D8A002D0C3
:100B48008C8C01D08C9C15C013F0D8901332D8909F
:100B58001332D89013321330D8A002D08C8E01D023
:100B68008C9E8988A60EE82EFED700D089981200A0
:100B7800036E898603C001F0013A0F0E0116013099
:100B8800D8A002D08C8801D08C9803C001F0050E43
:100B9800026ED8900132022EFCD70130D8A002D0C4
:100BA8008C8A01D08C9A03C001F0060E026ED89090
:100BB8000132022EFCD70130D8A002D08C8C01D093
:100BC8008C9C016A03AE01D0012A0130D8A002D062
:100BD8008C8E01D08C9E8988100EE82EFED700D00E
:100BE800899803A002D08C8801D08C9803C001F0AA
:100BF800D89001320130D8A002D08C8A01D08C9ACA
:100C080003C001F0D8900132D89001320130D8A049
:100C180002D08C8C01D08C9C03C001F0D89001329A
:100C2800D8900132D89001320130D8A002D08C8EF1
:100C380001D08C9E8988100EE82EFED700D08998A6
:100C48001200036E899603C001F0013A0F0E0116D7
:100C58000130D8A002D08C8801D08C9803C001F054
:100C6800050E026ED8900132022EFCD70130D8A0B2
:100C780002D08C8A01D08C9A03C001F0060E026E55
:100C8800D8900132022EFCD70130D8A002D08C8C2B
:100C980001D08C9C016A03AE01D0012A0130D8A092
:100CA80002D08C8E01D08C9E8988A60EE82EFED7A5
:100CB80000D0899803A002D08C8801D08C9803C0FA
:100CC80001F0D89001320130D8A002D08C8A01D02E
:100CD8008C9A03C001F0D8900132D89001320130CB
:100CE800D8A002D08C8C01D08C9C03C001F0D89085
:100CF8000132D8900132D89001320130D8A002D008
:100D08008C8E01D08C9E8988A60EE82EFED700D046
:100D180089981200186A16AE06D0156C161ED8B03F
:100D2800162A010E186E14AE06D0136C141ED8B015
:100D3800142A010E181A000E1A6E000E196E15509C
:100D48001610D8B41CD0010E176E04D0D8901536E2
:100D58001636172A16AEFAD7D89019361A361550FD
:100D6800135C16501458D8A005D01550135E1650B1
:100D7800145A1980D89016321532172EEDD71850FC
:100D8800D8B404D0196C1A1ED8B01A2A19C013F096
:100D98001AC014F01200066A04AE06D0036C041ED2
:100DA800D8B0042A010E066E02AE06D0016C021EEF
:100DB800D8B0022A010E061A000E086E000E076E41
:100DC80003500410D8B41CD0010E056E04D0D8907E
:100DD80003360436052A04AEFAD7D8900736083603
:100DE8000350015C04500258D8A005D00350015E9E
:100DF8000450025A0780D89004320332052EEDD7EA
:100E08000650D8B404D0076C081ED8B0082A07C00A
:100E180001F008C002F01200956A8C6A966A8D6A21
:100E280094948B949480010E926EF00E936E0F0E34
:100E38008A6EF19EF098F092240EAC6E900EAB6E16
:100E4800080EB86E190EAF6E9D8A9D989E9A9E9850
:100E5800010EC26E0E0EC16E080EC06E020E146E2A
:100E6800450E136EAA0EE82EFED7132EFCD7142EAD
:100E7800FAD79480010ED56E0B0ED76EDC0ED66EA7
:100E8800F294F28AF28EF28CF290F286D58E010EEE
:100E9800356E12002EC013F02FC014F0000E166E1F
:100EA8000A0E156E5AEC09F013C018F014C019F0A8
:100EB800E4EC0AF02EC013F02FC014F0000E166EEA
:100EC8000A0E156EBBEC08F013C01AF014C01BF024
:100ED8002EEC08F0F6EC0AF0010E166E010E7EEC10
:100EE8000AF0510E166E7F0E176E2BEC0AF0010EEB
:100EF800166E020E7EEC0AF0DE0E166E7F0E176E70
:100F08002BEC0AF012002EC001F02FC002F0000EE8
:100F1800046E0A0E036E9CEC09F001C006F002C0D4
:100F280007F0EDEC0AF02EC001F02FC002F0000E21
:100F3800046E0A0E036E0DEC09F001C008F002C041
:100F480009F05FEC08F0FEEC0AF0010E046E010EE9
:100F580090EC0AF0510E046E7F0E056E40EC0AF01C
:100F6800010E046E020E90EC0AF0DE0E046E7F0E87
:100F7800056E40EC0AF01200186A14AE06D0136C25
:100F8800141ED8B0142A010E186E16AE04D0156CB3
:100F9800161ED8B0162A15501610D8B418D0010E3F
:100FA800176E04D0D89015361636172A16AEFAD70B
:100FB8001550135C16501458D8A004D01550135E61
:100FC8001650145AD89016321532172EF1D71850D9
:100FD800D8B404D0136C141ED8B0142A13C013F05C
:100FE80014C014F01200066A02AE06D0016C021E8C
:100FF800D8B0022A010E066E04AE04D0036C041E9B
:10100800D8B0042A03500410D8B418D0010E056EC5
:1010180004D0D89003360436052A04AEFAD7035014
:10102800015C04500258D8A004D00350015E04505B
:10103800025AD89004320332052EF1D70650D8B49C
:1010480004D0016C021ED8B0022A01C001F002C00F
:1010580002F0120014D0050E8D6E1200040E8D6E73
:101068001200060E8D6E1200020E8D6E1200030E17
:101078008D6E1200070E8D6E12008D6A12001AC056
:101088001CF01BC01DF01D50000AD8A4F6D71C5038
:10109800000AD8B4E0D7010AD8B4E0D7030AD8B414
:1010A800E0D7010AD8B4E0D7070AD8B4E0D7010AD4
:1010B800D8B4E0D7E2D714D0050E8D6E1200040E16
:1010C8008D6E1200060E8D6E1200020E8D6E1200CD
:1010D800030E8D6E1200070E8D6E12008D6A1200BF
:1010E80008C00AF009C00BF00B50000AD8A4F6D7C4
:1010F8000A50000AD8B4E0D7010AD8B4E0D7030AE6
:10110800D8B4E0D7010AD8B4E0D7070AD8B4E0D7F2
:10111800010AD8B4E0D7E2D7D0B21BD0F6EC0AF077
:10112800010E166E010E7EEC0AF0620E166E7F0E30
:10113800176E2BEC0AF0D082020E1C6EE70E1B6EA7
:10114800000EE82EFED71B2EFCD71C2EFAD700D097
:101158001200F6EC0AF0010E166E010E7EEC0AF093
:10116800730E166E7F0E176E2BEC0AF0E5D7000E85
:10117800186E000E176E15501610D8B41CD0010E3C
:10118800196E04D0D89015361636192A16AEFAD725
:10119800D890173618361550135C16501458D8A026
:1011A80005D01550135E1650145A1780D890163271
:1011B8001532192EEDD717C013F018C014F012000D
:1011C800956A8C6A010E926E896A929A898A210EB2
:1011D800166E760EE82EFED7162EFCD700D0020E1D
:1011E80053EC05F0280E53EC05F00C0E53EC05F00B
:1011F800060E53EC05F0010E53EC05F0210E166EA9
:10120800760EE82EFED7162EFCD700D0F6EC0AF0A4
:101218001200000E066E000E056E03500410D8B4BE
:101228001CD0010E076E04D0D89003360436072A66
:1012380004AEFAD7D890053606360350015C045040
:101248000258D8A005D00350015E0450025A058008
:10125800D89004320332072EEDD705C001F006C03E
:1012680002F01200096E640E016E0950DEEC09F0FE
:10127800300F06EC0BF00A0E056E0A0E016E0950CF
:10128800DEEC09F06AEC0AF0300F06EC0BF00A0EFF
:10129800056E09506AEC0AF0300F06EC0BF00D0EE3
:1012A80006EC0BF00A0E06EC0BF0120015501610A7
:1012B800D8B418D0010E176E04D0D890153616364B
:1012C800172A16AEFAD71550135C16501458D8A022
:1012D80004D01550135E1650145AD8901632153291
:1012E800172EF1D713C013F014C014F01200000E1B
:1012F800316E040E306EF6EC0AF0010E166E010E19
:101308007EEC0AF0A40E166E7F0E176E2BEC0AF018
:10131800010E166E020E7EEC0AF0D10E166E7F0ECE
:10132800176E2BEC0AF0010E8D6E8B94D59EFFD7AD
:1013380003500410D8B418D0010E056E04D0D8900C
:1013480003360436052A04AEFAD70350015C04506C
:101358000258D8A004D00350015E0450025AD89015
:1013680004320332052EF1D701C001F002C002F0A9
:101378001200000E316E040E306EFEEC0AF0010E03
:10138800046E010E90EC0AF0A40E046E7F0E056E3A
:1013980040EC0AF0010E046E020E90EC0AF0D10E39
:1013A800046E7F0E056E40EC0AF0010E8D6E8B9474
:1013B800D59EFFD7026E046A0150D8B415D0010E2D
:1013C800036E03D0D8900136032A01AEFBD7D8901C
:1013D80004360150025CD8A003D00150025E04809C
:1013E800D8900132032EF3D7045012001A6E1A5007
:1013F800080DF350400F53EC05F01B6A1B501624E0
:10140800186E000E1720196E18C0F6FF19C0F7FFE6
:101418000800F550EAEC04F01B2A070E1B64EED70F
:101428001200180EF66E160EF76E000EF86E090012
:10143800F5CF35F000EE24F0110EEE6AE806FDE176
:1014480036903692000EF86E000109EF00F00AD0CF
:1014580016C0F6FF17C0F7FF0800F550EAEC04F0D5
:10146800164A172A16C0F6FF17C0F7FF0800F550EE
:101478000009D8B41200ECD70AD004C0F6FF05C0A2
:10148800F7FF0800F550BCEC05F0044A052A04C033
:10149800F6FF05C0F7FF0800F5500009D8B41200A0
:1014A800ECD70AD002C0F6FF03C0F7FF0800F550DA
:1014B80006EC0BF0024A032A02C0F6FF03C0F7FF4E
:1014C8000800F5500009D8B41200ECD7066E080ED3
:1014D800076E086AD89006340834086ED890063625
:1014E8000550085CD8A002D00550085E072EF2D738
:1014F80008501200176E1704D8B402D0BF0E01D0DE
:101508007F0E1624196E1A6A000E1A2219C018F0D6
:10151800185053EC05F01200056E0504D8B402D03B
:10152800BF0E01D07F0E0424066E076A000E072244
:1015380006C008F0085025EC06F01200016E0C0EEB
:10154800016402D0000E12000144E846FC0B0109B8
:10155800C26EC282C2B2FED7C4501200F6EC0AF0C4
:10156800010E166E010E7EEC0AF0B30E166E7F0E9B
:10157800176E2BEC0AF01200FEEC0AF0010E046E56
:10158800010E90EC0AF0B30E046E7F0E056E40EC6F
:101598000AF012008984A30E136E550EE82EFED7AA
:1015A800132EFCD70000899412008984210E136E33
:1015B800760EE82EFED7132EFCD700D089941200A1
:1015C80018C01AF00F0E1A168C50F00B1A108C6EE9
:1015D800120006C008F00F0E08168C50F00B081009
:1015E8008C6E1200010E53EC05F0A60EE82EFED705
:1015F80000D01200010E25EC06F0A60EE82EFED74C
:1016080000D01200016E9EA8FED701C0ADFF1200E7
:0116180001D0
:107EAC00004269656E76656E69646F20616C204373
:107EBC006F6E7461646F7200003134372A3235385A
:107ECC0030333639234142434404150E1F0E15043A
:107EDC00000000061F0600000004040E04040C0839
:107EEC000404040E040406091004040E040404041F
:107EFC000A50617261646120646520656D6572670A
:107F0C00656E636961200D0A00202020202020214D
:107F1C00424F4F4D21202020202020202020005295
:107F2C006573657420646520636F6E74656F200DD6
:107F3C000A2000456E63656E646572204D6F746F28
:107F4C0072200D0A00436F6E74656F20436F6D7065
:107F5C006C65746F210046616C6C612064652065F2
:107F6C006E65726769610052657365742064652083
:107F7C007573756172696F00417061676172206D14
:107F8C006F746F72200D0A0056616C6F72206465FD
:107F9C006C204144433A20002120454D4552474531
:107FAC004E434941202100496E6772657365207606
:107FBC00616C6F723A0052616E676F20696E766108
:107FCC006C69646F005265736574206D616E7561C8
:107FDC006C0050726573696F6E65204F4B00466183
:107FEC006C74616E7465733A004F626A657469767D
:047FFC006F3A0000D8
:020000040020DA
:08000000FFFFFFFFFFFFFFFF00
:020000040030CA
:0E0000000009191EFF8181FF0FC00FE00F40A5
:00000001FF
