:0400000007EF00F016
:10000800368298ED01F0CDEF09F008EC07F06AECC4
:1000180008F091EC0AF0020E216E450E206EAA0E31
:10002800E82EFED7202EFCD7212EFAD716EC08F0A2
:10003800E4EC02F0000E316E010E306E6AEC0AF04C
:10004800000E82B0010E226E2204D8A434D03350A0
:10005800D8A431D0000E296E000E286E020E30187A
:100068003110D8A428D02D5006E13B0E2C5CD8B016
:1000780002D02C4A2D2A2CC013F02DC014F0000EEB
:10008800166E0A0E156EE0EC08F013501410D8B472
:1000980091EC0AF02E502C5C2F502D58D8A009D086
:1000A800E8EC03F0000E316E030E306E9BEC09F0A5
:1000B80002D0E8EC03F022C033F024502510D8B465
:1000C8000DD024042510D8A402D08B840ED0020EA3
:1000D80024182510D8A409D08B9407D02750F5E10F
:1000E8007F0E265CD8B0F1D7F7D73450D8B4A8D74C
:1000F800000E296E000E286EC40E3424F66EF76AC0
:100108007E0EF7220800F5CF23F0346A440E231838
:10011800D8B401EC09F0430E2318D8A4EAD035501E
:10012800D8A402D0010E01D0000E356E35A002D041
:10013800898ADFD0899ADDD02F0E236444D03A0E05
:10014800236041D00A0E2A02F3CF20F0F4CF21F029
:100158002B02F350212623502026000E2122D00EF8
:1001680020242A6EFF0E21202B6E2B5004E1640EF2
:100178002A5CD8A004D0000E2B6E000E2A6E6AEC02
:100188000AF0070E166E020E36EC0AF02AC013F0BB
:100198002BC014F0000E166E0A0E156E41EC08F016
:1001A8001350300FE2EC04F02AC013F02BC014F007
:1001B800000E166E0A0E156EE0EC08F01350300FA4
:1001C800E2EC04F0A8D02A0E2318D8A432D02AC012
:1001D80013F02BC014F0000E166E0A0E156E41ECCB
:1001E80008F013C02AF014C02BF06AEC0AF0070ECE
:1001F800166E020E36EC0AF02AC013F02BC014F06B
:10020800000E166E0A0E156E41EC08F01350300FF2
:10021800E2EC04F02AC013F02BC014F0000E166EA6
:100228000A0E156EE0EC08F01350300FE2EC04F003
:1002380072D0230E2318D8A46ED02A502B10D8B40D
:1002480019D02B5017E13C0E2A5CD8B013D02AC025
:100258002EF02BC02FF0000E2D6E000E2C6E000E0F
:100268002B6E000E2A6E000E316E020E306EE8EC18
:1002780003F051D0AEEC0AF0010E166E010E36EC0A
:100288000AF0C20E166E7F0E176EE3EC09F0020E2E
:10029800216EE70E206E000EE82EFED7202EFCD72A
:1002A800212EFAD700D0000E2B6E000E2A6E6AECB3
:1002B8000AF031D0420E2318D8A407D0000E316EB0
:1002C800030E306E9BEC09F026D0410E2318D8A4FB
:1002D80022D0000E2D6E000E2C6EC9D786EC0AF0C7
:1002E800230E2318D8A417D0000E316E010E306EDD
:1002F800DAD730C020F031C021F02150000AD8A44C
:100308000AD02050010AD8B417D7030AD8B4D2D7D4
:10031800010AD8B4E3D7410E206EEE0EE82EFED7C0
:10032800202EFCD700D08CD60600F6CF0FF0F7CFE2
:1003380010F0F8CF11F0F5CF12F0F2A069D0F00E5E
:100348008118D8B44AD0FE0E8A6E81B802D0010E48
:1003580041D081BA02D0020E3DD081BC02D0030E3A
:1003680039D081BE02D0040E35D0FD0E8A6E81B818
:1003780002D0050E2FD081BA02D0060E2BD081BC38
:1003880002D0070E27D081BE02D0080E23D0FB0E64
:100398008A6E81B802D0090E1DD081BA02D00A0E29
:1003A80019D081BC02D00B0E15D081BE02D00C0E24
:1003B80011D0F70E8A6E81B802D00D0E0BD081BA1B
:1003C80002D00E0E07D081BC02D00F0E03D081BE22
:1003D80002D0100E346EF00E8A6E520E0E6E2A0E79
:1003E800E82EFED70E2EFCD7F290295004E10B0E12
:1003F800285CD8A009D0295007E1140E285CD8B091
:1004080003D0010E356E898A000E296E000E286E03
:10041800F2A46CD00B0ED76EDC0ED66EF2948972F5
:10042800284A292A000E5AEC0AF00E6E0E50266E43
:10043800276A940E026E7F0E036E0DEC0AF02650AA
:10044800BCEC08F00A0E28182910D8A402D0356A86
:10045800899A295004E1140E285CD8A047D0B6EC3C
:100468000AF08D6A8C6A899A8B94F28AF286F290E5
:100478000300000E296E000E286E2CC001F02DC05E
:1004880002F0000E046E0A0E036E93EC08F001C031
:1004980008F002C009F0E5EC07F02CC001F02DC00F
:1004A80002F0000E046E0A0E036E22EC09F001C081
:1004B80006F002C007F0A5EC0AF0F28A010E356ECC
:1004C800898A30043110D8A403D078EC0AF00ED011
:1004D800020E30183110D8A403D065EC04F006D011
:1004E800030E30183110D8B4B4EC09F09EAA5ED0CF
:1004F800000E296E000E286EABA202D0AB98AB8816
:10050800AECF32F0040E30183110D8B44FD0500EA0
:100518003218D8B404D0700E3218D8A409D0FD0E01
:10052800026E7E0E036E0DEC0AF043EC09F03ED02D
:10053800450E3218D8B404D0650E3218D8A40AD0A3
:100548003F0E026E7F0E036E0DEC0AF0000E256E54
:10055800010E11D0410E3218D8B404D0610E3218F1
:10056800D8A40BD0840E026E7F0E036E0DEC0AF039
:10057800000E256E020E246E19D0520E3218D8B411
:1005880004D0720E3218D8A411D0020E30183110CF
:10059800D8A40CD02B0E026E7F0E036E0DEC0AF061
:1005A800000E2D6E000E2C6E65EC04F012C0F5FFE7
:1005B80011C0F8FF10C0F7FF0FC0F6FF3692110008
:1005C800F50E166E7E0E176E000E80EC09F0ED0E1D
:1005D800166E7E0E176E010E80EC09F0E50E166E93
:1005E8007E0E176E020E80EC09F0D50E166E7E0E8A
:1005F800176E030E80EC09F0DD0E166E7E0E176E78
:10060800040E80EC09F0AD0EF66E7E0EF76E20EE4D
:1006180060F0160E0900F5CFDEFFE806FBE2000EDB
:1006280000017A6F100E796F000E816F000E806FD7
:10063800010E166E010E36EC0AF0000E00017F6FF7
:10064800000E7E6F8051600F7E25D96EDA6ADF500A
:100658007D6F1F0E7D6503D07E0E7D6505D0000E73
:10066800786F200E776F03D07DC077F0786B775165
:10067800E2EC04F000017E4B7F2B7FBFE3D77F5174
:1006880004E1100E7E5DD8A0DDD780C016F0020E02
:1006980036EC0AF0040EE2EC04F000018029166E34
:1006A800020E36EC0AF080C013F081C014F0000E80
:1006B800166E030E156E46EC07F01350E2EC04F0CC
:1006C800660E1C6E4B0EE82EFED71C2EFCD70000C3
:1006D80080C016F0020E36EC0AF0200EE2EC04F0B0
:1006E80000018029166E020E36EC0AF0200EE2ECAC
:1006F80004F00001804B812B7951805D8151800A83
:100708001C6E7A51800A1C58D8A092D7100E166E0B
:10071800020E36EC0AF0030EE2EC04F0010E166E3F
:10072800010E36EC0AF0150E166E7F0E176EE3EC0E
:1007380009F0A30E1C6E550EE82EFED71C2EFCD712
:100748000000000E00017C6F000E7B6F100E166E0D
:10075800020E36EC0AF0200EE2EC04F0310E1C6EAC
:10076800B20EE82EFED71C2EFCD700D0100E166E47
:10077800020E36EC0AF0030EE2EC04F0310E1C6EA9
:10078800B20EE82EFED71C2EFCD700D000017B4B02
:100798007C2B7CBFDBD77C5104E1030E7B5DD8A0AA
:1007A800D5D7020E1D6E040E1C6EBA0EE82EFED7AB
:1007B8001C2EFCD71D2EFAD700D0AEEC0AF0000E86
:1007C800296E000E286E1200AEEC0AF0010E166EAD
:1007D800010E36EC0AF0F50E166E7F0E176EE3EC7E
:1007E80009F02EC013F02FC014F0000E166E0A0E7A
:1007F800156E41EC08F01350300FE2EC04F02EC0F7
:1008080013F02FC014F0000E166E0A0E156EE0ECF1
:1008180008F01350300FE2EC04F0010E166E020ED1
:1008280036EC0AF0EA0E166E7F0E176EE3EC09F04E
:100838002C502E5C1E6E2D502F581F6E1FAE04D0EC
:10084800000E1F6E000E1E6E1EC013F01FC014F0A7
:10085800000E166E0A0E156E86EC06F01350300F59
:10086800E2EC04F01EC013F01FC014F0000E166E68
:100878000A0E156E46EC07F01350300FE2EC04F048
:100888002CC013F02DC014F0000E166E0A0E156E53
:10089800E0EC08F013C018F014C019F09CEC0AF052
:1008A8002CC013F02DC014F0000E166E0A0E156E33
:1008B80041EC08F013C01AF014C01BF0B4EC07F0B8
:1008C8001200B6EC0AF0010E046E010E48EC0AF0B4
:1008D800F50E046E7F0E056EF8EC09F02EC001F0DF
:1008E8002FC002F0000E046E0A0E036E93EC08F09F
:1008F8000150300FB4EC05F02EC001F02FC002F00B
:10090800000E046E0A0E036E22EC09F00150300F3F
:10091800B4EC05F0010E046E020E48EC0AF0EA0E83
:10092800046E7F0E056EF8EC09F02C502E5C0C6EF0
:100938002D502F580D6E0DAE04D0000E0D6E000E0A
:100948000C6E0CC001F00DC002F0000E046E0A0E11
:10095800036EC7EC06F00150300FB4EC05F00CC084
:1009680001F00DC002F0000E046E0A0E036E7DEC5D
:1009780007F00150300FB4EC05F02CC001F02DC089
:1009880002F0000E046E0A0E036E22EC09F001C09C
:1009980006F002C007F0A5EC0AF02CC001F02DC04B
:1009A80002F0000E046E0A0E036E93EC08F001C00C
:1009B80008F002C009F0E5EC07F01200156E898610
:1009C80015C013F0133A0F0E13161330D8A002D027
:1009D8008C8801D08C9815C013F0050E146ED89031
:1009E8001332142EFCD71330D8A002D08C8A01D031
:1009F8008C9A15C013F0060E146ED8901332142E6C
:100A0800FCD71330D8A002D08C8C01D08C9C136AF0
:100A180015AE01D0132A1330D8A002D08C8E01D085
:100A28008C9E8988100EE82EFED700D0899815A0D4
:100A380002D08C8801D08C9815C013F0D89013324E
:100A48001330D8A002D08C8A01D08C9A15C013F02C
:100A5800D8901332D89013321330D8A002D08C8C8F
:100A680001D08C9C15C013F0D8901332D890133253
:100A7800D89013321330D8A002D08C8E01D08C9E1F
:100A88008988100EE82EFED700D089981200156EBE
:100A9800899615C013F0133A0F0E13161330D8A009
:100AA80002D08C8801D08C9815C013F0050E146EF6
:100AB800D8901332142EFCD71330D8A002D08C8AC9
:100AC80001D08C9A15C013F0060E146ED89013320C
:100AD800142EFCD71330D8A002D08C8C01D08C9C5B
:100AE800136A15AE01D0132A1330D8A002D08C8E09
:100AF80001D08C9E8988A60EE82EFED700D0899852
:100B080015A002D08C8801D08C9815C013F0D8900D
:100B180013321330D8A002D08C8A01D08C9A15C019
:100B280013F0D8901332D89013321330D8A002D0D3
:100B38008C8C01D08C9C15C013F0D8901332D890AF
:100B48001332D89013321330D8A002D08C8E01D033
:100B58008C9E8988A60EE82EFED700D089981200B0
:100B6800036E898603C001F0013A0F0E01160130A9
:100B7800D8A002D08C8801D08C9803C001F0050E53
:100B8800026ED8900132022EFCD70130D8A002D0D4
:100B98008C8A01D08C9A03C001F0060E026ED890A0
:100BA8000132022EFCD70130D8A002D08C8C01D0A3
:100BB8008C9C016A03AE01D0012A0130D8A002D072
:100BC8008C8E01D08C9E8988100EE82EFED700D01E
:100BD800899803A002D08C8801D08C9803C001F0BA
:100BE800D89001320130D8A002D08C8A01D08C9ADA
:100BF80003C001F0D8900132D89001320130D8A05A
:100C080002D08C8C01D08C9C03C001F0D8900132AA
:100C1800D8900132D89001320130D8A002D08C8E01
:100C280001D08C9E8988100EE82EFED700D08998B6
:100C38001200036E899603C001F0013A0F0E0116E7
:100C48000130D8A002D08C8801D08C9803C001F064
:100C5800050E026ED8900132022EFCD70130D8A0C2
:100C680002D08C8A01D08C9A03C001F0060E026E65
:100C7800D8900132022EFCD70130D8A002D08C8C3B
:100C880001D08C9C016A03AE01D0012A0130D8A0A2
:100C980002D08C8E01D08C9E8988A60EE82EFED7B5
:100CA80000D0899803A002D08C8801D08C9803C00A
:100CB80001F0D89001320130D8A002D08C8A01D03E
:100CC8008C9A03C001F0D8900132D89001320130DB
:100CD800D8A002D08C8C01D08C9C03C001F0D89095
:100CE8000132D8900132D89001320130D8A002D018
:100CF8008C8E01D08C9E8988A60EE82EFED700D057
:100D080089981200186A16AE06D0156C161ED8B04F
:100D1800162A010E186E14AE06D0136C141ED8B025
:100D2800142A010E181A000E1A6E000E196E1550AC
:100D38001610D8B41CD0010E176E04D0D8901536F2
:100D48001636172A16AEFAD7D89019361A3615500D
:100D5800135C16501458D8A005D01550135E1650C1
:100D6800145A1980D89016321532172EEDD718500C
:100D7800D8B404D0196C1A1ED8B01A2A19C013F0A6
:100D88001AC014F01200066A04AE06D0036C041EE2
:100D9800D8B0042A010E066E02AE06D0016C021EFF
:100DA800D8B0022A010E061A000E086E000E076E51
:100DB80003500410D8B41CD0010E056E04D0D8908E
:100DC80003360436052A04AEFAD7D8900736083613
:100DD8000350015C04500258D8A005D00350015EAE
:100DE8000450025A0780D89004320332052EEDD7FA
:100DF8000650D8B404D0076C081ED8B0082A07C01B
:100E080001F008C002F01200956A8C6A966A8D6A31
:100E180094948B949480010E926EF00E936E0F0E44
:100E28008A6EF19EF098F092240EAC6E900EAB6E26
:100E3800080EB86E190EAF6E9D8A9D989E9A9E9860
:100E4800010EC26E0E0EC16E080EC06E020E146E3A
:100E5800450E136EAA0EE82EFED7132EFCD7142EBD
:100E6800FAD79480010ED56E0B0ED76EDC0ED66EB7
:100E7800F294F28AF28EF28CF290F286D58E010EFE
:100E8800356E1200186A14AE06D0136C141ED8B052
:100E9800142A010E186E16AE04D0156C161ED8B0A2
:100EA800162A15501610D8B418D0010E176E04D093
:100EB800D89015361636172A16AEFAD71550135C81
:100EC80016501458D8A004D01550135E1650145A52
:100ED800D89016321532172EF1D71850D8B404D03E
:100EE800136C141ED8B0142A13C013F014C014F0D5
:100EF8001200066A02AE06D0016C021ED8B0022AA1
:100F0800010E066E04AE04D0036C041ED8B0042A89
:100F180003500410D8B418D0010E056E04D0D89030
:100F280003360436052A04AEFAD70350015C045090
:100F38000258D8A004D00350015E0450025AD89039
:100F480004320332052EF1D70650D8B404D0016C10
:100F5800021ED8B0022A01C001F002C002F012003D
:100F680014D0050E8D6E1200040E8D6E1200060E42
:100F78008D6E1200020E8D6E1200030E8D6E120021
:100F8800070E8D6E12008D6A12001AC01CF01BC06D
:100F98001DF01D50000AD8A4F6D71C50000AD8B47A
:100FA800E0D7010AD8B4E0D7030AD8B4E0D7010AD9
:100FB800D8B4E0D7070AD8B4E0D7010AD8B4E0D744
:100FC800E2D714D0050E8D6E1200040E8D6E12003D
:100FD800060E8D6E1200020E8D6E1200030E8D6EBF
:100FE8001200070E8D6E12008D6A120008C00AF0FA
:100FF80009C00BF00B50000AD8A4F6D70A50000A13
:10100800D8B4E0D7010AD8B4E0D7030AD8B4E0D7F7
:10101800010AD8B4E0D7070AD8B4E0D7010AD8B48F
:10102800E0D7E2D7D0B21BD0AEEC0AF0010E166EB4
:10103800010E36EC0AF0620E166E7F0E176EE3ECA8
:1010480009F0D082020E1C6EE70E1B6E000EE82E11
:10105800FED71B2EFCD71C2EFAD700D01200AEEC00
:101068000AF0010E166E010E36EC0AF0730E166EBB
:101078007F0E176EE3EC09F0E5D7000E186E000E30
:10108800176E15501610D8B41CD0010E196E04D066
:10109800D89015361636192A16AEFAD7D8901736BC
:1010A80018361550135C16501458D8A005D0155092
:1010B800135E1650145A1780D89016321532192E0E
:1010C800EDD717C013F018C014F01200956A8C6A97
:1010D800010E926E896A929A898A210E166E760E90
:1010E800E82EFED7162EFCD700D0020E4BEC05F0EA
:1010F800280E4BEC05F00C0E4BEC05F0060E4BECF5
:1011080005F0010E4BEC05F0210E166E760EE82E5A
:10111800FED7162EFCD700D0AEEC0AF01200000E57
:10112800066E000E056E03500410D8B41CD0010ED4
:10113800076E04D0D89003360436072A04AEFAD7CF
:10114800D890053606360350015C04500258D8A0E2
:1011580005D00350015E0450025A0580D89004322D
:101168000332072EEDD705C001F006C002F01200C9
:10117800096E640E016E095064EC09F0300FBEEC84
:101188000AF00A0E056E0A0E016E095064EC09F0A9
:1011980022EC0AF0300FBEEC0AF00A0E056E095078
:1011A80022EC0AF0300FBEEC0AF00D0EBEEC0AF08D
:1011B8000A0EBEEC0AF0120015501610D8B418D05A
:1011C800010E176E04D0D89015361636172A16AEAB
:1011D800FAD71550135C16501458D8A004D01550DF
:1011E800135E1650145AD89016321532172EF1D7AE
:1011F80013C013F014C014F01200000E316E040E68
:10120800306EAEEC0AF0010E166E010E36EC0AF0E6
:10121800A40E166E7F0E176EE3EC09F0010E166E23
:10122800020E36EC0AF0D10E166E7F0E176EE3EC46
:1012380009F0010E8D6E8B94D59EFFD703500410D4
:10124800D8B418D0010E056E04D0D89003360436F1
:10125800052A04AEFAD70350015C04500258D8A0FE
:1012680004D00350015E0450025AD890043203326D
:10127800052EF1D701C001F002C002F01200000EE5
:10128800316E040E306EB6EC0AF0010E046E010EDB
:1012980048EC0AF0A40E046E7F0E056EF8EC09F017
:1012A800010E046E020E48EC0AF0D10E046E7F0E99
:1012B800056EF8EC09F0010E8D6E8B94D59EFFD764
:1012C800026E046A0150D8B415D0010E036E03D023
:1012D800D8900136032A01AEFBD7D89004360150C6
:1012E800025CD8A003D00150025E0480D89001327D
:1012F800032EF3D7045012001A6E1A50080DF3503B
:10130800400F4BEC05F01B6A1B501624186E000E9C
:101318001720196E18C0F6FF19C0F7FF0800F5501E
:10132800E2EC04F01B2A070E1B64EED71200AEECA9
:101338000AF0010E166E010E36EC0AF0510E166E0A
:101348007F0E176EE3EC09F0010E166E020E36ECF6
:101358000AF0DE0E166E7F0E176EE3EC09F012002F
:10136800B6EC0AF0010E046E010E48EC0AF0510EBC
:10137800046E7F0E056EF8EC09F0010E046E020E85
:1013880048EC0AF0DE0E046E7F0E056EF8EC09F0EC
:101398001200880EF66E150EF76E000EF86E090034
:1013A800F5CF35F000EE24F0110EEE6AE806FDE107
:1013B80036903692000EF86E000109EF00F00AD060
:1013C80016C0F6FF17C0F7FF0800F550E2EC04F06E
:1013D800164A172A16C0F6FF17C0F7FF0800F5507F
:1013E8000009D8B41200ECD70AD004C0F6FF05C033
:1013F800F7FF0800F550B4EC05F0044A052A04C0CC
:10140800F6FF05C0F7FF0800F5500009D8B4120030
:10141800ECD70AD002C0F6FF03C0F7FF0800F5506A
:10142800BEEC0AF0024A032A02C0F6FF03C0F7FF27
:101438000800F5500009D8B41200ECD7066E080E63
:10144800076E086AD89006340834086ED8900636B5
:101458000550085CD8A002D00550085E072EF2D7C8
:1014680008501200176E1704D8B402D0BF0E01D06E
:101478007F0E1624196E1A6A000E1A2219C018F067
:1014880018504BEC05F01200056E0504D8B402D0D4
:10149800BF0E01D07F0E0424066E076A000E0722D5
:1014A80006C008F008501DEC06F01200016E0C0E84
:1014B800016402D0000E12000144E846FC0B010949
:1014C800C26EC282C2B2FED7C4501200AEEC0AF09D
:1014D800010E166E010E36EC0AF0B30E166E7F0E74
:1014E800176EE3EC09F01200B6EC0AF0010E046E78
:1014F800010E48EC0AF0B30E046E7F0E056EF8EC90
:1015080009F012008984A30E136E550EE82EFED73B
:10151800132EFCD70000899412008984210E136EC3
:10152800760EE82EFED7132EFCD700D08994120031
:1015380018C01AF00F0E1A168C50F00B1A108C6E79
:10154800120006C008F00F0E08168C50F00B081099
:101558008C6E1200010E4BEC05F0A60EE82EFED79D
:1015680000D01200010E1DEC06F0A60EE82EFED7E4
:1015780000D01200016E9EA8FED701C0ADFF120078
:011588000161
:107EAC00004269656E76656E69646F20616C204373
:107EBC006F6E7461646F7200003134372A3235385A
:107ECC0030333639234142434404150E1F0E15043A
:107EDC00000000061F0600000004040E04040C0839
:107EEC000404040E040406091004040E040404041F
:107EFC000A50617261646120646520656D6572670A
:107F0C00656E636961200D0A00202020202020214D
:107F1C00424F4F4D21202020202020202020005295
:107F2C006573657420646520636F6E74656F200DD6
:107F3C000A2000456E63656E646572204D6F746F28
:107F4C0072200D0A00436F6E74656F20436F6D7065
:107F5C006C65746F210046616C6C612064652065F2
:107F6C006E65726769610052657365742064652083
:107F7C007573756172696F00417061676172206D14
:107F8C006F746F72200D0A0056616C6F72206465FD
:107F9C006C204144433A20002120454D4552474531
:107FAC004E434941202100496E6772657365207606
:107FBC00616C6F723A0052616E676F20696E766108
:107FCC006C69646F005265736574206D616E7561C8
:107FDC006C0050726573696F6E65204F4B00466183
:107FEC006C74616E7465733A004F626A657469767D
:047FFC006F3A0000D8
:020000040020DA
:08000000FFFFFFFFFFFFFFFF00
:020000040030CA
:0E0000000009191EFF8181FF0FC00FE00F40A5
:00000001FF
