:0400000007EF00F016
:0A0008001E8252ED09F00AEF09F024
:10080000003132334134353642373839432A3023C8
:100810004420436F6E7461646F72204465204F62A0
:100820006A65746F732000436F6E74656F20436F49
:100830006D706C65746F21002120454D4552474510
:100840004E434941202100496E67726573652076E9
:10085000616C6F723A0052616E676F20696E7661EB
:100860006C69646F005265736574206D616E7561AB
:100870006C0050726573696F6E65204F4B00466166
:100880006C74616E7465733A004F626A6574697660
:100890006F3A0000ECEC08F0956A8C6A959C8C8CA1
:1008A000F00E936E8A6AF19E020E0F6E450E0E6E6A
:1008B000AA0EE82EFED70E2EFCD70F2EFAD7946A7A
:1008C0008B6A966A8D6A94948B94010ED56E0B0E8A
:1008D000D76EDC0ED66EF294F28AD58ED09EF28E52
:1008E000F28CB5EC07F0000E1C6E010E1B6E67EC6F
:1008F00009F0010E046E010E34EC09F0470E046E8F
:1009000020EC09F055EC07F0106E440E1018D8A436
:100910001CD0000E1C6E040E1B6E67EC09F0010E5D
:10092000046E010E34EC09F0380E046E20EC09F070
:10093000010E046E020E34EC09F0650E046E20EC1C
:1009400009F0010E8D6ED59EFFD71050D8B4DAD7BE
:10095000000E116E000E126E000E136E000E146E5D
:10096000430E1018D8A43BD11D50D8A402D0010EBC
:1009700001D0000E1D6E1DA002D08C8C30D18C9C3D
:100980002ED12F0E106444D03A0E106041D00A0EC2
:100990001502F3CF0EF0F4CF0FF01602F3500F262E
:1009A00010500E26000E0F22D00E0E24156EFF0ED4
:1009B0000F20166E165004E1640E155CD8A004D00A
:1009C000000E166E000E156E46EC09F0070E046E52
:1009D000020E34EC09F015C001F016C002F0000E52
:1009E000046E0A0E036EA2EC08F00150300F83EC87
:1009F00006F015C001F016C002F0000E046E0A0EDB
:100A0000036ECBEC08F00150300F83EC06F0F9D008
:100A10002A0E1018D8A432D015C001F016C002F06A
:100A2000000E046E0A0E036EA2EC08F001C015F071
:100A300002C016F046EC09F0070E046E020E34EC0C
:100A400009F015C001F016C002F0000E046E0A0E87
:100A5000036EA2EC08F00150300F83EC06F015C0D5
:100A600001F016C002F0000E046E0A0E036ECBEC0D
:100A700008F00150300F83EC06F0C3D0230E10189D
:100A8000D8A4BFD015501610D8B419D0165017E1FD
:100A90003C0E155CD8B013D015C019F016C01AF072
:100AA000000E186E000E176E000E166E000E156EFC
:100AB000000E1C6E020E1B6E0AEC06F0A2D067EC54
:100AC00009F0010E046E010E34EC09F0560E046EAE
:100AD00020EC09F0020E0F6EE70E0E6E000EE82EEF
:100AE000FED70E2EFCD70F2EFAD700D0000E166EB2
:100AF000000E156E46EC09F084D0410E1018D8A4F3
:100B00002FD0185006E13B0E175CD8B002D0174A20
:100B1000182A1950175C1A501858D8B006D0185017
:100B200004E13B0E175CD8A0C7D70AEC06F0000E14
:100B30001C6E030E1B6E67EC09F0010E046E010EB5
:100B400034EC09F0270E046E20EC09F0010E046E5F
:100B5000020E34EC09F0720E046E20EC09F051D054
:100B6000420E1018D8A429D0000E1C6E030E1B6E66
:100B7000000E166E000E156E000E186E000E176E2B
:100B8000000E076E000E066E5DEC09F0050E8D6E10
:100B900067EC09F0010E046E010E34EC09F0270E2B
:100BA000046E20EC09F0010E046E020E34EC09F024
:100BB000720E046E20EC09F024D02A0E1018D8A46E
:100BC00020D0000E186E000E176E76D7230E101868
:100BD000D8A417D0000E1C6E010E1B6E87D71BC049
:100BE0000EF01CC00FF00F50000AD8A40AD00E500F
:100BF000010AD8B4C6D6030AD8B47FD7010AD8B43C
:100C0000E5D7410E0E6EEE0EE82EFED70E2EFCD767
:100C100000D078D667EC09F0010E046E010E34ECBA
:100C200009F0890E046E20EC09F019C001F01AC019
:100C300002F0000E046E0A0E036EA2EC08F00150E2
:100C4000300F83EC06F019C001F01AC002F0000E5C
:100C5000046E0A0E036ECBEC08F00150300F83ECEB
:100C600006F0010E046E020E34EC09F07E0E046EE6
:100C700020EC09F01750195C0C6E18501A580D6EC4
:100C80000DAE04D0000E0D6E000E0C6E0CC001F007
:100C90000DC002F0000E046E0A0E036EF9EC07F0B0
:100CA0000150300F83EC06F00CC001F00DC002F0D3
:100CB000000E046E0A0E036E3AEC08F00150300F7D
:100CC00083EC06F017C001F018C002F0000E046EAD
:100CD0000A0E036ECBEC08F001C006F002C007F06C
:100CE0005DEC09F017C001F018C002F0000E046EB0
:100CF0000A0E036EA2EC08F001C008F002C009F071
:100D000071EC08F01200036E8C8003C001F0013A10
:100D10000F0E01160130D8A002D08C8401D08C9423
:100D200003C001F0050E026ED8900132022EFCD7EE
:100D30000130D8A002D08C8601D08C9603C001F07F
:100D4000060E026ED8900132022EFCD70130D8A0D8
:100D500002D08C8801D08C98016A03AE01D0012AA0
:100D60000130D8A002D08C8A01D08C9A8C82100ECF
:100D7000E82EFED700D08C9203A002D08C8401D044
:100D80008C9403C001F0D89001320130D8A002D079
:100D90008C8601D08C9603C001F0D8900132D89097
:100DA00001320130D8A002D08C8801D08C9803C0C9
:100DB00001F0D8900132D8900132D8900132013040
:100DC000D8A002D08C8A01D08C9A8C82100EE82E8A
:100DD000FED700D08C921200036E8C9003C001F0FD
:100DE000013A0F0E01160130D8A002D08C8401D038
:100DF0008C9403C001F0050E026ED8900132022ED1
:100E0000FCD70130D8A002D08C8601D08C9603C0CC
:100E100001F0060E026ED8900132022EFCD701308E
:100E2000D8A002D08C8801D08C98016A03AE01D082
:100E3000012A0130D8A002D08C8A01D08C9A8C82F1
:100E4000A60EE82EFED700D08C9203A002D08C8490
:100E500001D08C9403C001F0D89001320130D8A0A9
:100E600002D08C8601D08C9603C001F0D89001325C
:100E7000D89001320130D8A002D08C8801D08C9853
:100E800003C001F0D8900132D8900132D8900132DD
:100E90000130D8A002D08C8A01D08C9A8C82A60E08
:100EA000E82EFED700D08C921200000E046E000EC9
:100EB000036E04BE06D0045056E1040E035CD8B0A5
:100EC00052D003C001F0010E026E012A02D0D89068
:100ED0000236012EFCD70250FF0A0F0B8A6EFA0E63
:100EE00000D0E82EFDD7000E066E000E056E05C080
:100EF00001F0040E0126010E026E012A02D0D890E4
:100F00000236012EFCD7025081140009D8A41ED04D
:100F100005C001F0040E0126010E026E012A02D066
:100F2000D8900236012EFCD7025081140009D8B4A3
:100F3000EFD70350040DF350010F0524016E01C0DB
:100F4000F6FF080EF76E0800F5501200054A062A53
:100F500006BECDD7065004E1040E055CD8A0C7D765
:100F6000034A042AA6D7000E120067EC09F0010E0E
:100F7000046E010E34EC09F0110E046E20EC09F041
:100F8000620E096E660EE82EFED7092EFCD7000E03
:100F90000B6E000E0A6E73EC09F0A30E096E550E6F
:100FA000E82EFED7092EFCD700000A4A0B2A0BBEFA
:100FB000F2D70B5004E1080E0A5CD8A0ECD7000E63
:100FC0000D6E000E0C6E6FEC09F0A30E096E550E3F
:100FD000E82EFED7092EFCD700000C4A0D2A0DBEC4
:100FE000F2D70D5005E1080E0C5CD8B01200EBD71B
:100FF0001200066A04AE06D0036C041ED8B0042AA0
:10100000010E066E02AE06D0016C021ED8B0022A96
:10101000010E061A000E086E000E076E0350041033
:10102000D8B41CD0010E056E04D0D8900336043617
:10103000052A04AEFAD7D890073608360350015C6B
:1010400004500258D8A005D00350015E0450025A43
:101050000780D89004320332052EEDD70650D8B45D
:1010600004D0076C081ED8B0082A07C001F008C0D9
:1010700002F01200066A02AE06D0016C021ED8B061
:10108000022A010E066E04AE04D0036C041ED8B012
:10109000042A03500410D8B418D0010E056E04D0F1
:1010A000D89003360436052A04AEFAD70350015C03
:1010B00004500258D8A004D00350015E0450025AD4
:1010C000D89004320332052EF1D70650D8B404D09C
:1010D000016C021ED8B0022A01C001F002C002F069
:1010E000120014D0050E8D6E1200040E8D6E1200CB
:1010F000060E8D6E1200020E8D6E1200030E8D6EA6
:101100001200070E8D6E12008D6A120008C00AF0E0
:1011100009C00BF00B50000AD8A4F6D70A50000AF9
:10112000D8B4E0D7010AD8B4E0D7030AD8B4E0D7DE
:10113000010AD8B4E0D7070AD8B4E0D7010AD8B476
:10114000E0D7E2D7000E066E000E056E03500410C5
:10115000D8B41CD0010E076E04D0D89003360436E4
:10116000072A04AEFAD7D890053606360350015C3C
:1011700004500258D8A005D00350015E0450025A12
:101180000580D89004320332072EEDD705C001F058
:1011900006C002F0120003500410D8B418D0010E9B
:1011A000056E04D0D89003360436052A04AEFAD76B
:1011B0000350015C04500258D8A004D00350015ED3
:1011C0000450025AD89004320332052EF1D701C0E0
:1011D00001F002C002F01200956A8C6A070E046EDC
:1011E0007D0EE82EFED7042EFCD70000020EECEC9C
:1011F00006F0280EECEC06F00C0EECEC06F0060EF9
:10120000ECEC06F0010EECEC06F0A60EE82EFED794
:1012100000D01200EE0EF66E120EF76E000EF86E93
:101220000900F5CF1DF000EE11F00C0EEE6AE80695
:10123000FDE11E901E92000EF86E00014AEF04F0D0
:1012400009D004C0F6FF080EF76E0800F55083ECD5
:1012500006F0042A04C0F6FF080EF76E0800F550E9
:101260000009D8B41200EDD7056E0504D8B402D039
:10127000BF0E01D07F0E0424066E076A000E0722FF
:1012800006C008F00850ECEC06F0120067EC09F01C
:10129000010E046E010E34EC09F0470E046E20ECD2
:1012A00009F012000600F2A406D00B0ED76EDC0E79
:1012B000D66EF2948B741E92110006C008F0083AA4
:1012C000F00E08168B500F0B08108B6E1200010EDB
:1012D000ECEC06F0A60EE82EFED700D012001C0E95
:0F12E000ECEC06F01200180EECEC06F012000118
:020000040020DA
:08000000FFFFFFFFFFFFFFFF00
:020000040030CA
:0E00000000091F1EFF8185FF0FC00FE00F409B
:00000001FF
