:0400000007EF00F016
:0A0008004D82C4ED06F0A4EF0CF0E9
:10080000002020436F6E7461646F72204465204F36
:10081000626A65746F73202000003134372A3235E4
:100820003830333639234142434404150E1F0E1528
:1008300004000000061F0600000004040E04040C5F
:10084000080404040E040406091004040E0404043D
:10085000040A202020202020A1424F4F4D2120209B
:100860002020202020202000436F6E74656F2043DD
:100870006F6D706C65746F21002120454D455247A6
:10088000454E434941202100496E677265736520DA
:1008900076616C6F723A0052616E676F20696E7696
:1008A000616C69646F005265736574206D616E756B
:1008B000616C0050726573696F6E65204F4B004626
:1008C000616C74616E7465733A004F626A65746935
:0508D000766F3A000004
:1008D60088EC0BF0DCEC0BF0020E0001616F450EAC
:1008E600606FA90EE82EFED7602FFCD7612FFAD7CE
:1008F60000D0D4EC05F0000E496E010E486E30ECC7
:100906000DF0000E82B0010E0001626F6205D8A4E0
:1009160025D04A50D8A422D0000E416E000E406E5B
:10092600020E48184910D8A419D0455006E13B0ECE
:10093600445CD8B002D0444A452A4650445C4750ED
:100946004558D8A009D0A0EC07F0000E496E030E5A
:10095600486EBAEC0CF002D0A0EC07F062C04AF088
:100966004B50D8B4CED7000E416E000E406E4B50A1
:10097600190F0001606F60C0F6FF080EF76E0800E1
:10098600F5CF63F04B6A440E6319D8B470EC0CF0E3
:10099600430E00016319D8A4E7D04C50D8A402D066
:1009A600010E01D0000E4C6E4CA002D0898ADCD01C
:1009B600899ADAD02F0E636544D03A0E636141D02E
:1009C6000A0E4202F3CF60F0F4CF61F04302F35017
:1009D600612763516027000E6123D00E6025426EA9
:1009E600FF0E6121436E435004E1640E425CD8A0C1
:1009F60004D0000E436E000E426E30EC0DF0070E72
:100A0600166E020E0CEC0DF042C013F043C014F04B
:100A1600000E166E0A0E156EB3EC0BF01350300F67
:100A260092EC08F042C013F043C014F0000E166EAC
:100A36000A0E156E2EEC0CF01350300F92EC08F0E7
:100A4600A6D02A0E6319D8A432D042C013F043C0F0
:100A560014F0000E166E0A0E156EB3EC0BF013C0F2
:100A660042F014C043F030EC0DF0070E166E020E85
:100A76000CEC0DF042C013F043C014F0000E166EDD
:100A86000A0E156EB3EC0BF01350300F92EC08F013
:100A960042C013F043C014F0000E166E0A0E156E17
:100AA6002EEC0CF01350300F92EC08F070D0230EA1
:100AB6006319D8A46CD042504310D8B419D043500F
:100AC60017E13C0E425CD8B013D042C046F043C09A
:100AD60047F0000E456E000E446E000E436E000E8B
:100AE600426E000E496E020E486EA0EC07F04FD023
:100AF6005AEC0DF0010E166E010E0CEC0DF0970E71
:100B0600166EE4EC0CF0020E0001616FE70E606FEA
:100B1600000EE82EFED7602FFCD7612FFAD7000013
:100B2600000E436E000E426E30EC0DF030D0420ED9
:100B36006319D8A407D0000E496E030E486EBAECAE
:100B46000CF025D0410E6319D8A421D0000E456EB5
:100B5600000E446ECAD7230E6319D8A418D0000E0F
:100B6600496E010E486EDCD748C060F049C061F09E
:100B760000016151000AD8A40AD06051010AD8B414
:100B860019D7030AD8B4D3D7010AD8B4E4D7410E8B
:100B96000001606FEE0EE82EFED7602FFCD7000036
:100BA600B0D64A0E166E000E8CEC0CF0420E166E87
:100BB600010E8CEC0CF03A0E166E020E8CEC0CF05C
:100BC6002A0E166E030E8CEC0CF0320E166E040E08
:100BD6008CEC0CF0010EF66E080EF76E20EE1DF092
:100BE600170E0900F5CFDEFFE806FBE2000E386EB1
:100BF600100E376E000E3F6E000E3E6E010E166E24
:100C0600010E0CEC0DF0000E3D6E000E3C6E3E50DB
:100C16001D0F3C24D96EDA6ADF503B6E1F0E3B6413
:100C260003D07E0E3B6405D0000E366E200E356E68
:100C360003D03BC035F0366A355092EC08F03C4A9A
:100C46003D2A3DBEE4D73D5004E1100E3C5CD8A0E1
:100C5600DED73EC016F0020E0CEC0DF0040E92EC40
:100C660008F03E28166E020E0CEC0DF03EC013F096
:100C76003FC014F0000E166E030E156EB8EC0AF0A7
:100C8600135092EC08F0660E1B6E4B0EE82EFED744
:100C96001B2EFCD700003EC016F0020E0CEC0DF029
:100CA600200E92EC08F03E28166E020E0CEC0DF0AB
:100CB600200E92EC08F03E4A3F2A37503E5C3F50E9
:100CC600800A1B6E3850800A1B58D8A097D7100E82
:100CD600166E020E0CEC0DF0030E92EC08F0010EEF
:100CE600166E010E0CEC0DF0520E166EE4EC0CF0C6
:100CF600A30E1B6E550EE82EFED71B2EFCD700004A
:100D0600000E3A6E000E396E100E166E020E0CECC8
:100D16000DF0200E92EC08F0310E1B6EB20EE82E8E
:100D2600FED71B2EFCD700D0100E166E020E0CEC52
:100D36000DF0030E92EC08F0310E1B6EB20EE82E8B
:100D4600FED71B2EFCD700D0394A3A2A3ABEDCD74A
:100D56003A5004E1030E395CD8A0D6D7020E1C6EB9
:100D6600040E1B6EBA0EE82EFED71B2EFCD71C2EC9
:100D7600FAD700D05AEC0DF0000E416E000E406E10
:100D860012000600F6CF0FF0F7CF10F0F8CF11F0F3
:100D9600F5CF12F0F2A06AD0F00E8118D8B44AD07E
:100DA600FE0E8A6E81B802D0010E41D081BA02D001
:100DB600020E3DD081BC02D0030E39D081BE02D0D6
:100DC600040E35D0FD0E8A6E81B802D0050E2FD0E6
:100DD60081BA02D0060E2BD081BC02D0070E27D0D6
:100DE60081BE02D0080E23D0FB0E8A6E81B802D0D7
:100DF600090E1DD081BA02D00A0E19D081BC02D0CC
:100E06000B0E15D081BE02D00C0E11D0F70E8A6ED5
:100E160081B802D00D0E0BD081BA02D00E0E07D0CB
:100E260081BC02D00F0E03D081BE02D0100E4B6ED5
:100E3600F00E8A6E410E0E6EEE0EE82EFED70E2EC8
:100E4600FCD700D0F290415004E10B0E405CD8A0D4
:100E560009D0415007E1140E405CD8B003D0010E12
:100E66004C6E898A000E416E000E406EF2A45BD075
:100E76000B0ED76EDC0ED66EF2948972404A412A6A
:100E86000A0E40184110D8A402D04C6A899A4150E3
:100E960004E1140E405CD8A046D062EC0DF08D6AD9
:100EA6008C6A899AF28AF286F2900300000E416EED
:100EB600000E406E44C001F045C002F0000E046E04
:100EC6000A0E036E05EC0CF001C008F002C009F032
:100ED60057EC0BF044C001F045C002F0000E046E62
:100EE6000A0E036E4FEC0CF001C006F002C007F0CC
:100EF60051EC0DF0F28A010E4C6E898A48044910B5
:100F0600D8A403D03CEC0DF00ED0020E48184910C0
:100F1600D8A403D019EC08F006D0030E48184910DF
:100F2600D8B4CFEC0CF012C0F5FF11C0F8FF10C01A
:100F3600F7FF0FC0F6FF4D9211005AEC0DF0010EAF
:100F4600166E010E0CEC0DF0CA0E166EE4EC0CF0EB
:100F560046C013F047C014F0000E166E0A0E156E4A
:100F6600B3EC0BF01350300F92EC08F046C013F0C0
:100F760047C014F0000E166E0A0E156E2EEC0CF01D
:100F86001350300F92EC08F0010E166E020E0CECA8
:100F96000DF0BF0E166EE4EC0CF04450465C1E6E6F
:100FA600455047581F6E1FAE04D0000E1F6E000E30
:100FB6001E6E1EC013F01FC014F0000E166E0A0E31
:100FC600156E36EC0AF01350300F92EC08F01EC086
:100FD60013F01FC014F0000E166E0A0E156EB8EC54
:100FE6000AF01350300F92EC08F044C013F045C0DD
:100FF60014F0000E166E0A0E156E2EEC0CF013C0D1
:1010060018F014C019F048EC0DF044C013F045C0B8
:1010160014F0000E166E0A0E156EB3EC0BF013C02C
:101026001AF014C01BF026EC0BF0120062EC0DF067
:10103600010E046E010E1EEC0DF0CA0E046EF8ECE5
:101046000CF046C001F047C002F0000E046E0A0E16
:10105600036E05EC0CF00150300F64EC09F046C04D
:1010660001F047C002F0000E046E0A0E036E4FEC4C
:101076000CF00150300F64EC09F0010E046E020E04
:101086001EEC0DF0BF0E046EF8EC0CF04450465CFE
:101096000C6E455047580D6E0DAE04D0000E0D6E09
:1010A600000E0C6E0CC001F00DC002F0000E046EB6
:1010B6000A0E036E77EC0AF00150300F64EC09F06B
:1010C6000CC001F00DC002F0000E046E0A0E036E95
:1010D600EFEC0AF00150300F64EC09F044C001F067
:1010E60045C002F0000E046E0A0E036E4FEC0CF0C3
:1010F60001C006F002C007F051EC0DF044C001F04B
:1011060045C002F0000E046E0A0E036E05EC0CF0EC
:1011160001C008F002C009F057EC0BF01200156E82
:10112600898615C013F0133A0F0E13161330D8A084
:1011360002D08C8801D08C9815C013F0050E146E61
:10114600D8901332142EFCD71330D8A002D08C8A34
:1011560001D08C9A15C013F0060E146ED890133277
:10116600142EFCD71330D8A002D08C8C01D08C9CC6
:10117600136A15AE01D0132A1330D8A002D08C8E74
:1011860001D08C9E8988100EE82EFED700D0899853
:1011960015A002D08C8801D08C9815C013F0D89079
:1011A60013321330D8A002D08C8A01D08C9A15C085
:1011B60013F0D8901332D89013321330D8A002D03F
:1011C6008C8C01D08C9C15C013F0D8901332D8901B
:1011D6001332D89013321330D8A002D08C8E01D09F
:1011E6008C9E8988100EE82EFED700D089981200B2
:1011F600156E899615C013F0133A0F0E1316133099
:10120600D8A002D08C8801D08C9815C013F0050E9A
:10121600146ED8901332142EFCD71330D8A002D0F7
:101226008C8A01D08C9A15C013F0060E146ED890D5
:101236001332142EFCD71330D8A002D08C8C01D0D8
:101246008C9C136A15AE01D0132A1330D8A002D095
:101256008C8E01D08C9E8988A60EE82EFED700D0F3
:10126600899815A002D08C8801D08C9815C013F0EF
:10127600D89013321330D8A002D08C8A01D08C9A21
:1012860015C013F0D8901332D89013321330D8A06B
:1012960002D08C8C01D08C9C15C013F0D8901332E0
:1012A600D8901332D89013321330D8A002D08C8E37
:1012B60001D08C9E8988A60EE82EFED700D089988C
:1012C6001200036E898603C001F0013A0F0E011663
:1012D6000130D8A002D08C8801D08C9803C001F0D0
:1012E600050E026ED8900132022EFCD70130D8A02E
:1012F60002D08C8A01D08C9A03C001F0060E026ED1
:10130600D8900132022EFCD70130D8A002D08C8CA6
:1013160001D08C9C016A03AE01D0012A0130D8A00D
:1013260002D08C8E01D08C9E8988100EE82EFED7B6
:1013360000D0899803A002D08C8801D08C9803C075
:1013460001F0D89001320130D8A002D08C8A01D0A9
:101356008C9A03C001F0D8900132D8900132013046
:10136600D8A002D08C8C01D08C9C03C001F0D89000
:101376000132D8900132D89001320130D8A002D083
:101386008C8E01D08C9E8988100EE82EFED700D058
:1013960089981200036E899603C001F0013A0F0E78
:1013A60001160130D8A002D08C8801D08C9803C0D9
:1013B60001F0050E026ED8900132022EFCD70130E4
:1013C600D8A002D08C8A01D08C9A03C001F0060EF8
:1013D600026ED8900132022EFCD70130D8A002D07E
:1013E6008C8C01D08C9C016A03AE01D0012A01309D
:1013F600D8A002D08C8E01D08C9E8988A60EE82EAD
:10140600FED700D0899803A002D08C8801D08C9892
:1014160003C001F0D89001320130D8A002D08C8AE6
:1014260001D08C9A03C001F0D8900132D8900132D5
:101436000130D8A002D08C8C01D08C9C03C001F066
:10144600D8900132D8900132D89001320130D8A01C
:1014560002D08C8E01D08C9E8988A60EE82EFED7EF
:1014660000D089981200186A16AE06D0156C161EA2
:10147600D8B0162A010E186E14AE06D0136C141EC0
:10148600D8B0142A010E181A000E1A6E000E196E24
:1014960015501610D8B41CD0010E176E04D0D89073
:1014A60015361636172A16AEFAD7D89019361A36C2
:1014B6001550135C16501458D8A005D01550135E5D
:1014C6001650145A1980D89016321532172EEDD7A9
:1014D6001850D8B404D0196C1A1ED8B01A2A19C0DC
:1014E60013F01AC014F01200066A04AE06D0036C9C
:1014F600041ED8B0042A010E066E02AE06D0016C98
:10150600021ED8B0022A010E061A000E086E000E40
:10151600076E03500410D8B41CD0010E056E04D01B
:10152600D89003360436052A04AEFAD7D890073683
:1015360008360350015C04500258D8A005D0035069
:10154600015E0450025A0780D89004320332052EF9
:10155600EDD70650D8B404D0076C081ED8B0082AB8
:1015660007C001F008C002F01200186A14AE06D0D7
:10157600136C141ED8B0142A010E186E16AE04D0C1
:10158600156C161ED8B0162A15501610D8B418D0D9
:10159600010E176E04D0D89015361636172A16AED9
:1015A600FAD71550135C16501458D8A004D015500D
:1015B600135E1650145AD89016321532172EF1D7DC
:1015C6001850D8B404D0136C141ED8B0142A13C003
:1015D60013F014C014F01200066A02AE06D0016CB5
:1015E600021ED8B0022A010E066E04AE04D0036CA9
:1015F600041ED8B0042A03500410D8B418D0010E23
:10160600056E04D0D89003360436052A04AEFAD700
:101616000350015C04500258D8A004D00350015E68
:101626000450025AD89004320332052EF1D70650E0
:10163600D8B404D0016C021ED8B0022A01C001F051
:1016460002C002F0120014D0050E8D6E1200040EB8
:101656008D6E1200060E8D6E1200020E8D6E120039
:10166600030E8D6E1200070E8D6E12008D6A12002B
:101676001AC01CF01BC01DF01D50000AD8A4F6D7D6
:101686001C50000AD8B4E0D7010AD8B4E0D7030A40
:10169600D8B4E0D7010AD8B4E0D7070AD8B4E0D75F
:1016A600010AD8B4E0D7E2D714D0050E8D6E120029
:1016B600040E8D6E1200060E8D6E1200020E8D6ED9
:1016C6001200030E8D6E1200070E8D6E12008D6ACB
:1016D600120008C00AF009C00BF00B50000AD8A48B
:1016E600F6D70A50000AD8B4E0D7010AD8B4E0D732
:1016F600030AD8B4E0D7010AD8B4E0D7070AD8B4A9
:10170600E0D7010AD8B4E0D7E2D7956A8C6A966A20
:101716008D6A0F0EC16E050E926EF00E936E0F0E51
:101726008A6EF19EF098F092020E146E450E136EBC
:10173600AA0EE82EFED7132EFCD7142EFAD79480C5
:10174600010ED56E0B0ED76EDC0ED66EF294F28AB3
:10175600F28EF28CF290F286D58E010E4C6E12004D
:10176600000E196E000E186E15501610D8B41CD047
:10177600010E176E04D0D89015361636172A16AEF7
:10178600FAD7D890183619361550135C16501458D7
:10179600D8A005D01550135E1650145A1880D8904C
:1017A60016321532172EEDD718C013F019C014F0E3
:1017B6001200956A8C6A050E926E896A929A898AD7
:1017C600210E166E760EE82EFED7162EFCD700D00A
:1017D600020EFBEC08F0280EFBEC08F00C0EFBECFE
:1017E60008F0060EFBEC08F0010EFBEC08F0210EEB
:1017F600166E760EE82EFED7162EFCD700D05AECC3
:101806000DF01200000E066E000E056E0350041059
:10181600D8B41CD0010E076E04D0D8900336043617
:10182600072A04AEFAD7D890053606360350015C6F
:1018360004500258D8A005D00350015E0450025A45
:101846000580D89004320332072EEDD705C001F08B
:1018560006C002F0120015501610D8B418D0010EAA
:10186600176E04D0D89015361636172A16AEFAD744
:101876001550135C16501458D8A004D01550135E9A
:101886001650145AD89016321532172EF1D713C0A7
:1018960013F014C014F0120003500410D8B418D07A
:1018A600010E056E04D0D89003360436052A04AE20
:1018B600FAD70350015C04500258D8A004D0035054
:1018C600015E0450025AD89004320332052EF1D735
:1018D60001C001F002C002F01200000E496E040EB3
:1018E600486E5AEC0DF0010E166E010E0CEC0DF062
:1018F600790E166EE4EC0CF0010E166E020E0CEC70
:101906000DF0A60E166EE4EC0CF0010E8D6ED59E53
:10191600FFD7186E1850080DF350400FFBEC08F077
:10192600196A16501924176E17C0F6FF080EF76EBF
:101936000800F55092EC08F0192A070E1964F1D741
:101946001200D40EF66E1A0EF76E000EF86E09002F
:10195600F5CF4CF000EE40F00C0EEE6AE806FDE125
:101966004D904D92000EF86E00016BEF04F05AECAC
:101976000DF0010E166E010E0CEC0DF0680E166ED3
:10198600E4EC0CF0010E166E020E0CEC0DF0B30E2C
:10199600166EE4EC0CF0120062EC0DF0010E046E13
:1019A600010E1EEC0DF0680E046EF8EC0CF0010E44
:1019B600046E020E1EEC0DF0B30E046EF8EC0CF085
:1019C600120009D016C0F6FF080EF76E0800F55093
:1019D60092EC08F0162A16C0F6FF080EF76E0800FD
:1019E600F5500009D8B41200EDD709D004C0F6FFAF
:1019F600080EF76E0800F55064EC09F0042A04C0DE
:101A0600F6FF080EF76E0800F5500009D8B412006C
:101A1600EDD7176E1704D8B402D0BF0E01D07F0ED3
:101A26001624196E1A6A000E1A2219C018F01850D8
:101A3600FBEC08F01200056E0504D8B402D0BF0E08
:101A460001D07F0E0424066E076A000E072206C028
:101A560008F00850CDEC09F012005AEC0DF0010E1A
:101A6600166E010E0CEC0DF0880E166EE4EC0CF002
:101A7600120062EC0DF0010E046E010E1EEC0DF06C
:101A8600880E046EF8EC0CF0120018C01AF00F0E57
:101A96001A168C50F00B1A108C6E120006C008F045
:101AA6000F0E08168C50F00B08108C6E1200010EEB
:101AB600FBEC08F0A60EE82EFED700D01200010EB1
:0F1AC600CDEC09F0A60EE82EFED700D0120001DD
:020000040020DA
:08000000FFFFFFFFFFFFFFFF00
:020000040030CA
:0E00000000091F1EFF8181FF0FC00FE00F409F
:00000001FF
