:0400000007EF00F016
:0A0008004C82C3ED06F0A2EF0CF0ED
:10080000004269656E76656E69646F20616C204395
:100810006F6E7461646F7200003134372A3235387C
:1008200030333639234142434404150E1F0E15045C
:10083000000000061F0600000004040E04040C085B
:100840000404040E040406091004040E0404040441
:100850000A202020202020A1424F4F4D212020207F
:1008600020202020202000436F6E74656F20436F8E
:100870006D706C65746F21002120454D45524745D0
:100880004E434941202100496E67726573652076A9
:10089000616C6F723A0052616E676F20696E7661AB
:1008A0006C69646F005265736574206D616E75616B
:1008B0006C0050726573696F6E65204F4B00466126
:1008C0006C74616E7465733A004F626A6574697620
:1008D0006F3A000086EC0BF0DAEC0BF0020E000130
:1008E000616F450E606FA90EE82EFED7602FFCD712
:1008F000612FFAD700D0D3EC05F0000E486E010E40
:10090000476E2EEC0DF0000E82B0010E0001626FFA
:100910006205D8A425D04950D8A422D0000E406E3C
:10092000000E3F6E020E47184810D8A419D044504C
:1009300006E13B0E435CD8B002D0434A442A4550FE
:10094000435C46504458D8A009D09EEC07F0000EF6
:10095000486E030E476EB8EC0CF002D09EEC07F028
:1009600062C049F04A50D8B4CED7000E406E000E97
:100970003F6E4A50180F0001606F60C0F6FF080E0E
:10098000F76E0800F5CF63F04A6A440E6319D8B4D5
:100990006EEC0CF0430E00016319D8A4E7D04B5065
:1009A000D8A402D0010E01D0000E4B6E4BA002D095
:1009B000898ADCD0899ADAD02F0E636544D03A0E4A
:1009C000636141D00A0E4102F3CF60F0F4CF61F0D1
:1009D0004202F350612763516027000E6123D00E5D
:1009E0006025416EFF0E6121426E425004E1640EAB
:1009F000415CD8A004D0000E426E000E416E2EEC79
:100A00000DF0070E166E020E0AEC0DF041C013F049
:100A100042C014F0000E166E0A0E156EB1EC0BF00B
:100A20001350300F90EC08F041C013F042C014F0A6
:100A3000000E166E0A0E156E2CEC0CF01350300FD3
:100A400090EC08F0A6D02A0E6319D8A432D041C089
:100A500013F042C014F0000E166E0A0E156EB1ECC3
:100A60000BF013C041F014C042F02EEC0DF0070E55
:100A7000166E020E0AEC0DF041C013F042C014F0E5
:100A8000000E166E0A0E156EB1EC0BF01350300FFF
:100A900090EC08F041C013F042C014F0000E166E46
:100AA0000A0E156E2CEC0CF01350300F90EC08F081
:100AB00070D0230E6319D8A46CD041504210D8B422
:100AC00019D0425017E13C0E415CD8B013D041C060
:100AD00045F042C046F0000E446E000E436E000E1C
:100AE000426E000E416E000E486E020E476E9EEC86
:100AF00007F04FD058EC0DF0010E166E010E0AEC07
:100B00000DF0960E166EE2EC0CF0020E0001616F15
:100B1000E70E606F000EE82EFED7602FFCD7612F26
:100B2000FAD70000000E426E000E416E2EEC0DF062
:100B300030D0420E6319D8A407D0000E486E030EC1
:100B4000476EB8EC0CF025D0410E6319D8A421D023
:100B5000000E446E000E436ECAD7230E6319D8A44C
:100B600018D0000E486E010E476EDCD747C060F00B
:100B700048C061F000016151000AD8A40AD0605158
:100B8000010AD8B419D7030AD8B4D3D7010AD8B404
:100B9000E4D7410E0001606FEE0EE82EFED7602F05
:100BA000FCD70000B0D6490E166E000E8AEC0CF091
:100BB000410E166E010E8AEC0CF0390E166E020E06
:100BC0008AEC0CF0290E166E030E8AEC0CF0310E36
:100BD000166E040E8AEC0CF0010EF66E080EF76E1F
:100BE00020EE1DF0160E0900F5CFDEFFE806FBE251
:100BF000000E376E100E366E000E3E6E000E3D6E0D
:100C0000010E166E010E0AEC0DF0000E3C6E000E89
:100C10003B6E3D501D0F3B24D96EDA6ADF503A6EB1
:100C20001F0E3A6403D07E0E3A6405D0000E356E76
:100C3000200E346E03D03AC034F0356A345090EC54
:100C400008F03B4A3C2A3CBEE4D73C5004E1100E7D
:100C50003B5CD8A0DED73DC016F0020E0AEC0DF0CA
:100C6000040E90EC08F03D28166E020E0AEC0DF012
:100C70003DC013F03EC014F0000E166E030E156E4C
:100C8000B6EC0AF0135090EC08F0660E1B6E4B0E9B
:100C9000E82EFED71B2EFCD700003DC016F0020E3A
:100CA0000AEC0DF0200E90EC08F03D28166E020EB6
:100CB0000AEC0DF0200E90EC08F03D4A3E2A36502A
:100CC0003D5C3E50800A1B6E3750800A1B58D8A0EE
:100CD00097D7100E166E020E0AEC0DF0030E90EC74
:100CE00008F0010E166E010E0AEC0DF0510E166E94
:100CF000E2EC0CF0A30E1B6E550EE82EFED71B2E59
:100D0000FCD70000000E396E000E386E100E166E05
:100D1000020E0AEC0DF0200E90EC08F0310E1B6E66
:100D2000B20EE82EFED71B2EFCD700D0100E166E8A
:100D3000020E0AEC0DF0030E90EC08F0310E1B6E63
:100D4000B20EE82EFED71B2EFCD700D0384A392A27
:100D500039BEDCD7395004E1030E385CD8A0D6D7B1
:100D6000020E1C6E040E1B6EBA0EE82EFED71B2E52
:100D7000FCD71C2EFAD700D058EC0DF0000E406EB8
:100D8000000E3F6E12000600F6CF0FF0F7CF10F006
:100D9000F8CF11F0F5CF12F0F2A069D0F00E811863
:100DA000D8B44AD0FE0E8A6E81B802D0010E41D06E
:100DB00081BA02D0020E3DD081BC02D0030E39D0E0
:100DC00081BE02D0040E35D0FD0E8A6E81B802D0ED
:100DD000050E2FD081BA02D0060E2BD081BC02D0D6
:100DE000070E27D081BE02D0080E23D0FB0E8A6EDC
:100DF00081B802D0090E1DD081BA02D00A0E19D0D6
:100E000081BC02D00B0E15D081BE02D00C0E11D0C9
:100E1000F70E8A6E81B802D00D0E0BD081BA02D0C7
:100E20000E0E07D081BC02D00F0E03D081BE02D0BF
:100E3000100E4A6EF00E8A6E520E0E6E2A0EE82EBC
:100E4000FED70E2EFCD7F290405004E10B0E3F5C13
:100E5000D8A009D0405007E1140E3F5CD8B003D0B1
:100E6000010E4B6E898A000E406E000E3F6EF2A49A
:100E70005BD00B0ED76EDC0ED66EF29489723F4AB1
:100E8000402A0A0E3F184010D8A402D04B6A899A13
:100E9000405004E1140E3F5CD8A046D060EC0DF049
:100EA0008D6A8C6A899AF28AF286F2900300000EAB
:100EB000406E000E3F6E43C001F044C002F0000ED1
:100EC000046E0A0E036E03EC0CF001C008F002C0C1
:100ED00009F055EC0BF043C001F044C002F0000EE5
:100EE000046E0A0E036E4DEC0CF001C006F002C059
:100EF00007F04FEC0DF0F28A010E4B6E898A470421
:100F00004810D8A403D03AEC0DF00ED0020E4718CA
:100F10004810D8A403D017EC08F006D0030E4718E9
:100F20004810D8B4CDEC0CF012C0F5FF11C0F8FF9A
:100F300010C0F7FF0FC0F6FF4C92110058EC0DF0F7
:100F4000010E166E010E0AEC0DF0C90E166EE2ECE3
:100F50000CF045C013F046C014F0000E166E0A0ED9
:100F6000156EB1EC0BF01350300F90EC08F045C04B
:100F700013F046C014F0000E166E0A0E156E2CEC1F
:100F80000CF01350300F90EC08F0010E166E020EAC
:100F90000AEC0DF0BE0E166EE2EC0CF04350455C10
:100FA0001E6E445046581F6E1FAE04D0000E1F6EBA
:100FB000000E1E6E1EC013F01FC014F0000E166E41
:100FC0000A0E156E34EC0AF01350300F90EC08F056
:100FD0001EC013F01FC014F0000E166E0A0E156E20
:100FE000B6EC0AF01350300F90EC08F043C013F049
:100FF00044C014F0000E166E0A0E156E2CEC0CF0A8
:1010000013C018F014C019F046EC0DF043C013F0F3
:1010100044C014F0000E166E0A0E156EB1EC0BF003
:1010200013C01AF014C01BF024EC0BF0120060EC9B
:101030000DF0010E046E010E1CEC0DF0C90E046ED5
:10104000F6EC0CF045C001F046C002F0000E046E54
:101050000A0E036E03EC0CF00150300F62EC09F045
:1010600045C001F046C002F0000E046E0A0E036E89
:101070004DEC0CF00150300F62EC09F0010E046EE3
:10108000020E1CEC0DF0BE0E046EF6EC0CF043509C
:10109000455C0C6E445046580D6E0DAE04D0000EEB
:1010A0000D6E000E0C6E0CC001F00DC002F0000EB3
:1010B000046E0A0E036E75EC0AF00150300F62ECFC
:1010C00009F00CC001F00DC002F0000E046E0A0E13
:1010D000036EEDEC0AF00150300F62EC09F043C0F2
:1010E00001F044C002F0000E046E0A0E036E4DECD7
:1010F0000CF001C006F002C007F04FEC0DF043C049
:1011000001F044C002F0000E046E0A0E036E03EC00
:101110000CF001C008F002C009F055EC0BF0120011
:10112000156E898615C013F0133A0F0E131613307F
:10113000D8A002D08C8801D08C9815C013F0050E71
:10114000146ED8901332142EFCD71330D8A002D0CE
:101150008C8A01D08C9A15C013F0060E146ED890AC
:101160001332142EFCD71330D8A002D08C8C01D0AF
:101170008C9C136A15AE01D0132A1330D8A002D06C
:101180008C8E01D08C9E8988100EE82EFED700D060
:10119000899815A002D08C8801D08C9815C013F0C6
:1011A000D89013321330D8A002D08C8A01D08C9AF8
:1011B00015C013F0D8901332D89013321330D8A042
:1011C00002D08C8C01D08C9C15C013F0D8901332B7
:1011D000D8901332D89013321330D8A002D08C8E0E
:1011E00001D08C9E8988100EE82EFED700D08998F9
:1011F0001200156E899615C013F0133A0F0E1316D0
:101200001330D8A002D08C8801D08C9815C013F070
:10121000050E146ED8901332142EFCD71330D8A0BC
:1012200002D08C8A01D08C9A15C013F0060E146E71
:10123000D8901332142EFCD71330D8A002D08C8C47
:1012400001D08C9C136A15AE01D0132A1330D8A09C
:1012500002D08C8E01D08C9E8988A60EE82EFED7F7
:1012600000D0899815A002D08C8801D08C9815C028
:1012700013F0D89013321330D8A002D08C8A01D04A
:101280008C9A15C013F0D8901332D89013321330C3
:10129000D8A002D08C8C01D08C9C15C013F0D890B3
:1012A0001332D8901332D89013321330D8A002D012
:1012B0008C8E01D08C9E8988A60EE82EFED700D099
:1012C00089981200036E898603C001F0013A0F0E5F
:1012D00001160130D8A002D08C8801D08C9803C0B0
:1012E00001F0050E026ED8900132022EFCD70130BB
:1012F000D8A002D08C8A01D08C9A03C001F0060ECF
:10130000026ED8900132022EFCD70130D8A002D054
:101310008C8C01D08C9C016A03AE01D0012A013073
:10132000D8A002D08C8E01D08C9E8988100EE82E19
:10133000FED700D0899803A002D08C8801D08C9869
:1013400003C001F0D89001320130D8A002D08C8ABD
:1013500001D08C9A03C001F0D8900132D8900132AC
:101360000130D8A002D08C8C01D08C9C03C001F03D
:10137000D8900132D8900132D89001320130D8A0F3
:1013800002D08C8E01D08C9E8988100EE82EFED75C
:1013900000D089981200036E899603C001F0013ACB
:1013A0000F0E01160130D8A002D08C8801D08C9885
:1013B00003C001F0050E026ED8900132022EFCD758
:1013C0000130D8A002D08C8A01D08C9A03C001F0E1
:1013D000060E026ED8900132022EFCD70130D8A042
:1013E00002D08C8C01D08C9C016A03AE01D0012A02
:1013F0000130D8A002D08C8E01D08C9E8988A60E98
:10140000E82EFED700D0899803A002D08C8801D0A6
:101410008C9803C001F0D89001320130D8A002D0DE
:101420008C8A01D08C9A03C001F0D8900132D890F8
:1014300001320130D8A002D08C8C01D08C9C03C02A
:1014400001F0D8900132D8900132D89001320130A9
:10145000D8A002D08C8E01D08C9E8988A60EE82E52
:10146000FED700D089981200186A16AE06D0156C07
:10147000161ED8B0162A010E186E14AE06D0136CC4
:10148000141ED8B0142A010E181A000E1A6E000E7F
:10149000196E15501610D8B41CD0010E176E04D05A
:1014A000D89015361636172A16AEFAD7D8901936B0
:1014B0001A361550135C16501458D8A005D0155084
:1014C000135E1650145A1980D89016321532172E02
:1014D000EDD71850D8B404D0196C1A1ED8B01A2AF7
:1014E00019C013F01AC014F01200066A04AE06D038
:1014F000036C041ED8B0042A010E066E02AE06D09C
:10150000016C021ED8B0022A010E061A000E086EE7
:10151000000E076E03500410D8B41CD0010E056EE7
:1015200004D0D89003360436052A04AEFAD7D890F2
:10153000073608360350015C04500258D8A005D085
:101540000350015E0450025A0780D89004320332DF
:10155000052EEDD70650D8B404D0076C081ED8B0BD
:10156000082A07C001F008C002F01200186A14AE81
:1015700006D0136C141ED8B0142A010E186E16AEC5
:1015800004D0156C161ED8B0162A15501610D8B4F3
:1015900018D0010E176E04D0D89015361636172ABB
:1015A00016AEFAD71550135C16501458D8A004D0B4
:1015B0001550135E1650145AD89016321532172E45
:1015C000F1D71850D8B404D0136C141ED8B0142A14
:1015D00013C013F014C014F01200066A02AE06D055
:1015E000016C021ED8B0022A010E066E04AE04D0B1
:1015F000036C041ED8B0042A03500410D8B418D0C9
:10160000010E056E04D0D89003360436052A04AEC8
:10161000FAD70350015C04500258D8A004D00350FC
:10162000015E0450025AD89004320332052EF1D7DD
:101630000650D8B404D0016C021ED8B0022A01C0F2
:1016400001F002C002F0120014D0050E8D6E1200DF
:10165000040E8D6E1200060E8D6E1200020E8D6E3F
:101660001200030E8D6E1200070E8D6E12008D6A31
:1016700012001AC01CF01BC01DF01D50000AD8A497
:10168000F6D71C50000AD8B4E0D7010AD8B4E0D786
:10169000030AD8B4E0D7010AD8B4E0D7070AD8B40F
:1016A000E0D7010AD8B4E0D7E2D714D0050E8D6E8A
:1016B0001200040E8D6E1200060E8D6E1200020EC8
:1016C0008D6E1200030E8D6E1200070E8D6E1200CD
:1016D0008D6A120008C00AF009C00BF00B50000A16
:1016E000D8A4F6D70A50000AD8B4E0D7010AD8B473
:1016F000E0D7030AD8B4E0D7010AD8B4E0D7070A84
:10170000D8B4E0D7010AD8B4E0D7E2D7956A8C6A9A
:10171000966A8D6A0F0EC16E050E926EF00E936E74
:101720000F0E8A6EF19EF098F092020E146E450E26
:10173000136EAA0EE82EFED7132EFCD7142EFAD75E
:101740009480010ED56E0B0ED76EDC0ED66EF29421
:10175000F28AF28EF28CF290F286D58E010E4B6EEA
:101760001200000E196E000E186E15501610D8B427
:101770001CD0010E176E04D0D89015361636172AD5
:1017800016AEFAD7D890183619361550135C165085
:101790001458D8A005D01550135E1650145A18804E
:1017A000D89016321532172EEDD718C013F019C085
:1017B00014F01200956A8C6A050E926E896A929AEC
:1017C000898A210E166E760EE82EFED7162EFCD7CD
:1017D00000D0020EF9EC08F0280EF9EC08F00C0E1F
:1017E000F9EC08F0060EF9EC08F0010EF9EC08F03F
:1017F000210E166E760EE82EFED7162EFCD700D0E0
:1018000058EC0DF01200000E066E000E056E03502F
:101810000410D8B41CD0010E076E04D0D890033643
:101820000436072A04AEFAD7D89005360636035098
:10183000015C04500258D8A005D00350015E04504A
:10184000025A0580D89004320332072EEDD705C026
:1018500001F006C002F0120015501610D8B418D0CE
:10186000010E176E04D0D89015361636172A16AE0C
:10187000FAD71550135C16501458D8A004D0155040
:10188000135E1650145AD89016321532172EF1D70F
:1018900013C013F014C014F0120003500410D8B495
:1018A00018D0010E056E04D0D89003360436052AF0
:1018B00004AEFAD70350015C04500258D8A004D0FB
:1018C0000350015E0450025AD89004320332052EB0
:1018D000F1D701C001F002C002F01200000E486E04
:1018E000040E476E58EC0DF0010E166E010E0AEC58
:1018F0000DF0780E166EE2EC0CF0010E166E020E74
:101900000AEC0DF0A50E166EE2EC0CF0010E8D6ED9
:10191000D59EFFD7186E1850080DF350400FF9EC04
:1019200008F0196A16501924176E17C0F6FF080E32
:10193000F76E0800F55090EC08F0192A070E1964AC
:10194000F1D71200D00EF66E1A0EF76E000EF86E7A
:101950000900F5CF4BF000EE3FF00C0EEE6AE80602
:10196000FDE14C904C92000EF86E00016AEF04F01D
:1019700058EC0DF0010E166E010E0AEC0DF0670E1C
:10198000166EE2EC0CF0010E166E020E0AEC0DF073
:10199000B20E166EE2EC0CF0120060EC0DF0010ECF
:1019A000046E010E1CEC0DF0670E046EF6EC0CF0EC
:1019B000010E046E020E1CEC0DF0B20E046EF6EC7D
:1019C0000CF0120009D016C0F6FF080EF76E0800E2
:1019D000F55090EC08F0162A16C0F6FF080EF76EC8
:1019E0000800F5500009D8B41200EDD709D004C0A2
:1019F000F6FF080EF76E0800F55062EC09F0042AB5
:101A000004C0F6FF080EF76E0800F5500009D8B4C0
:101A10001200EDD7176E1704D8B402D0BF0E01D054
:101A20007F0E1624196E1A6A000E1A2219C018F0B9
:101A30001850F9EC08F01200056E0504D8B402D075
:101A4000BF0E01D07F0E0424066E076A000E072227
:101A500006C008F00850CBEC09F0120058EC0DF06D
:101A6000010E166E010E0AEC0DF0870E166EE2ECFA
:101A70000CF0120060EC0DF0010E046E010E1CEC77
:101A80000DF0870E046EF6EC0CF0120018C01AF080
:101A90000F0E1A168C50F00B1A108C6E120006C026
:101AA00008F00F0E08168C50F00B08108C6E120008
:101AB000010EF9EC08F0A60EE82EFED700D01200B9
:101AC000010ECBEC09F0A60EE82EFED700D01200D6
:011AD0000114
:020000040020DA
:08000000FFFFFFFFFFFFFFFF00
:020000040030CA
:0E00000000091F1EFF8181FF0FC00FE00F409F
:00000001FF
