:0400000007EF00F016
:0A0008004D82ABED06F07DEF0CF029
:10080000002020436F6E7461646F72204465204F36
:10081000626A65746F7320200000313233413435D1
:100820003642373839432A30234404150E1F0E153B
:10083000040004040E04040C080404040E0404065A
:10084000091004040E040404040A2020202020209F
:10085000A1424F4F4D212020202020202020200089
:10086000436F6E74656F20436F6D706C65746F219C
:10087000002120454D455247454E43494120210026
:10088000496E67726573652076616C6F723A0052CB
:10089000616E676F20696E76616C69646F00526586
:1008A000736574206D616E75616C0050726573695B
:1008B0006F6E65204F4B0046616C74616E7465739A
:0D08C0003A004F626A657469766F3A000075
:1008CE0061EC0BF0B5EC0BF0020E0001616F450E02
:1008DE00606FA90EE82EFED7602FFCD7612FFAD7D6
:1008EE0000D0D4EC05F0000E496E010E486E09ECF6
:1008FE000DF0000E82B0010E0001626F6205D8A4E9
:10090E0025D04A50D8A422D0000E416E000E406E63
:10091E00020E48184910D8A419D0455006E13B0ED6
:10092E00445CD8B002D0444A452A4650445C4750F5
:10093E004558D8A009D079EC07F0000E496E030E89
:10094E00486E93EC0CF002D079EC07F062C04AF0DE
:10095E004B50D8B4CED7000E416E000E406E4B50A9
:10096E00190F0001606F60C0F6FF080EF76E0800E9
:10097E00F5CF63F04B6A440E6319D8B449EC0CF012
:10098E00430E00016319D8A4EBD0000E416E000E89
:10099E00406E4C50D8A402D0010E01D0000E4C6E09
:1009AE004CA002D0898ADCD0899ADAD02F0E6365EA
:1009BE0044D03A0E636141D00A0E4202F3CF60F08A
:1009CE00F4CF61F04302F350612763516027000EAC
:1009DE006123D00E6025426EFF0E6121436E43509F
:1009EE0004E1640E425CD8A004D0000E436E000EEB
:1009FE00426E09EC0DF0070E166E020EE5EC0CF0D1
:100A0E0042C013F043C014F0000E166E0A0E156E9F
:100A1E008CEC0BF01350300F6BEC08F042C013F05F
:100A2E0043C014F0000E166E0A0E156E07EC0CF095
:100A3E001350300F6BEC08F0A6D02A0E6319D8A411
:100A4E0032D042C013F043C014F0000E166E0A0EE0
:100A5E00156E8CEC0BF013C042F014C043F009EC91
:100A6E000DF0070E166E020EE5EC0CF042C013F000
:100A7E0043C014F0000E166E0A0E156E8CEC0BF0C1
:100A8E001350300F6BEC08F042C013F043C014F05B
:100A9E00000E166E0A0E156E07EC0CF01350300F8A
:100AAE006BEC08F070D0230E6319D8A46CD04250B2
:100ABE004310D8B419D0435017E13C0E425CD8B065
:100ACE0013D042C046F043C047F0000E456E000EF4
:100ADE00446E000E436E000E426E000E496E020E04
:100AEE00486E79EC07F04FD033EC0DF0010E166E18
:100AFE00010EE5EC0CF08F0E166EBDEC0CF0020E36
:100B0E000001616FE70E606F000EE82EFED7602FBA
:100B1E00FCD7612FFAD70000000E436E000E426E16
:100B2E0009EC0DF030D0420E6319D8A407D0000E98
:100B3E00496E030E486E93EC0CF025D0410E6319EE
:100B4E00D8A421D0000E456E000E446ECAD7230ED7
:100B5E006319D8A418D0000E496E010E486EDCD76A
:100B6E0048C060F049C061F000016151000AD8A48C
:100B7E000AD06051010AD8B419D7030AD8B4D3D712
:100B8E00010AD8B4E4D7410E0001606FEE0EE82ED4
:100B9E00FED7602FFCD70000ACD6420E166E000EAC
:100BAE0065EC0CF03A0E166E010E65EC0CF0320E82
:100BBE00166E020E65EC0CF02A0E166E030E65EC28
:100BCE000CF0010EF66E080EF76E20EE1DF0170EED
:100BDE000900F5CFDEFFE806FBE2000E386E100EC0
:100BEE00376E000E3F6E000E3E6E010E166E010E3B
:100BFE00E5EC0CF0000E3D6E000E3C6E3E501D0FEF
:100C0E003C24D96EDA6ADF503B6E1F0E3B6403D074
:100C1E007E0E3B6405D0000E366E200E356E03D070
:100C2E003BC035F0366A35506BEC08F03C4A3D2A35
:100C3E003DBEE4D73D5004E1100E3C5CD8A0DED79B
:100C4E003E28166E020EE5EC0CF03EC013F03FC0CF
:100C5E0014F0000E166E030E156E91EC0AF0135082
:100C6E006BEC08F0660E1B6E4B0EE82EFED71B2E9D
:100C7E00FCD700003E28166E020EE5EC0CF0200E9E
:100C8E006BEC08F03E4A3F2A37503E5C3F50800ADC
:100C9E001B6E3850800A1B58D8A0A7D7100E166EA0
:100CAE00020EE5EC0CF0030E6BEC08F0010E166E66
:100CBE00010EE5EC0CF04A0E166EBDEC0CF0A30E18
:100CCE001B6E550EE82EFED71B2EFCD70000000E15
:100CDE003A6E000E396E100E166E020EE5EC0CF02A
:100CEE00200E6BEC08F0310E1B6EB20EE82EFED706
:100CFE001B2EFCD700D0100E166E020EE5EC0CF07B
:100D0E00030E6BEC08F0310E1B6EB20EE82EFED702
:100D1E001B2EFCD700D0394A3A2A3ABEDCD73A50BD
:100D2E0004E1030E395CD8A0D6D7020E1C6E040E59
:100D3E001B6EBA0EE82EFED71B2EFCD71C2EFAD732
:100D4E0000D033EC0DF012000600F6CF0FF0F7CF07
:100D5E0010F0F8CF11F0F5CF12F0F2A05CD0F00E3B
:100D6E008118D8B44BD04B6AFE0E8A6E81B802D071
:100D7E00010E41D081BA02D0020E3DD081BC02D00C
:100D8E00030E39D081BE02D0040E35D0FD0E8A6E10
:100D9E0081B802D0050E2FD081BA02D0060E2BD00C
:100DAE0081BC02D0070E27D081BE02D0080E23D000
:100DBE00FB0E8A6E81B802D0090E1DD081BA02D008
:100DCE000A0E19D081BC02D00B0E15D081BE02D0F6
:100DDE000C0E11D0F70E8A6E81B802D00D0E0BD00C
:100DEE0081BA02D00E0E07D081BC02D00F0E03D0F6
:100DFE0081BE02D0100E4B6EF00E8A6E210E0E6E5C
:100E0E00760EE82EFED70E2EFCD700D0F290000EF6
:100E1E00416E000E406EF2A45BD00B0ED76EDC0E50
:100E2E00D66EF2948972404A412A0A0E4018411039
:100E3E00D8A402D04C6A899A415004E1140E405C49
:100E4E00D8A046D03BEC0DF08D6A8C6A899AF29A46
:100E5E00F286F2900300000E416E000E406E44C00A
:100E6E0001F045C002F0000E046E0A0E036EDEECB9
:100E7E000BF001C008F002C009F030EC0BF044C0DA
:100E8E0001F045C002F0000E046E0A0E036E28EC4F
:100E9E000CF001C006F002C007F02AEC0DF0F28A49
:100EAE00010E4C6E898A48044910D8A403D015EC63
:100EBE000DF00ED0020E48184910D8A403D0F2EC53
:100ECE0007F006D0030E48184910D8B4A8EC0CF061
:100EDE0012C0F5FF11C0F8FF10C0F7FF0FC0F6FFEC
:100EEE004D92110033EC0DF0010E166E010EE5EC75
:100EFE000CF0C20E166EBDEC0CF046C013F047C0DF
:100F0E0014F0000E166E0A0E156E8CEC0BF01350CC
:100F1E00300F6BEC08F046C013F047C014F0000E13
:100F2E00166E0A0E156E07EC0CF01350300F6BECAC
:100F3E0008F0010E166E020EE5EC0CF0B70E166EF2
:100F4E00BDEC0CF04450465C1E6E455047581F6E6B
:100F5E001FAE04D0000E1F6E000E1E6E1EC013F0CC
:100F6E001FC014F0000E166E0A0E156E0FEC0AF06E
:100F7E001350300F6BEC08F01EC013F01FC014F0AE
:100F8E00000E166E0A0E156E91EC0AF01350300F0D
:100F9E006BEC08F044C013F045C014F0000E166E52
:100FAE000A0E156E07EC0CF013C018F014C019F0F1
:100FBE0021EC0DF044C013F045C014F0000E166E77
:100FCE000A0E156E8CEC0BF013C01AF014C01BF049
:100FDE00FFEC0AF012003BEC0DF0010E046E010E58
:100FEE00F7EC0CF0C20E046ED1EC0CF046C001F022
:100FFE0047C002F0000E046E0A0E036EDEEC0BF01C
:10100E000150300F3DEC09F046C001F047C002F030
:10101E00000E046E0A0E036E28EC0CF00150300F19
:10102E003DEC09F0010E046E020EF7EC0CF0B70E5B
:10103E00046ED1EC0CF04450465C0C6E4550475893
:10104E000D6E0DAE04D0000E0D6E000E0C6E0CC0AB
:10105E0001F00DC002F0000E046E0A0E036E50EC8D
:10106E000AF00150300F3DEC09F00CC001F00DC03C
:10107E0002F0000E046E0A0E036EC8EC0AF0015068
:10108E00300F3DEC09F044C001F045C002F0000EF7
:10109E00046E0A0E036E28EC0CF001C006F002C0BE
:1010AE0007F02AEC0DF044C001F045C002F0000E2E
:1010BE00046E0A0E036EDEEC0BF001C008F002C0E7
:1010CE0009F030EC0BF01200156E898615C013F086
:1010DE00133A0F0E13161330D8A002D08C8801D0FD
:1010EE008C9815C013F0050E146ED8901332142E72
:1010FE00FCD71330D8A002D08C8A01D08C9A15C0A0
:10110E0013F0060E146ED8901332142EFCD7133033
:10111E00D8A002D08C8C01D08C9C136A15AE01D055
:10112E00132A1330D8A002D08C8E01D08C9E8988C1
:10113E00100EE82EFED700D0899815A002D08C880C
:10114E0001D08C9815C013F0D89013321330D8A05C
:10115E0002D08C8A01D08C9A15C013F0D89013321D
:10116E00D89013321330D8A002D08C8C01D08C9C26
:10117E0015C013F0D8901332D8901332D890133282
:10118E001330D8A002D08C8E01D08C9E8988100E80
:10119E00E82EFED700D089981200156E899615C0DC
:1011AE0013F0133A0F0E13161330D8A002D08C88FA
:1011BE0001D08C9815C013F0050E146ED890133212
:1011CE00142EFCD71330D8A002D08C8A01D08C9A62
:1011DE0015C013F0060E146ED8901332142EFCD7D1
:1011EE001330D8A002D08C8C01D08C9C136A15AE13
:1011FE0001D0132A1330D8A002D08C8E01D08C9E31
:10120E008988A60EE82EFED700D0899815A002D0A8
:10121E008C8801D08C9815C013F0D89013321330EF
:10122E00D8A002D08C8A01D08C9A15C013F0D89019
:10123E001332D89013321330D8A002D08C8C01D038
:10124E008C9C15C013F0D8901332D8901332D890CE
:10125E0013321330D8A002D08C8E01D08C9E898888
:10126E00A60EE82EFED700D089981200036E89864E
:10127E0003C001F0013A0F0E01160130D8A002D0C2
:10128E008C8801D08C9803C001F0050E026ED890A8
:10129E000132022EFCD70130D8A002D08C8A01D0A8
:1012AE008C9A03C001F0060E026ED8900132022E07
:1012BE00FCD70130D8A002D08C8C01D08C9C016A56
:1012CE0003AE01D0012A0130D8A002D08C8E01D0FD
:1012DE008C9E8988100EE82EFED700D0899803A028
:1012EE0002D08C8801D08C9803C001F0D8900132C6
:1012FE000130D8A002D08C8A01D08C9A03C001F0A4
:10130E00D8900132D89001320130D8A002D08C8C06
:10131E0001D08C9C03C001F0D8900132D8900132DC
:10132E00D89001320130D8A002D08C8E01D08C9E84
:10133E008988100EE82EFED700D089981200036E11
:10134E00899603C001F0013A0F0E01160130D8A0A4
:10135E0002D08C8801D08C9803C001F0050E026E6D
:10136E00D8900132022EFCD70130D8A002D08C8A40
:10137E0001D08C9A03C001F0060E026ED890013295
:10138E00022EFCD70130D8A002D08C8C01D08C9CC0
:10139E00016A03AE01D0012A0130D8A002D08C8E92
:1013AE0001D08C9E8988A60EE82EFED700D0899893
:1013BE0003A002D08C8801D08C9803C001F0D89085
:1013CE0001320130D8A002D08C8A01D08C9A03C091
:1013DE0001F0D8900132D89001320130D8A002D05D
:1013EE008C8C01D08C9C03C001F0D8900132D89027
:1013FE000132D89001320130D8A002D08C8E01D0AB
:10140E008C9E8988A60EE82EFED700D089981200F1
:10141E00186A16AE06D0156C161ED8B0162A010E16
:10142E00186E14AE06D0136C141ED8B0142A010E0A
:10143E00181A000E1A6E000E196E15501610D8B42A
:10144E001CD0010E176E04D0D89015361636172AFA
:10145E0016AEFAD7D89019361A361550135C1650A8
:10146E001458D8A005D01550135E1650145A198072
:10147E00D89016321532172EEDD71850D8B404D096
:10148E00196C1A1ED8B01A2A19C013F01AC014F00B
:10149E001200066A04AE06D0036C041ED8B0042AED
:1014AE00010E066E02AE06D0016C021ED8B0022AE4
:1014BE00010E061A000E086E000E076E0350041081
:1014CE00D8B41CD0010E056E04D0D8900336043665
:1014DE00052A04AEFAD7D890073608360350015CB9
:1014EE0004500258D8A005D00350015E0450025A91
:1014FE000780D89004320332052EEDD70650D8B4AB
:10150E0004D0076C081ED8B0082A07C001F008C026
:10151E0002F01200186A14AE06D0136C141ED8B066
:10152E00142A010E186E16AE04D0156C161ED8B005
:10153E00162A15501610D8B418D0010E176E04D0F6
:10154E00D89015361636172A16AEFAD71550135CE4
:10155E0016501458D8A004D01550135E1650145AB5
:10156E00D89016321532172EF1D71850D8B404D0A1
:10157E00136C141ED8B0142A13C013F014C014F038
:10158E001200066A02AE06D0016C021ED8B0022A04
:10159E00010E066E04AE04D0036C041ED8B0042AED
:1015AE0003500410D8B418D0010E056E04D0D89094
:1015BE0003360436052A04AEFAD70350015C0450F4
:1015CE000258D8A004D00350015E0450025AD8909D
:1015DE0004320332052EF1D70650D8B404D0016C74
:1015EE00021ED8B0022A01C001F002C002F01200A1
:1015FE0014D0050E8D6E1200040E8D6E1200060EA6
:10160E008D6E1200020E8D6E1200030E8D6E120084
:10161E00070E8D6E12008D6A12001AC01CF01BC0D0
:10162E001DF01D50000AD8A4F6D71C50000AD8B4DD
:10163E00E0D7010AD8B4E0D7030AD8B4E0D7010A3C
:10164E00D8B4E0D7070AD8B4E0D7010AD8B4E0D7A7
:10165E00E2D714D0050E8D6E1200040E8D6E1200A0
:10166E00060E8D6E1200020E8D6E1200030E8D6E22
:10167E001200070E8D6E12008D6A120008C00AF05D
:10168E0009C00BF00B50000AD8A4F6D70A50000A76
:10169E00D8B4E0D7010AD8B4E0D7030AD8B4E0D75B
:1016AE00010AD8B4E0D7070AD8B4E0D7010AD8B4F3
:1016BE00E0D7E2D7956A8C6A966A8D6A0F0EC16E74
:1016CE00050E926EF19E020E146E450E136EAA0E4C
:1016DE00E82EFED7132EFCD7142EFAD7F00E936EEB
:1016EE000F0E8A6E94800F0EC16E010ED56E0B0E0C
:1016FE00D76EDC0ED66EF294F28AF28EF28CF290E7
:10170E00F286D58E010E4C6E1200000E196E000E72
:10171E00186E15501610D8B41CD0010E176E04D0CA
:10172E00D89015361636172A16AEFAD7D890183620
:10173E0019361550135C16501458D8A005D01550F4
:10174E00135E1650145A1880D89016321532172E72
:10175E00EDD718C013F019C014F01200956A8C6AF8
:10176E00050E926E896A929A898A210E166E760EEF
:10177E00E82EFED7162EFCD700D0020ED4EC08F0C1
:10178E00280ED4EC08F00C0ED4EC08F0060ED4ECB7
:10179E0008F0010ED4EC08F0210E166E760EE82E2F
:1017AE00FED7162EFCD700D033EC0DF01200000E33
:1017BE00066E000E056E03500410D8B41CD0010E38
:1017CE00076E04D0D89003360436072A04AEFAD733
:1017DE00D890053606360350015C04500258D8A046
:1017EE0005D00350015E0450025A0580D890043291
:1017FE000332072EEDD705C001F006C002F012002D
:10180E0015501610D8B418D0010E176E04D0D890FB
:10181E0015361636172A16AEFAD71550135C165013
:10182E001458D8A004D01550135E1650145AD890E0
:10183E0016321532172EF1D713C013F014C014F050
:10184E00120003500410D8B418D0010E056E04D047
:10185E00D89003360436052A04AEFAD70350015C3D
:10186E0004500258D8A004D00350015E0450025A0E
:10187E00D89004320332052EF1D701C001F002C018
:10188E0002F01200000E496E040E486E33EC0DF09D
:10189E00010E166E010EE5EC0CF0710E166EBDEC1F
:1018AE000CF0010E166E020EE5EC0CF09E0E166E8E
:1018BE00BDEC0CF0010E8D6ED59EFFD7186E185034
:1018CE00080DF350400FD4EC08F0196A1650192485
:1018DE00176E17C0F6FF080EF76E0800F5506BEC8A
:1018EE0008F0192A070E1964F1D71200860EF66E4B
:1018FE001A0EF76E000EF86E0900F5CF4CF000EEE2
:10190E0040F00C0EEE6AE806FDE14D904D92000E91
:10191E00F86E000167EF04F033EC0DF0010E166E59
:10192E00010EE5EC0CF0600E166EBDEC0CF0010E27
:10193E00166E020EE5EC0CF0AB0E166EBDEC0CF056
:10194E0012003BEC0DF0010E046E010EF7EC0CF0E4
:10195E00600E046ED1EC0CF0010E046E020EF7EC6C
:10196E000CF0AB0E046ED1EC0CF0120009D016C0C8
:10197E00F6FF080EF76E0800F5506BEC08F0162A0D
:10198E0016C0F6FF080EF76E0800F5500009D8B421
:10199E001200EDD709D004C0F6FF080EF76E08004E
:1019AE00F5503DEC09F0042A04C0F6FF080EF76E60
:1019BE000800F5500009D8B41200EDD7176E1704C1
:1019CE00D8B402D0BF0E01D07F0E1624196E1A6A3B
:1019DE00000E1A2219C018F01850D4EC08F012009C
:1019EE00056E0504D8B402D0BF0E01D07F0E0424BC
:1019FE00066E076A000E072206C008F00850A6EC15
:101A0E0009F0120033EC0DF0010E166E010EE5EC2E
:101A1E000CF0800E166EBDEC0CF012003BEC0DF0CF
:101A2E00010E046E010EF7EC0CF0800E046ED1EC7C
:101A3E000CF0120018C01AF00F0E1A168C50F00B84
:101A4E001A108C6E120006C008F00F0E08168C507D
:101A5E00F00B08108C6E1200010ED4EC08F0A60EDE
:101A6E00E82EFED700D01200010EA6EC09F0A60E4D
:091A7E00E82EFED700D012000191
:020000040020DA
:08000000FFFFFFFFFFFFFFFF00
:020000040030CA
:0E00000000091F1EFF8181FF0FC00FE00F409F
:00000001FF
