:0400000007EF00F016
:0A0008004D82B6ED06F05EEF0CF03D
:10080000002020436F6E7461646F72204465204F36
:10081000626A65746F7320200000313233413435D1
:100820003642373839432A30234404150E1F0E153B
:10083000040004040E04040C080404040E04080656
:10084000081004040E040C14040A2020202020A107
:10085000424F4F4D212020202020202020200043E7
:100860006F6E74656F20436F6D706C65746F2100DF
:100870002120454D455247454E43494120210049DD
:100880006E67726573652076616C6F723A005261B3
:100890006E676F20696E76616C69646F0052657374
:1008A0006574206D616E75616C0050726573696F5F
:1008B0006E65204F4B0046616C74616E7465733ACF
:1008C000004F626A657469766F3A0000C5EC0BF000
:1008D000020E0001616F450E606FA90EE82EFED773
:1008E000602FFCD7612FFAD700D0DFEC05F09EEC2B
:1008F0000BF0000E496E010E486EEAEC0CF0000E93
:1009000082B0010E0001626F6205D8A425D04A5062
:10091000D8A422D0000E416E000E406E020E481880
:100920004910D8A419D0455006E13B0E445CD8B01C
:1009300002D0444A452A4650445C47504558D8A006
:1009400009D064EC07F0000E496E030E486E74EC9B
:100950000CF002D064EC07F062C04AF04B50D8B4FF
:10096000CED7000E416E000E406E4B50190F0001A5
:10097000606F60C0F6FF080EF76E0800F5CF63F0F9
:100980004B6A440E6319D8B42AEC0CF0430E0001F4
:100990006319D8A4F7D0000E416E000E406E4C5083
:1009A000D8A402D0010E01D0000E4C6E4CA002D093
:1009B000898AE8D0899AE6D02F0E636544D03A0E32
:1009C000636141D00A0E4202F3CF60F0F4CF61F0D0
:1009D0004302F350612763516027000E6123D00E5C
:1009E0006025426EFF0E6121436E435004E1640EA8
:1009F000425CD8A004D0000E436E000E426EEAECBA
:100A00000CF0070E166E020EC6EC0CF042C013F08E
:100A100043C014F0000E166E0A0E156E4CEC0BF06F
:100A20001350300F56EC08F042C013F043C014F0DE
:100A3000000E166E0A0E156EE8EC0BF01350300F18
:100A400056EC08F0B2D02A0E6319D8A432D042C0B6
:100A500013F043C014F0000E166E0A0E156E4CEC27
:100A60000BF013C042F014C043F0EAEC0CF0070E98
:100A7000166E020EC6EC0CF042C013F043C014F028
:100A8000000E166E0A0E156E4CEC0BF01350300F64
:100A900056EC08F042C013F043C014F0000E166E7E
:100AA0000A0E156EE8EC0BF01350300F56EC08F000
:100AB0007CD0230E6319D8A478D042504310D8B408
:100AC00019D0435017E13C0E425CD8B013D042C05D
:100AD00046F043C047F0000E456E000E446E000E17
:100AE000436E000E426E000E496E020E486E64ECBC
:100AF00007F05BD014EC0DF0010E166E010EC6EC83
:100B00000CF08E0E166E9EEC0CF0020E0001616F62
:100B1000E70E606F000EE82EFED7602FFCD7612F26
:100B2000FAD70000000E436E000E426EEAEC0CF0A5
:100B30003CD0420E6319D8A413D0000E456E000EAF
:100B4000446E000E196E000E186E02EC0DF0050ECC
:100B50008D6E000E496E030E486E74EC0CF025D0BD
:100B6000410E6319D8A421D0000E456E000E446ECC
:100B7000BED7230E6319D8A418D0000E496E010EFB
:100B8000486ED0D748C060F049C061F000016151A3
:100B9000000AD8A40AD06051010AD8B40DD7030ABC
:100BA000D8B4C7D7010AD8B4E4D7410E0001606FAA
:100BB000EE0EE82EFED7602FFCD70000A0D6420E26
:100BC000166E000E46EC0CF03A0E166E010E46EC58
:100BD0000CF0320E166E020E46EC0CF02A0E166E5B
:100BE000030E46EC0CF0010EF66E080EF76E20EECA
:100BF0001DF0170E0900F5CFDEFFE806FBE2000E40
:100C0000386E100E376E000E3F6E000E3E6E010EF7
:100C1000166E010EC6EC0CF0000E3D6E000E3C6E22
:100C20003E501D0F3C24D96EDA6ADF503B6E1F0E1A
:100C30003B6403D07E0E3B6405D0000E366E200E62
:100C4000356E03D03BC035F0366A355056EC08F0AF
:100C50003C4A3D2A3DBEE4D73D5004E1100E3C5CC9
:100C6000D8A0DED73E28166E020EC6EC0CF03EC0B1
:100C700013F03FC014F0000E166E030E156E7CECE0
:100C80000AF0135056EC08F0660E1B6E4B0EE82E61
:100C9000FED71B2EFCD700003E28166E020EC6ECB7
:100CA0000CF0200E56EC08F03E4A3F2A37503E5CCE
:100CB0003F50800A1B6E3850800A1B58D8A0A7D717
:100CC000100E166E020EC6EC0CF0030E56EC08F079
:100CD000010E166E010EC6EC0CF04A0E166E9EEC5E
:100CE0000CF0A30E1B6E550EE82EFED71B2EFCD764
:100CF0000000000E3A6E000E396E100E166E020ED7
:100D0000C6EC0CF0200E56EC08F0310E1B6EB20E45
:100D1000E82EFED71B2EFCD700D0100E166E020E4A
:100D2000C6EC0CF0030E56EC08F0310E1B6EB20E42
:100D3000E82EFED71B2EFCD700D0394A3A2A3ABEFD
:100D4000DCD73A5004E1030E395CD8A0D6D7020EA6
:100D50001C6E040E1B6EBA0EE82EFED71B2EFCD79F
:100D60001C2EFAD700D014EC0DF012000600F6CFBE
:100D70000FF0F7CF10F0F8CF11F0F5CF12F0F2A08E
:100D80005CD0F00E8118D8B44BD04B6AFE0E8A6E40
:100D900081B802D0010E41D081BA02D0020E3DD0FE
:100DA00081BC02D0030E39D081BE02D0040E35D0F2
:100DB000FD0E8A6E81B802D0050E2FD081BA02D006
:100DC000060E2BD081BC02D0070E27D081BE02D0E8
:100DD000080E23D0FB0E8A6E81B802D0090E1DD0FA
:100DE00081BA02D00A0E19D081BC02D00B0E15D0E8
:100DF00081BE02D00C0E11D0F70E8A6E81B802D0DF
:100E00000D0E0BD081BA02D00E0E07D081BC02D0DD
:100E10000F0E03D081BE02D0100E4B6EF00E8A6E04
:100E2000210E0E6E760EE82EFED70E2EFCD700D0C9
:100E3000F290000E416E000E406EF2A43BD00B0EFD
:100E4000D76EDC0ED66EF2948972404A412A0A0EA1
:100E500040184110D8A402D04C6A899A415004E14C
:100E6000140E405CD8A026D01CEC0DF08D6A8C6A64
:100E7000899AF29AF286F2900300000E416E000EFB
:100E8000406EF28A010E4C6E898A48044910D8A43B
:100E900003D0F6EC0CF00ED0020E48184910D8A47E
:100EA00003D0DDEC07F006D0030E48184910D8B483
:100EB00089EC0CF012C0F5FF11C0F8FF10C0F7FF6D
:100EC0000FC0F6FF4D92110014EC0DF0010E166EDE
:100ED000010EC6EC0CF0C10E166E9EEC0CF046C076
:100EE00013F047C014F0000E166E0A0E156E4CEC8F
:100EF0000BF01350300F56EC08F046C013F047C00B
:100F000014F0000E166E0A0E156EE8EC0BF013507E
:100F1000300F56EC08F0010E166E020EC6EC0CF007
:100F2000B60E166E9EEC0CF04450465C1E6E45509C
:100F300047581F6E1FAE04D0000E1F6E000E1E6EAF
:100F40001EC013F01FC014F0000E166E0A0E156EB0
:100F5000FAEC09F01350300F56EC08F01EC013F0F5
:100F60001FC014F0000E166E0A0E156E7CEC0AF00F
:100F70001350300F56EC08F044C013F045C014F085
:100F8000000E166E0A0E156EE8EC0BF013C018F08A
:100F900014C019F002EC0DF044C013F045C014F079
:100FA000000E166E0A0E156E4CEC0BF013C01AF004
:100FB00014C01BF0EAEC0AF012001CEC0DF0010E5C
:100FC000046E010ED8EC0CF0C10E046EB2EC0CF005
:100FD00046C001F047C002F0000E046E0A0E036E18
:100FE00075EC0BF00150300F28EC09F046C001F011
:100FF00047C002F0000E046E0A0E036E09EC0CF0FE
:101000000150300F28EC09F0010E046E020ED8ECEE
:101010000CF0B60E046EB2EC0CF04450465C0C6E54
:10102000455047580D6E0DAE04D0000E0D6E000EEB
:101030000C6E0CC001F00DC002F0000E046E0A0E22
:10104000036E3BEC0AF00150300F28EC09F00CC0A5
:1010500001F00DC002F0000E046E0A0E036EB3EC38
:101060000AF00150300F28EC09F044C001F045C0EF
:1010700002F0000E046E0A0E036E09EC0CF001C0C3
:1010800006F002C007F00BEC0DF044C001F045C0C3
:1010900002F0000E046E0A0E036E75EC0BF001C038
:1010A00008F002C009F01BEC0BF01200156E8986E7
:1010B00015C013F0133A0F0E13161330D8A002D038
:1010C0008C8801D08C9815C013F0050E146ED89042
:1010D0001332142EFCD71330D8A002D08C8A01D042
:1010E0008C9A15C013F0060E146ED8901332142E7D
:1010F000FCD71330D8A002D08C8C01D08C9C136A02
:1011000015AE01D0132A1330D8A002D08C8E01D096
:101110008C9E8988100EE82EFED700D0899815A0E5
:1011200002D08C8801D08C9815C013F0D89013325F
:101130001330D8A002D08C8A01D08C9A15C013F03D
:10114000D8901332D89013321330D8A002D08C8CA0
:1011500001D08C9C15C013F0D8901332D890133264
:10116000D89013321330D8A002D08C8E01D08C9E30
:101170008988100EE82EFED700D089981200156ECF
:10118000899615C013F0133A0F0E13161330D8A01A
:1011900002D08C8801D08C9815C013F0050E146E07
:1011A000D8901332142EFCD71330D8A002D08C8ADA
:1011B00001D08C9A15C013F0060E146ED89013321D
:1011C000142EFCD71330D8A002D08C8C01D08C9C6C
:1011D000136A15AE01D0132A1330D8A002D08C8E1A
:1011E00001D08C9E8988A60EE82EFED700D0899863
:1011F00015A002D08C8801D08C9815C013F0D8901F
:1012000013321330D8A002D08C8A01D08C9A15C02A
:1012100013F0D8901332D89013321330D8A002D0E4
:101220008C8C01D08C9C15C013F0D8901332D890C0
:101230001332D89013321330D8A002D08C8E01D044
:101240008C9E8988A60EE82EFED700D089981200C1
:10125000036E898603C001F0013A0F0E01160130BA
:10126000D8A002D08C8801D08C9803C001F0050E64
:10127000026ED8900132022EFCD70130D8A002D0E5
:101280008C8A01D08C9A03C001F0060E026ED890B1
:101290000132022EFCD70130D8A002D08C8C01D0B4
:1012A0008C9C016A03AE01D0012A0130D8A002D083
:1012B0008C8E01D08C9E8988100EE82EFED700D02F
:1012C000899803A002D08C8801D08C9803C001F0CB
:1012D000D89001320130D8A002D08C8A01D08C9AEB
:1012E00003C001F0D8900132D89001320130D8A06B
:1012F00002D08C8C01D08C9C03C001F0D8900132BC
:10130000D8900132D89001320130D8A002D08C8E12
:1013100001D08C9E8988100EE82EFED700D08998C7
:101320001200036E899603C001F0013A0F0E0116F8
:101330000130D8A002D08C8801D08C9803C001F075
:10134000050E026ED8900132022EFCD70130D8A0D3
:1013500002D08C8A01D08C9A03C001F0060E026E76
:10136000D8900132022EFCD70130D8A002D08C8C4C
:1013700001D08C9C016A03AE01D0012A0130D8A0B3
:1013800002D08C8E01D08C9E8988A60EE82EFED7C6
:1013900000D0899803A002D08C8801D08C9803C01B
:1013A00001F0D89001320130D8A002D08C8A01D04F
:1013B0008C9A03C001F0D8900132D89001320130EC
:1013C000D8A002D08C8C01D08C9C03C001F0D890A6
:1013D0000132D8900132D89001320130D8A002D029
:1013E0008C8E01D08C9E8988A60EE82EFED700D068
:1013F00089981200186A16AE06D0156C161ED8B061
:10140000162A010E186E14AE06D0136C141ED8B036
:10141000142A010E181A000E1A6E000E196E1550BD
:101420001610D8B41CD0010E176E04D0D890153603
:101430001636172A16AEFAD7D89019361A3615501E
:10144000135C16501458D8A005D01550135E1650D2
:10145000145A1980D89016321532172EEDD718501D
:10146000D8B404D0196C1A1ED8B01A2A19C013F0B7
:101470001AC014F01200066A04AE06D0036C041EF3
:10148000D8B0042A010E066E02AE06D0016C021E10
:10149000D8B0022A010E061A000E086E000E076E62
:1014A00003500410D8B41CD0010E056E04D0D8909F
:1014B00003360436052A04AEFAD7D8900736083624
:1014C0000350015C04500258D8A005D00350015EBF
:1014D0000450025A0780D89004320332052EEDD70B
:1014E0000650D8B404D0076C081ED8B0082A07C02C
:1014F00001F008C002F01200186A14AE06D0136C96
:10150000141ED8B0142A010E186E16AE04D0156C35
:10151000161ED8B0162A15501610D8B418D0010EC1
:10152000176E04D0D89015361636172A16AEFAD78D
:101530001550135C16501458D8A004D01550135EE3
:101540001650145AD89016321532172EF1D718505B
:10155000D8B404D0136C141ED8B0142A13C013F0DE
:1015600014C014F01200066A02AE06D0016C021E0E
:10157000D8B0022A010E066E04AE04D0036C041E1D
:10158000D8B0042A03500410D8B418D0010E056E48
:1015900004D0D89003360436052A04AEFAD7035097
:1015A000015C04500258D8A004D00350015E0450DE
:1015B000025AD89004320332052EF1D70650D8B41F
:1015C00004D0016C021ED8B0022A01C001F002C092
:1015D00002F0120014D0050E8D6E1200040E8D6EF6
:1015E0001200060E8D6E1200020E8D6E1200030E9A
:1015F0008D6E1200070E8D6E12008D6A12001AC0D9
:101600001CF01BC01DF01D50000AD8A4F6D71C50BA
:10161000000AD8B4E0D7010AD8B4E0D7030AD8B496
:10162000E0D7010AD8B4E0D7070AD8B4E0D7010A56
:10163000D8B4E0D7E2D714D0050E8D6E1200040E98
:101640008D6E1200060E8D6E1200020E8D6E12004F
:10165000030E8D6E1200070E8D6E12008D6A120041
:1016600008C00AF009C00BF00B50000AD8A4F6D746
:101670000A50000AD8B4E0D7010AD8B4E0D7030A68
:10168000D8B4E0D7010AD8B4E0D7070AD8B4E0D775
:10169000010AD8B4E0D7E2D7000E196E000E186E1A
:1016A00015501610D8B41CD0010E176E04D0D89067
:1016B00015361636172A16AEFAD7D89018361936B8
:1016C0001550135C16501458D8A005D01550135E51
:1016D0001650145A1880D89016321532172EEDD79E
:1016E00018C013F019C014F01200000E066E000EA0
:1016F000056E03500410D8B41CD0010E076E04D040
:10170000D89003360436072A04AEFAD7D8900536A7
:1017100006360350015C04500258D8A005D003508F
:10172000015E0450025A0580D89004320332072E1D
:10173000EDD705C001F006C002F01200956A8C6A70
:10174000966A8D6A050E926EF00E936E0F0E8A6E7B
:101750009480F19E020E146E450E136EAA0EE82EB2
:10176000FED7132EFCD7142EFAD7010ED56E0B0E12
:10177000D76EDC0ED66EF294F28AF28EF28CF29074
:10178000F286D58E010E4C6E1200956A8C6A050E9B
:10179000926E896A929A898A070E166E7D0EE82EDD
:1017A000FED7162EFCD70000020EBFEC08F0280E64
:1017B000BFEC08F00C0EBFEC08F0060EBFEC08F012
:1017C000010EBFEC08F0A60EE82EFED700D01200E6
:1017D00015501610D8B418D0010E176E04D0D8903A
:1017E00015361636172A16AEFAD71550135C165052
:1017F0001458D8A004D01550135E1650145AD8901F
:1018000016321532172EF1D713C013F014C014F08E
:10181000120003500410D8B418D0010E056E04D085
:10182000D89003360436052A04AEFAD70350015C7B
:1018300004500258D8A004D00350015E0450025A4C
:10184000D89004320332052EF1D701C001F002C056
:1018500002F01200000E496E040E486E14EC0DF0FA
:10186000010E166E010EC6EC0CF0700E166E9EEC9C
:101870000CF0010E166E020EC6EC0CF09D0E166EEC
:101880009EEC0CF0010E8D6ED59EFFD7186E185091
:10189000080DF350400FBFEC08F0196A16501924D8
:1018A000176E17C0F6FF080EF76E0800F55056ECDD
:1018B00008F0192A070E1964F1D71200480EF66EC7
:1018C0001A0EF76E000EF86E0900F5CF4CF000EE20
:1018D00040F00C0EEE6AE806FDE14D904D92000ED0
:1018E000F86E000166EF04F014EC0DF0010E166EB8
:1018F000010EC6EC0CF05F0E166E9EEC0CF0010EA5
:10190000166E020EC6EC0CF0AA0E166E9EEC0CF0D3
:1019100012001CEC0DF0010E046E010ED8EC0CF060
:101920005F0E046EB2EC0CF0010E046E020ED8ECE9
:101930000CF0AA0E046EB2EC0CF0120009D016C026
:10194000F6FF080EF76E0800F55056EC08F0162A60
:1019500016C0F6FF080EF76E0800F5500009D8B45F
:101960001200EDD709D004C0F6FF080EF76E08008C
:10197000F55028EC09F0042A04C0F6FF080EF76EB3
:101980000800F5500009D8B41200EDD7176E1704FF
:10199000D8B402D0BF0E01D07F0E1624196E1A6A79
:1019A000000E1A2219C018F01850BFEC08F01200EF
:1019B000056E0504D8B402D0BF0E01D07F0E0424FA
:1019C000066E076A000E072206C008F0085091EC68
:1019D00009F0120014EC0DF0010E166E010EC6ECAB
:1019E0000CF07F0E166E9EEC0CF012001CEC0DF04D
:1019F000010E046E010ED8EC0CF07F0E046EB2ECFA
:101A00000CF0120018C01AF00F0E1A168C50F00BC2
:101A10001A108C6E120006C008F00F0E08168C50BB
:101A2000F00B08108C6E1200010EBFEC08F0A60E31
:101A3000E82EFED700D01200010E91EC09F0A60EA0
:091A4000E82EFED700D0120001CF
:020000040020DA
:08000000FFFFFFFFFFFFFFFF00
:020000040030CA
:0E00000000091F1EFF8185FF0FC00FE00F409B
:00000001FF
