:0400000007EF00F016
:100008004A8209ED00F062EF0DF00600F3CF10F020
:10001800F4CF11F0F6CF12F0F7CF13F0F8CF14F0B9
:10002800F5CF15F0F2A069D0F00E8118D8B44AD0F7
:10003800FE0E8A6E81B802D0010E41D081BA02D07C
:10004800020E3DD081BC02D0030E39D081BE02D051
:10005800040E35D0FD0E8A6E81B802D0050E2FD061
:1000680081BA02D0060E2BD081BC02D0070E27D051
:1000780081BE02D0080E23D0FB0E8A6E81B802D052
:10008800090E1DD081BA02D00A0E19D081BC02D047
:100098000B0E15D081BE02D00C0E11D0F70E8A6E51
:1000A80081B802D00D0E0BD081BA02D00E0E07D047
:1000B80081BC02D00F0E03D081BE02D0100E466E56
:1000C800F00E8A6E720E0E6EA20EE82EFED70E2E5F
:1000D800FCD7F2903A5004E10B0E395CD8A009D055
:1000E8003A5007E1140E395CD8B003D0010E496EBE
:1000F800898A000E3A6E000E396EF2A4A5D00B0E56
:10010800D76EDC0ED66EF2948972394A3A2A4804C0
:10011800D8A402D0472A01D0476A010E476401D00B
:10012800486A000187518811D8A407D0000E5DECF9
:100138000EF00E6E0E50376E386A240E026E7F0E69
:10014800036ED7EC0DF0640E3702F3CF0EF0F4CF48
:100158000FF03802F3500F260EC001F00FC002F066
:10016800000E046E036841EC0CF001500CEC0DF02D
:10017800FA0E026E7F0E036ED7EC0DF0CD0E026EF6
:100188007F0E036ED7EC0DF043500CEC0DF0CA0E49
:10019800026E7F0E036ED7EC0DF00A0E39183A1076
:1001A800D8A402D0496A899A3A5004E1140E395CFD
:1001B800D8A04AD0B9EC0EF08D6A8C6A899A8B94D3
:1001C800F28AF286F290BE6A0300000E3A6E000EC2
:1001D800396E37C0BEFF3DC001F03EC002F0000ED0
:1001E800046E0A0E036E41EC0CF001C008F002C068
:1001F80009F0BEEC0BF03DC001F03EC002F0000E6D
:10020800046E0A0E036EACEC0CF001C006F002C0DE
:1002180007F0A8EC0EF0F28A010E496E898A4104B3
:100228004210D8A403D07BEC0EF00ED0020E411879
:100238004210D8A403D013EC06F006D0030E4118E0
:100248004210D8B4B1EC0AF09EAAE9D0000E3A6E7A
:10025800000E396EABA202D0AB98AB88AECF44F09B
:10026800040E41184210D8B4DAD0500E4418D8B44D
:1002780004D0700E4418D8A409D07B0E026E7E0EEE
:10028800036ED7EC0DF0CDEC0CF0C9D0450E441838
:10029800D8B404D0650E4418D8A40AD0BD0E026E96
:1002A8007E0E036ED7EC0DF0000E366E010E11D0E7
:1002B800410E4418D8B404D0610E4418D8A40BD009
:1002C800140E026E7F0E036ED7EC0DF0000E366E24
:1002D800020E356EA4D0520E4418D8B404D0720E53
:1002E8004418D8A412D0020E41184210D8A40DD038
:1002F800A90E026E7E0E036ED7EC0DF0000E3E6E58
:10030800000E3D6E13EC06F08AD05A0E4418D8B48D
:1003180004D07A0E4418D8A40FD0C10E026E7F0EF6
:10032800036ED7EC0DF0000E0001886F010E876F89
:10033800000E386E000E5BD0580E4418D8B404D0A6
:10034800780E4418D8A40FD08D0E026E7F0E036E5F
:10035800D7EC0DF0000E0001886F010E876F000EBC
:10036800386E330E44D0430E4418D8B404D0630E0C
:100378004418D8A40FD07F0E026E7F0E036ED7EC00
:100388000DF0000E0001886F010E876F000E386EA9
:10039800660E2DD0560E4418D8B404D0760E4418E4
:1003A800D8A40FD09A0E026E7F0E036ED7EC0DF014
:1003B800000E0001886F010E876F000E386E990ECF
:1003C80016D0420E4418D8B404D0620E4418D8A4EB
:1003D80010D0A70E026E7F0E036ED7EC0DF0000E44
:1003E8000001886F010E876F000E386ECC0E376ED5
:1003F80016D04E0E4418D8B404D06E0E4418D8A4A3
:100408000ED0340E026E7F0E036ED7EC0DF0000E88
:100418000001886F010E876F000E386E376815C0AF
:10042800F5FF14C0F8FF13C0F7FF12C0F6FF11C0A4
:10043800F4FF10C0F3FF4A92110069EC09F0000EB6
:100448003A6E000E396E18EC0CF094EC0EF0020EB9
:100458000001836F450E826FA90EE82EFED7822F0A
:10046800FCD7832FFAD700D058EC0BF0000E3A6E69
:10047800000E396EFAEC03F0000185058611D8A448
:1004880003D0FEEC04F006D0000E426E010E416E61
:100498006DEC0EF0F6EC09F0436E4350D8B459D029
:1004A800080E436056D0020E41184210D8A451D00D
:1004B800000E3A6E000E396E3E500EE13B0E3D5C6A
:1004C800D8B00AD03D4A3E2A000E176E0A0E166EA4
:1004D8003DC018F014EC0EF03DC016F03EC017F009
:1004E800000E196E0A0E186E8BEC0CF016501710D1
:1004F800D8B494EC0EF03F503D5C40503E58D8A024
:1005080019D0000E176E0F0E166E3FC018F014ECBF
:100518000EF0000E176E0A0E166E3DC018F014ECA1
:100528000EF096EC05F0000E426E030E416E78EC6C
:100538000AF002D096EC05F0030E0001836F8A0ED4
:10054800826F550EE82EFED7822FFCD7832FFAD75D
:1005580000D035503610D8B404D035043610D8A49D
:1005680003D037C0BEFF05D0020E35183610D8B4F8
:10057800BE6A4650D8B48ED7000E3A6E000E396E59
:10058800420E4624F66EF76A7E0EF7220800F5CF73
:1005980084F0466A440E00018419D8B46AEC0CF061
:1005A800430E00018419D8A404D14950D8A402D01C
:1005B800010E01D0000E496E49A002D0898AF9D0F7
:1005C800899AF7D02F0E846544D03A0E846141D0C1
:1005D8000A0E3B02F3CF82F0F4CF83F03C02F350D3
:1005E800832784518227000E8323D00E82253B6EF9
:1005F800FF0E83213C6E3C5004E1640E3B5CD8A0A6
:1006080004D0000E3C6E000E3B6E6DEC0EF0070E33
:10061800196E020E27EC0EF03BC016F03CC017F026
:10062800000E196E0A0E186EEFEC0BF01650300F14
:100638006EEC07F03BC016F03CC017F0000E196EC8
:100648000A0E186E8BEC0CF01650300F6EEC07F09B
:10065800C3D02A0E8419D8A432D03BC016F03CC0AF
:1006680017F0000E196E0A0E186EEFEC0BF016C09C
:100678003BF017C03CF06DEC0EF0070E196E020E41
:1006880027EC0EF03BC016F03CC017F0000E196EB8
:100698000A0E186EEFEC0BF01650300F6EEC07F0E8
:1006A8003BC016F03CC017F0000E196E0A0E186E0B
:1006B8008BEC0CF01650300F6EEC07F08DD0230E3B
:1006C8008419D8A489D03B503C10D8B429D03C50C8
:1006D80027E13C0E3B5CD8B023D03BC03FF03CC088
:1006E80040F0000E3E6E000E3D6E000E176E0F0EAF
:1006F800166E3FC018F014EC0EF0000E176E0A0EBE
:10070800166E3DC018F014EC0EF0000E3C6E000E94
:100718003B6E000E426E020E416E96EC05F05CD008
:10072800B1EC0EF0010E196E010E27EC0EF0700EF2
:10073800196E7F0E1A6E98EC0DF0020E0001836F91
:10074800E70E826F000EE82EFED7822FFCD7832F8C
:10075800FAD70000000E3C6E000E3B6E6DEC0EF0FA
:100768003BD0420E8419D8A407D0000E426E030E67
:10077800416E78EC0AF030D0410E8419D8A42CD000
:10078800000E3E6E000E3D6E000E176E0A0E166EBF
:100798003DC018F014EC0EF0C0D789EC0EF0230E13
:1007A80000018419D8A418D0000E426E010E416EC3
:1007B800D1D741C082F042C083F000018351000AC2
:1007C800D8A40AD08251010AD8B4FCD6030AD8B4F6
:1007D800C8D7010AD8B4E1D7410E0001826FEE0EE6
:1007E800E82EFED7822FFCD7000054D6730E196E60
:1007F8007E0E1A6E000E7DEC0DF06B0E196E7E0EDD
:100808001A6E010E7DEC0DF0630E196E7E0E1A6ED7
:10081800020E7DEC0DF0530E196E7E0E1A6E030E4D
:100828007DEC0DF05B0E196E7E0E1A6E040E7DECDB
:100838000DF02B0EF66E7E0EF76E20EE60F0160EA3
:100848000900F5CFDEFFE806FBE2000E00017A6F33
:10085800100E796F000E816F000E806F010E196EF9
:10086800010E27EC0EF0000E00017F6F000E7E6F68
:100878008051600F7E25D96EDA6ADF507D6F1F0EBA
:100888007D6503D07E0E7D6505D0000E786F200E45
:10089800776F03D07DC077F0786B77516EEC07F0F7
:1008A80000017E4B7F2B7FBFE3D77F5104E1100E01
:1008B8007E5DD8A0DDD780C019F0020E27EC0EF0BF
:1008C800040E6EEC07F000018029196E020E27EC69
:1008D8000EF080C016F081C017F0000E196E030EDE
:1008E800186EEAEC0AF016506EEC07F0660E1F6EF2
:1008F8004B0EE82EFED71F2EFCD7000080C019F043
:10090800020E27EC0EF0200E6EEC07F00001802995
:10091800196E020E27EC0EF0200E6EEC07F00001A7
:10092800804B812B7951805D8151800A1F6E7A51ED
:10093800800A1F58D8A092D7100E196E020E27EC05
:100948000EF0030E6EEC07F0010E196E010E27EC87
:100958000EF0930E196E7E0E1A6E98EC0DF0A30E23
:100968001F6E550EE82EFED71F2EFCD70000000E76
:1009780000017C6F000E7B6F100E196E020E27ECC3
:100988000EF0200E6EEC07F0310E1F6EB20EE82E40
:10099800FED71F2EFCD700D0100E196E020E27ECC2
:1009A8000EF0030E6EEC07F0310E1F6EB20EE82E3D
:1009B800FED71F2EFCD700D000017B4B7C2B7CBFC1
:1009C800DBD77C5104E1030E7B5DD8A0D5D7020E9E
:1009D800206E040E1F6EBA0EE82EFED71F2EFCD70F
:1009E800202EFAD700D0B1EC0EF0000E3A6E000EB1
:1009F800396E1200B1EC0EF0010E196E010E27ECE3
:100A08000EF0CF0E196E7E0E1A6E98EC0DF0010ED8
:100A1800196E020E27EC0EF0610E196E7F0E1A6E1B
:100A280098EC0DF0256A1DD0000E3A6E000E396E56
:100A38004650D8B416D0420E4624F66EF76A7E0E9B
:100A4800F7220800F5CF24F0466A230E2418D8A40C
:100A580002D0230E05D02A0E2418D8A402D02A0EBC
:100A6800256E2550D8B4E0D7230E2518D8A44FD02A
:100A7800000E176E0A0E166EC1EC0EF0236E235090
:100A8800336E346A000E176E0F0E166EC1EC0EF040
:100A9800236E2350316E326A3350EEEC0CF0CA0EDE
:100AA800176E7F0E186EADEC0DF03150EEEC0CF0B9
:100AB800CA0E176E7F0E186EADEC0DF0B1EC0EF08D
:100AC80033C03DF034C03EF031C03FF032C040F09A
:100AD8003F504010D8A407D06DEC0EF0000E426EC7
:100AE800010E416E12003F503D5C40503E58D8A068
:100AF80007D078EC0AF0000E426E030E416E120029
:100B080096EC05F0000E426E020E416E12006DEC7E
:100B18000EF0000E3E6E000E3D6E000E406E000E92
:100B28003F6EDCD7B1EC0EF0010E196E010E27EC0A
:100B38000EF0F00E196E7F0E1A6E98EC0DF03FC095
:100B480016F040C017F0000E196E0A0E186EEFEC82
:100B58000BF01650300F6EEC07F03FC016F040C097
:100B680017F0000E196E0A0E186E8BEC0CF016506A
:100B7800300F6EEC07F0010E196E020E27EC0EF026
:100B8800E50E196E7F0E1A6E98EC0DF03D503F5C25
:100B9800216E3E504058226E22AE04D0000E226EC6
:100BA800000E216E21C016F022C017F0000E196E3B
:100BB8000A0E186EB5EC09F01650300F6EEC07F0FF
:100BC80021C016F022C017F0000E196E0A0E186E1A
:100BD800EAEC0AF01650300F6EEC07F03DC016F044
:100BE8003EC017F0000E196E0A0E186E8BEC0CF052
:100BF80016C01BF017C01CF09FEC0EF03DC016F09D
:100C08003EC017F0000E196E0A0E186EEFEC0BF0CE
:100C180016C01DF017C01EF08DEC0BF01200B9ECD9
:100C28000EF0010E046E010E4BEC0EF0F00E046E89
:100C38007F0E056EC2EC0DF03FC001F040C002F01F
:100C4800000E046E0A0E036E41EC0CF00150300FDA
:100C580040EC08F03FC001F040C002F0000E046E06
:100C68000A0E036EACEC0CF00150300F40EC08F0AB
:100C7800010E046E020E4BEC0EF0E50E046E7F0EB4
:100C8800056EC2EC0DF03D503F5C0C6E3E50405876
:100C98000D6E0DAE04D0000E0D6E000E0C6E0CC065
:100CA80001F00DC002F0000E046E0A0E036E37EC60
:100CB8000AF00150300F40EC08F00CC001F00DC0F4
:100CC80002F0000E046E0A0E036E21EC0BF00150C8
:100CD800300F40EC08F03DC001F03EC002F0000EBD
:100CE800046E0A0E036EACEC0CF001C006F002C0F4
:100CF80007F0A8EC0EF03DC001F03EC002F0000E77
:100D0800046E0A0E036E41EC0CF001C008F002C03C
:100D180009F0BEEC0BF0120023C027F0286A296AFC
:100D28002234273601E3288027502E6E2E50D8A46F
:100D380007D0000E216E000E226E000E236E1200E8
:100D480026C027F0286A296A2534273601E3288037
:100D580027502F6E2F50D8A407D0000E216E000EFA
:100D6800226E000E236E1200000E2B6E000E2C6EEB
:100D7800000E2D6E2F50890F2E5E23C02FF02650A7
:100D88002F1A800E2F16228EFF0E2116FF0E221606
:100D9800000E2316258EFF0E2416FF0E2516000EB4
:100DA8002616180E2A6ED8902B362C362D3624503F
:100DB800215C2550225826502358D8A007D024500B
:100DC800215E2550225A2650235A2B80D89021364E
:100DD800223623362A2EE7D72BC016F02CC017F060
:100DE8002DC018F02EC019F02FC01AF012EC09F01F
:100DF80016C021F017C022F018C023F0120062C0FC
:100E080064F00001656B666B6135643701E36581E9
:100E180064516E6F6E51D8A409D0000E606F000E39
:100E2800616F000E626F000E636F1200170E646F21
:100E380060C065F061C066F062C067F06429686FE1
:100E480004D0D890673366336533682FFAD700012A
:100E58006551696F618FFF0E6017FF0E6117000EF5
:100E6800621760516A6F61516B6F62516C6F6D6B85
:100E78008E0E6E5F6EAF0DD06E51800A8F0FD8A0A8
:100E8800CCD7D8906D336C336B336A336E3FF9D758
:100E98000DD0170E6E6507D0C0D7D8906A376B375C
:100EA8006C376D376E076E51D8A4F7D76951D8B42F
:100EB80008D06D1F6C1F6B1F6A6D000E6B236C23AF
:100EC8006D236AC060F06BC061F06CC062F06DC0E9
:100ED80063F01200186E898618C016F0163A0F0EC5
:100EE80016161630D8A002D08C8801D08C9818C05D
:100EF80016F0050E176ED8901632172EFCD716303E
:100F0800D8A002D08C8A01D08C9A18C016F0060E90
:100F1800176ED8901632172EFCD71630D8A002D0EC
:100F28008C8C01D08C9C166A18AE01D0162A16300B
:100F3800D8A002D08C8E01D08C9E8988100EE82E05
:100F4800FED700D0899818A002D08C8801D08C9840
:100F580018C016F0D89016321630D8A002D08C8A55
:100F680001D08C9A18C016F0D8901632D890163244
:100F78001630D8A002D08C8C01D08C9C18C016F0EA
:100F8800D8901632D8901632D89016321630D8A08B
:100F980002D08C8E01D08C9E8988100EE82EFED748
:100FA80000D089981200186E899618C016F0163A63
:100FB8000F0E16161630D8A002D08C8801D08C9847
:100FC80018C016F0050E176ED8901632172EFCD7DB
:100FD8001630D8A002D08C8A01D08C9A18C016F08E
:100FE800060E176ED8901632172EFCD71630D8A0DA
:100FF80002D08C8C01D08C9C166A18AE01D0162AAF
:101008001630D8A002D08C8E01D08C9E8988A60E6E
:10101800E82EFED700D0899818A002D08C8801D07D
:101028008C9818C016F0D89016321630D8A002D076
:101038008C8A01D08C9A18C016F0D8901632D890A5
:1010480016321630D8A002D08C8C01D08C9C18C0D7
:1010580016F0D8901632D8901632D890163216302C
:10106800D8A002D08C8E01D08C9E8988A60EE82E3E
:10107800FED700D089981200036E898603C001F05C
:10108800013A0F0E01160130D8A002D08C8801D089
:101098008C9803C001F0050E026ED8900132022E22
:1010A800FCD70130D8A002D08C8A01D08C9A03C01A
:1010B80001F0060E026ED8900132022EFCD70130E4
:1010C800D8A002D08C8C01D08C9C016A03AE01D0D0
:1010D800012A0130D8A002D08C8E01D08C9E89883C
:1010E800100EE82EFED700D0899803A002D08C8875
:1010F80001D08C9803C001F0D89001320130D8A0FB
:1011080002D08C8A01D08C9A03C001F0D8900132A9
:10111800D89001320130D8A002D08C8C01D08C9CA0
:1011280003C001F0D8900132D8900132D890013232
:101138000130D8A002D08C8E01D08C9E8988100EE8
:10114800E82EFED700D089981200036E899603C056
:1011580001F0013A0F0E01160130D8A002D08C8898
:1011680001D08C9803C001F0050E026ED8900132B0
:10117800022EFCD70130D8A002D08C8A01D08C9ADC
:1011880003C001F0060E026ED8900132022EFCD781
:101198000130D8A002D08C8C01D08C9C016A03AE9F
:1011A80001D0012A0130D8A002D08C8E01D08C9EAB
:1011B8008988A60EE82EFED700D0899803A002D011
:1011C8008C8801D08C9803C001F0D890013201308E
:1011D800D8A002D08C8A01D08C9A03C001F0D89094
:1011E8000132D89001320130D8A002D08C8C01D0C5
:1011F8008C9C03C001F0D8900132D8900132D8906D
:1012080001320130D8A002D08C8E01D08C9E898802
:10121800A60EE82EFED700D0899812001950D8B42F
:1012280005D0165017101810D8A40CD0000E166E42
:10123800000E176E000E186E1200192AD890183278
:1012480017321632000E16141B6E000E17141C6E81
:10125800FE0E18141D6E1B501C101D10D8B40CD097
:10126800ECD7192A010E1626000E1722000E182296
:10127800D890183217321632000E16141B6E000E54
:1012880017141C6EFF0E18141D6E1B501C101D1019
:10129800D8B406D0E6D71906D890163617361836B9
:1012A80017BE03D0020E1960F6D719A0179ED89062
:1012B8001932195018121A50D8A4188E16C016F0E0
:1012C80017C017F018C018F01200956A8C6A966A51
:1012D8008D6A94948B9494909482010E926EF00E81
:1012E800936E0F0E8A6EF19E8B90800ECD6E040E5B
:1012F800BA6EA190F90ECB6EBE6ACA6A0C0EBD6EAC
:10130800CC6AF098F092240EAC6E900EAB6E080E7C
:10131800B86E190EAF6E9D8A9D989E9A9E98010E82
:10132800C26E0E0EC16E080EC06E020E176E450E0E
:10133800166EAA0EE82EFED7162EFCD7172EFAD751
:10134800010ED56E0B0ED76EDC0ED66EF294F28AB5
:10135800F28EF28CF290F286CA84D58E010E496E16
:1013680012001B6A19AE06D0186C191ED8B0192ABB
:10137800010E1B6E17AE06D0166C171ED8B0172AB2
:10138800010E1B1A000E1D6E000E1C6E185019104F
:10139800D8B41CD0010E1A6E04D0D890183619365D
:1013A8001A2A19AEFAD7D8901C361D361850165C72
:1013B80019501758D8A005D01850165E1950175A4A
:1013C8001C80D890193218321A2EEDD71B50D8B479
:1013D80004D01C6C1D1ED8B01D2A1CC016F01DC0E0
:1013E80017F01200040EBA6E000ECF6E000ECE6E0D
:1013F800A1908B8000D08B90010E486E82B203D0F2
:101408004804D8B4FBD74850D8A402D0000E120024
:10141800CD80A1B002D09EA0FCD7CD909EA003D0D5
:101428009E9030681ED0000E246E680E256E410E08
:10143800266EBBCF1EF0BCCF1FF039EC0EF01EC0DD
:1014480021F01FC022F020C023F090EC06F021C04C
:1014580060F022C061F023C062F003EC07F0605135
:10146800306E30501200066A04AE06D0036C041EBB
:10147800D8B0042A010E066E02AE06D0016C021E18
:10148800D8B0022A010E061A000E086E000E076E6A
:1014980003500410D8B41CD0010E056E04D0D890A7
:1014A80003360436052A04AEFAD7D890073608362C
:1014B8000350015C04500258D8A005D00350015EC7
:1014C8000450025A0780D89004320332052EEDD713
:1014D8000650D8B404D0076C081ED8B0082A07C034
:1014E80001F008C002F012003FC016F040C017F02B
:1014F800000E196E0A0E186E8BEC0CF016C01BF05D
:1015080017C01CF09FEC0EF03FC016F040C017F05B
:10151800000E196E0A0E186EEFEC0BF016C01DF0D7
:1015280017C01EF08DEC0BF0B1EC0EF0010E196E29
:10153800010E27EC0EF0E10E196E7E0E1A6E98EC75
:101548000DF0010E196E020E27EC0EF0D90E196E71
:101558007F0E1A6E98EC0DF012003FC001F040C0EB
:1015680002F0000E046E0A0E036EACEC0CF001C023
:1015780006F002C007F0A8EC0EF03FC001F040C032
:1015880002F0000E046E0A0E036E41EC0CF001C06E
:1015980008F002C009F0BEEC0BF0B9EC0EF0010E39
:1015A800046E010E4BEC0EF0E10E046E7E0E056E1D
:1015B800C2EC0DF0010E046E020E4BEC0EF0D90ECB
:1015C800046E7F0E056EC2EC0DF012001B6A17AE9A
:1015D80006D0166C171ED8B0172A010E1B6E19AE4E
:1015E80004D0186C191ED8B0192A18501910D8B47C
:1015F80018D0010E1A6E04D0D890183619361A2A47
:1016080019AEFAD71850165C19501758D8A004D03C
:101618001850165E1950175AD890193218321A2EC7
:10162800F1D71B50D8B404D0166C171ED8B0172A9F
:1016380016C016F017C017F01200066A02AE06D0E0
:10164800016C021ED8B0022A010E066E04AE04D048
:10165800036C041ED8B0042A03500410D8B418D060
:10166800010E056E04D0D89003360436052A04AE60
:10167800FAD70350015C04500258D8A004D0035094
:10168800015E0450025AD89004320332052EF1D775
:101698000650D8B404D0016C021ED8B0022A01C08A
:1016A80001F002C002F01200D0B220D0B1EC0EF06E
:1016B800010E196E010E27EC0EF0F20E196E7E0E59
:1016C8001A6E98EC0DF0D082000E0001866F010EA4
:1016D800856F020E1F6EE70E1E6E000EE82EFED7F7
:1016E8001E2EFCD71F2EFAD700D01200B1EC0EF038
:1016F800010E196E010E27EC0EF0030E196E7F0E07
:101708001A6E98EC0DF0D082000E0001866F000E64
:10171800DFD714D0050E8D6E1200040E8D6E1200E8
:10172800060E8D6E1200020E8D6E1200030E8D6E67
:101738001200070E8D6E12008D6A12001DC01FF078
:101748001EC020F02050000AD8A4F6D71F50000A67
:10175800D8B4E0D7010AD8B4E0D7030AD8B4E0D7A0
:10176800010AD8B4E0D7070AD8B4E0D7010AD8B438
:10177800E0D7E2D714D0050E8D6E1200040E8D6EE0
:101788001200060E8D6E1200020E8D6E1200030EF0
:101798008D6E1200070E8D6E12008D6A120008C041
:1017A8000AF009C00BF00B50000AD8A4F6D70A506B
:1017B800000AD8B4E0D7010AD8B4E0D7030AD8B4ED
:1017C800E0D7010AD8B4E0D7070AD8B4E0D7010AAD
:1017D800D8B4E0D7E2D7000E1C6E000E1B6E18506E
:1017E8001910D8B41CD0010E1A6E04D0D89018362F
:1017F80019361A2A19AEFAD7D8901B361C36185043
:10180800165C19501758D8A005D01850165E1950F4
:10181800175A1B80D890193218321A2EEDD71BC0D0
:1018280016F01CC017F01200956A8C6A010E926EB1
:10183800896A929A898A210E196E760EE82EFED749
:10184800192EFCD700D0020ED7EC07F0280ED7ECE3
:1018580007F00C0ED7EC07F0060ED7EC07F0010ED8
:10186800D7EC07F0210E196E760EE82EFED7192E4A
:10187800FCD700D0B1EC0EF01200000E066E000E80
:10188800056E03500410D8B41CD0010E076E04D0A6
:10189800D89003360436072A04AEFAD7D89005360E
:1018A80006360350015C04500258D8A005D00350F6
:1018B800015E0450025A0580D89004320332072E84
:1018C800EDD705C001F006C002F01200000E426E0E
:1018D800040E416EB1EC0EF0010E196E010E27ECEC
:1018E8000EF0430E196E7F0E1A6E98EC0DF0010E75
:1018F800196E020E27EC0EF0B40E196E7F0E1A6EDA
:1019080098EC0DF0010E8D6E8B94D59EFFD7185074
:101918001910D8B418D0010E1A6E04D0D890183601
:1019280019361A2A19AEFAD71850165C19501758D2
:10193800D8A004D01850165E1950175AD8901932EA
:1019480018321A2EF1D716C016F017C017F0120069
:1019580003500410D8B418D0010E056E04D0D890E6
:1019680003360436052A04AEFAD70350015C045046
:101978000258D8A004D00350015E0450025AD890EF
:1019880004320332052EF1D701C001F002C002F083
:101998001200000E426E040E416EB9EC0EF0010EFC
:1019A800046E010E4BEC0EF0430E046E7F0E056EB6
:1019B800C2EC0DF0010E046E020E4BEC0EF0B40EEC
:1019C800046E7F0E056EC2EC0DF0010E8D6E8B94C9
:1019D800D59EFFD71E6E640E166E1E502AEC0DF0B3
:1019E800300FC8EC0EF00A0E1A6E0A0E166E1E5054
:1019F8002AEC0DF0ECEC0DF0300FC8EC0EF00A0EEE
:101A08001A6E1E50ECEC0DF0300FC8EC0EF0120000
:101A1800096E640E016E095046EC0DF0300FCEECE5
:101A28000EF00A0E056E0A0E016E095046EC0DF016
:101A380000EC0EF0300FCEEC0EF00A0E056E0950D9
:101A480000EC0EF0300FCEEC0EF01200176E196A93
:101A58001650D8B415D0010E186E03D0D89016368B
:101A6800182A16AEFBD7D89019361650175CD8A08E
:101A780003D01650175E1980D8901632182EF3D757
:101A880019501200026E046A0150D8B415D0010E24
:101A9800036E03D0D8900136032A01AEFBD7D89045
:101AA80004360150025CD8A003D00150025E0480C5
:101AB800D8900132032EF3D704501200A80EF66E08
:101AC8001D0EF76E000EF86E0900F5CF49F0000103
:101AD800886B876B866B856B00EE31F0180EEE6AAB
:101AE800E806FDE14A904A92000EF86E000121EFE7
:101AF80002F01D6E1D50080DF350400FD7EC07F093
:101B08001E6A1E5019241B6E000E1A201C6E1BC064
:101B1800F6FF1CC0F7FF0800F5506EEC07F01E2A10
:101B2800070E1E64EED712000AD019C0F6FF1AC0BD
:101B3800F7FF0800F5506EEC07F0194A1A2A19C089
:101B4800F6FF1AC0F7FF0800F5500009D8B41200D4
:101B5800ECD70AD017C0F6FF18C0F7FF0800F550F9
:101B6800C8EC0EF0174A182A17C0F6FF18C0F7FF7E
:101B78000800F5500009D8B41200ECD70AD004C008
:101B8800F6FF05C0F7FF0800F55040EC08F0044ADE
:101B9800052A04C0F6FF05C0F7FF0800F550000944
:101BA800D8B41200ECD70AD002C0F6FF03C0F7FF82
:101BB8000800F550CEEC0EF0024A032A02C0F6FFE8
:101BC80003C0F7FF0800F5500009D8B41200ECD79D
:101BD8001B6E080E1C6E1D6AD8901B341D341D6EBA
:101BE800D8901B361A501D5CD8A002D01A501D5E22
:101BF8001C2EF2D71D501200066E080E076E086ADA
:101C0800D89006340834086ED89006360550085C1B
:101C1800D8A002D00550085E072EF2D7085012004F
:101C280016C0A9FF18C0A8FFA69EA69CA684F29E6F
:101C3800550EA76EAA0EA76EA682F28EA1A8FED791
:101C4800A198A69412001A6E1A04D8B402D0BF0E36
:101C580001D07F0E19241C6E1D6A000E1D221CC0A7
:101C68001BF01B50D7EC07F012001EC016F01FC067
:101C780017F0186A8E0E196E000E1A6E12EC09F023
:101C880016C01EF017C01FF018C020F01200056E15
:101C98000504D8B402D0BF0E01D07F0E0424066E0E
:101CA800076A000E072206C008F00850A9EC08F0E1
:101CB8001200016E0C0E016402D0000E12000144E5
:101CC800E846FC0B0109C26EC282C2B2FED7C450FC
:101CD8001200B1EC0EF0010E196E010E27EC0EF099
:101CE800520E196E7F0E1A6E98EC0DF01200B9ECB8
:101CF8000EF0010E046E010E4BEC0EF0520E046E47
:101D08007F0E056EC2EC0DF012008984A30E166ECC
:101D1800550EE82EFED7162EFCD700008994120027
:101D28008984210E166E760EE82EFED7162EFCD765
:101D380000D0899412001BC01DF00F0E1D168C5088
:101D4800F00B1D108C6E120006C008F00F0E08165E
:101D58008C50F00B08108C6E1200010ED7EC07F0B7
:101D6800A60EE82EFED700D01200010EA9EC08F04E
:101D7800A60EE82EFED700D0120016C0A9FFA69E18
:101D8800A69CA680A8501200166E9EA8FED716C064
:101D9800ADFF1200016E9EA8FED701C0ADFF120074
:011DA8000139
:107E2A00004269656E76656E69646F20616C2043F5
:107E3A006F6E7461646F7200003134372A323538DC
:107E4A0030333639234142434404150E1F0E1504BC
:107E5A00000000061F0600000004040E04040C08BB
:107E6A000404040E040406091004040E04040404A1
:107E7A000A50617261646120646520656D6572678C
:107E8A00656E636961200D0A0020202020202021D0
:107E9A00424F4F4D21202020202020202020005218
:107EAA006573657420646520636F6E74656F200D59
:107EBA000A2000456E63656E646572204D6F746FAB
:107ECA0072200D0A005265737461757261722063C3
:107EDA006F6E74656F3F00436F6E74656F20436FFA
:107EEA006D706C65746F210046616C6C612064650D
:107EFA0020656E65726769610052657365742064F6
:107F0A0065207573756172696F004170616761728E
:107F1A00206D6F746F72200D0A0056616C6F7220AB
:107F2A0064656C2050574D3A200050574D2061200F
:107F3A0031303025200D0A20002120454D45524779
:107F4A00454E434941202100496E67726573652099
:107F5A0076616C6F723A004F4B3A53692020426F38
:107F6A0072723A4E6F0052616E676F20696E766167
:107F7A006C69646F0050574D206120343025200D04
:107F8A000A200050574D206120323025200D0A006A
:107F9A0050574D206120363025200D0A0050574D8C
:107FAA00206120383025200D0A005265736574203F
:107FBA006D616E75616C0050574D2061203025202F
:107FCA000D0A0044697374616E6369613A20005056
:107FDA00726573696F6E65204F4B0046616C746100
:107FEA006E7465733A004F626A657469766F3A0017
:057FFA00250D0A000046
:020000040020DA
:08000000FFFFFFFFFFFFFFFF00
:020000040030CA
:0E0000000009191EFF8181FF0FC00FE00F40A5
:00000001FF
