:0400000007EF00F016
:100008004A8209ED00F05DEF0CF00600F3CF10F026
:10001800F4CF11F0F6CF12F0F7CF13F0F8CF14F0B9
:10002800F5CF15F0F2A069D0F00E8118D8B44AD0F7
:10003800FE0E8A6E81B802D0010E41D081BA02D07C
:10004800020E3DD081BC02D0030E39D081BE02D051
:10005800040E35D0FD0E8A6E81B802D0050E2FD061
:1000680081BA02D0060E2BD081BC02D0070E27D051
:1000780081BE02D0080E23D0FB0E8A6E81B802D052
:10008800090E1DD081BA02D00A0E19D081BC02D047
:100098000B0E15D081BE02D00C0E11D0F70E8A6E51
:1000A80081B802D00D0E0BD081BA02D00E0E07D047
:1000B80081BC02D00F0E03D081BE02D0100E466E56
:1000C800F00E8A6E720E0E6EA20EE82EFED70E2E5F
:1000D800FCD7F2903A5004E10B0E395CD8A009D055
:1000E8003A5007E1140E395CD8B003D0010E496EBE
:1000F800898A000E3A6E000E396EF2A4A4D00B0E57
:10010800D76EDC0ED66EF2948972394A3A2A4804C0
:10011800D8A402D0472A01D0476A010E476401D00B
:10012800486A35503610D8A407D0000EFCEC0CF005
:100138000E6E0E50376E386A340E026E7F0E036EE6
:100148009DEC0CF0640E3702F3CF0EF0F4CF0FF0F5
:100158003802F3500F260EC001F00FC002F0000E57
:10016800046E03685BEC0BF0015008EC0CF0FB0E1E
:10017800026E7F0E036E9DEC0CF0CE0E026E7F0EAB
:10018800036E9DEC0CF0435008EC0CF0CB0E026EA5
:100198007F0E036E9DEC0CF00A0E39183A10D8A4A5
:1001A80002D0496A899A3A5004E1140E395CD8A001
:1001B8004AD058EC0DF08D6A8C6A899A8B94F28A31
:1001C800F286F290BE6A0300000E3A6E000E396E97
:1001D80037C0BEFF3DC001F03EC002F0000E046E05
:1001E8000A0E036E5BEC0BF001C008F002C009F0C8
:1001F800ADEC0AF03DC001F03EC002F0000E046E06
:100208000A0E036EC6EC0BF001C006F002C007F040
:1002180047EC0DF0F28A010E496E898A41044210BA
:10022800D8A403D01AEC0DF00ED0020E41184210DB
:10023800D8A403D037EC05F006D0030E41184210BD
:10024800D8B4D5EC09F09EAAE3D0000E3A6E000EA1
:10025800396EABA202D0AB98AB88AECF44F0040E97
:1002680041184210D8B4D4D0500E4418D8B404D091
:10027800700E4418D8A409D09D0E026E7E0E036E2F
:100288009DEC0CF0E7EC0BF0C3D0450E4418D8B445
:1002980004D0650E4418D8A40AD0DF0E026E7E0E74
:1002A800036E9DEC0CF0000E346E010E11D0410E61
:1002B8004418D8B404D0610E4418D8A40BD0240E26
:1002C800026E7F0E036E9DEC0CF0000E346E020E73
:1002D800336E9ED0520E4418D8B404D0720E44180F
:1002E800D8A412D0020E41184210D8A40DD0CB0EBB
:1002F800026E7E0E036E9DEC0CF0000E3E6E000E3C
:100308003D6E37EC05F084D05A0E4418D8B404D0AA
:100318007A0E4418D8A40ED0C20E026E7F0E036E59
:100328009DEC0CF0000E366E010E356E000E386E28
:10033800000E57D0580E4418D8B404D0780E44187C
:10034800D8A40ED08E0E026E7F0E036E9DEC0CF0BC
:10035800000E366E010E356E000E386E330E41D02B
:10036800430E4418D8B404D0630E4418D8A40ED051
:10037800800E026E7F0E036E9DEC0CF0000E366E42
:10038800010E356E000E386E660E2BD0560E4418D0
:10039800D8B404D0760E4418D8A40ED09B0E026EA2
:1003A8007F0E036E9DEC0CF0000E366E010E356E5E
:1003B800000E386E990E15D0420E4418D8B404D0E9
:1003C800620E4418D8A40FD0A80E026E7F0E036EDA
:1003D8009DEC0CF0000E366E010E356E000E386E78
:1003E800CC0E376E15D04E0E4418D8B404D06E0E0D
:1003F8004418D8A40DD0440E026E7F0E036E9DECF7
:100408000CF0000E366E010E356E000E386E376831
:1004180015C0F5FF14C0F8FF13C0F7FF12C0F6FFB0
:1004280011C0F4FF10C0F3FF4A9211008DEC08F0E0
:10043800000E3A6E000E396E32EC0BF033EC0DF014
:10044800020E326E450E316EAA0EE82EFED7312E00
:10045800FCD7322EFAD7DEEC0AF0000E3A6E000E08
:10046800396EB6EC03F0000E426E010E416E0CECD4
:100478000DF01AEC09F0436E4350D8B43FD0080E83
:1004880043603CD0020E41184210D8A437D0000E69
:100498003A6E000E396E3E5006E13B0E3D5CD8B018
:1004A80002D03D4A3E2A3DC016F03EC017F0000E6D
:1004B800196E0A0E186E84EC0BF016501710D8B48B
:1004C80033EC0DF03F503D5C40503E58D8A009D069
:1004D800BAEC04F0000E426E030E416E9CEC09F07B
:1004E80002D0BAEC04F0020E326E450E316EAA0E3E
:1004F800E82EFED7312EFCD7322EFAD733503410DF
:10050800D8B404D033043410D8A403D037C0BEFF05
:1005180005D0020E33183410D8B4BE6A4650D8B489
:10052800A8D7000E3A6E000E396E640E4624F66E99
:10053800F76A7E0EF7220800F5CF82F0466A440E6D
:1005480000018219D8B4A5EC0BF0430E0001821902
:10055800D8A4EDD04950D8A402D0010E01D0000E85
:10056800496E49A002D0898AE2D0899AE0D02F0E3C
:100578000001826544D03A0E826141D00A0E3B02E6
:10058800F3CF31F0F4CF32F03C02F35032268251EF
:100598003126000E3222D00E31243B6EFF0E32205F
:1005A8003C6E3C5004E1640E3B5CD8A004D0000EC5
:1005B8003C6E000E3B6E0CEC0DF0070E196E020E31
:1005C800C6EC0CF03BC016F03CC017F0000E196EDC
:1005D8000A0E186E09EC0BF01650300F92EC06F06C
:1005E8003BC016F03CC017F0000E196E0A0E186ECC
:1005F80084EC0BF01650300F92EC06F0AAD02A0EBD
:100608008219D8A432D03BC016F03CC017F0000EB7
:10061800196E0A0E186E09EC0BF016C03BF017C0E5
:100628003CF00CEC0DF0070E196E020EC6EC0CF047
:100638003BC016F03CC017F0000E196E0A0E186E7B
:1006480009EC0BF01650300F92EC06F03BC016F098
:100658003CC017F0000E196E0A0E186E84EC0BF0F1
:100668001650300F92EC06F074D0230E8219D8A4DD
:1006780070D03B503C10D8B419D03C5017E13C0E18
:100688003B5CD8B013D03BC03FF03CC040F0000EFC
:100698003E6E000E3D6E000E3C6E000E3B6E000E70
:1006A800426E020E416EBAEC04F053D050EC0DF0DD
:1006B800010E196E010EC6EC0CF0710E196E7F0E4C
:1006C8001A6E73EC0CF0020E326EE70E316E000EED
:1006D800E82EFED7312EFCD7322EFAD700D0000EE6
:1006E8003C6E000E3B6E0CEC0DF033D0420E000158
:1006F8008219D8A407D0000E426E030E416E9CECFE
:1007080009F027D0410E8219D8A423D0000E3E6EDE
:10071800000E3D6EC8D728EC0DF0230E000182199B
:10072800D8A417D0000E426E010E416ED8D741C032
:1007380031F042C032F03250000AD8A40AD0315009
:10074800010AD8B414D7030AD8B4D0D7010AD8B448
:10075800E2D7410E316EEE0EE82EFED7312EFCD7D1
:1007680000D087D6950E196E7E0E1A6E000E42ECDA
:100778000CF08D0E196E7E0E1A6E010E42EC0CF006
:10078800850E196E7E0E1A6E020E42EC0CF0750E76
:10079800196E7E0E1A6E030E42EC0CF07D0E196E69
:1007A8007E0E1A6E040E42EC0CF04D0EF66E7E0EA6
:1007B800F76E20EE60F0160E0900F5CFDEFFE806B2
:1007C800FBE2000E00017A6F100E796F000E816F48
:1007D800000E806F010E196E010EC6EC0CF0000EB3
:1007E80000017F6F000E7E6F8051600F7E25D96EED
:1007F800DA6ADF507D6F1F0E7D6503D07E0E7D6542
:1008080005D0000E786F200E776F03D07DC077F08B
:10081800786B775192EC06F000017E4B7F2B7FBFFF
:10082800E3D77F5104E1100E7E5DD8A0DDD780C0EC
:1008380019F0020EC6EC0CF0040E92EC06F0000162
:100848008029196E020EC6EC0CF080C016F081C02B
:1008580017F0000E196E030E186E0EEC0AF0165003
:1008680092EC06F0660E1F6E4B0EE82EFED71F2E7A
:10087800FCD7000080C019F0020EC6EC0CF0200E68
:1008880092EC06F000018029196E020EC6EC0CF0FD
:10089800200E92EC06F00001804B812B7951805D8F
:1008A8008151800A1F6E7A51800A1F58D8A092D7AA
:1008B800100E196E020EC6EC0CF0030E92EC06F048
:1008C800010E196E010EC6EC0CF0B50E196E7E0EF7
:1008D8001A6E73EC0CF0A30E1F6E550EE82EFED7A1
:1008E8001F2EFCD70000000E00017C6F000E7B6FEE
:1008F800100E196E020EC6EC0CF0200E92EC06F0EB
:10090800310E1F6EB20EE82EFED71F2EFCD700D078
:10091800100E196E020EC6EC0CF0030E92EC06F0E7
:10092800310E1F6EB20EE82EFED71F2EFCD700D058
:1009380000017B4B7C2B7CBFDBD77C5104E1030E91
:100948007B5DD8A0D5D7020E206E040E1F6EBA0E9E
:10095800E82EFED71F2EFCD7202EFAD700D050EC59
:100968000DF0000E3A6E000E396E120050EC0DF0CC
:10097800010E196E010EC6EC0CF0F10E196E7F0E09
:100988001A6E73EC0CF03FC016F040C017F0000E62
:10099800196E0A0E186E09EC0BF01650300F92EC17
:1009A80006F03FC016F040C017F0000E196E0A0E90
:1009B800186E84EC0BF01650300F92EC06F0010E16
:1009C800196E020EC6EC0CF0E60E196E7F0E1A6E4A
:1009D80073EC0CF03D503F5C216E3E504058226E47
:1009E80022AE04D0000E226E000E216E21C016F039
:1009F80022C017F0000E196E0A0E186ED9EC08F016
:100A08001650300F92EC06F021C016F022C017F0F5
:100A1800000E196E0A0E186E0EEC0AF01650300F02
:100A280092EC06F03DC016F03EC017F0000E196EAD
:100A38000A0E186E84EC0BF016C01BF017C01CF0E1
:100A48003EEC0DF03DC016F03EC017F0000E196EDA
:100A58000A0E186E09EC0BF016C01DF017C01EF038
:100A68007CEC0AF0120058EC0DF0010E046E010E39
:100A7800EAEC0CF0F10E046E7F0E056E88EC0CF0BB
:100A88003FC001F040C002F0000E046E0A0E036E73
:100A98005BEC0BF00150300F64EC07F03FC001F045
:100AA80040C002F0000E046E0A0E036EC6EC0BF096
:100AB8000150300F64EC07F0010E046E020EEAECF0
:100AC8000CF0E60E046E7F0E056E88EC0CF03D50BF
:100AD8003F5C0C6E3E5040580D6E0DAE04D0000EBB
:100AE8000D6E000E0C6E0CC001F00DC002F0000E71
:100AF800046E0A0E036E5BEC09F00150300F64ECD3
:100B080007F00CC001F00DC002F0000E046E0A0ED2
:100B1800036E45EC0AF00150300F64EC07F03DC05D
:100B280001F03EC002F0000E046E0A0E036EC6EC21
:100B38000BF001C006F002C007F047EC0DF03DC015
:100B480001F03EC002F0000E046E0A0E036E5BEC6C
:100B58000BF001C008F002C009F0ADEC0AF0120079
:100B680023C027F0286A296A2234273601E328801F
:100B780027502E6E2E50D8A407D0000E216E000EDE
:100B8800226E000E236E120026C027F0286A296AFA
:100B98002534273601E3288027502F6E2F50D8A4FC
:100BA80007D0000E216E000E226E000E236E12007A
:100BB800000E2B6E000E2C6E000E2D6E2F50890F1E
:100BC8002E5E23C02FF026502F1A800E2F16228E4D
:100BD800FF0E2116FF0E2216000E2316258EFF0E7D
:100BE8002416FF0E2516000E2616180E2A6ED8900B
:100BF8002B362C362D362450215C25502258265071
:100C08002358D8A007D02450215E2550225A2650B8
:100C1800235A2B80D8902136223623362A2EE7D71E
:100C28002BC016F02CC017F02DC018F02EC019F0EC
:100C38002FC01AF036EC08F016C021F017C022F0C9
:100C480018C023F0120062C064F00001656B666B87
:100C58006135643701E3658164516E6F6E51D8A4C4
:100C680009D0000E606F000E616F000E626F000EFB
:100C7800636F1200170E646F60C065F061C066F0A4
:100C880062C067F06429686F04D0D8906733663310
:100C98006533682FFAD700016551696F618FFF0EC0
:100CA8006017FF0E6117000E621760516A6F61517D
:100CB8006B6F62516C6F6D6B8E0E6E5F6EAF0DD089
:100CC8006E51800A8F0FD8A0CCD7D8906D336C3373
:100CD8006B336A336E3FF9D70DD0170E6E6507D0A8
:100CE800C0D7D8906A376B376C376D376E076E513F
:100CF800D8A4F7D76951D8B408D06D1F6C1F6B1FE3
:100D08006A6D000E6B236C236D236AC060F06BC0A4
:100D180061F06CC062F06DC063F01200186E8986D5
:100D280018C016F0163A0F0E16161630D8A002D0B4
:100D38008C8801D08C9818C016F0050E176ED890C4
:100D48001632172EFCD71630D8A002D08C8A01D0C4
:100D58008C9A18C016F0060E176ED8901632172EF9
:100D6800FCD71630D8A002D08C8C01D08C9C166A87
:100D780018AE01D0162A1630D8A002D08C8E01D019
:100D88008C9E8988100EE82EFED700D0899818A06E
:100D980002D08C8801D08C9818C016F0D8901632E2
:100DA8001630D8A002D08C8A01D08C9A18C016F0C0
:100DB800D8901632D89016321630D8A002D08C8C23
:100DC80001D08C9C18C016F0D8901632D8901632E4
:100DD800D89016321630D8A002D08C8E01D08C9EB6
:100DE8008988100EE82EFED700D089981200186E58
:100DF800899618C016F0163A0F0E16161630D8A097
:100E080002D08C8801D08C9818C016F0050E176E89
:100E1800D8901632172EFCD71630D8A002D08C8A5C
:100E280001D08C9A18C016F0060E176ED89016329C
:100E3800172EFCD71630D8A002D08C8C01D08C9CF1
:100E4800166A18AE01D0162A1630D8A002D08C8E99
:100E580001D08C9E8988A60EE82EFED700D08998EE
:100E680018A002D08C8801D08C9818C016F0D890A1
:100E780016321630D8A002D08C8A01D08C9A18C0AD
:100E880016F0D8901632D89016321630D8A002D064
:100E98008C8C01D08C9C18C016F0D8901632D89043
:100EA8001632D89016321630D8A002D08C8E01D0C7
:100EB8008C9E8988A60EE82EFED700D0899812004D
:100EC800036E898603C001F0013A0F0E0116013046
:100ED800D8A002D08C8801D08C9803C001F0050EF0
:100EE800026ED8900132022EFCD70130D8A002D071
:100EF8008C8A01D08C9A03C001F0060E026ED8903D
:100F08000132022EFCD70130D8A002D08C8C01D03F
:100F18008C9C016A03AE01D0012A0130D8A002D00E
:100F28008C8E01D08C9E8988100EE82EFED700D0BA
:100F3800899803A002D08C8801D08C9803C001F056
:100F4800D89001320130D8A002D08C8A01D08C9A76
:100F580003C001F0D8900132D89001320130D8A0F6
:100F680002D08C8C01D08C9C03C001F0D890013247
:100F7800D8900132D89001320130D8A002D08C8E9E
:100F880001D08C9E8988100EE82EFED700D0899853
:100F98001200036E899603C001F0013A0F0E011684
:100FA8000130D8A002D08C8801D08C9803C001F001
:100FB800050E026ED8900132022EFCD70130D8A05F
:100FC80002D08C8A01D08C9A03C001F0060E026E02
:100FD800D8900132022EFCD70130D8A002D08C8CD8
:100FE80001D08C9C016A03AE01D0012A0130D8A03F
:100FF80002D08C8E01D08C9E8988A60EE82EFED752
:1010080000D0899803A002D08C8801D08C9803C0A6
:1010180001F0D89001320130D8A002D08C8A01D0DA
:101028008C9A03C001F0D8900132D8900132013077
:10103800D8A002D08C8C01D08C9C03C001F0D89031
:101048000132D8900132D89001320130D8A002D0B4
:101058008C8E01D08C9E8988A60EE82EFED700D0F3
:10106800899812001950D8B405D0165017101810C6
:10107800D8A40CD0000E166E000E176E000E186E57
:101088001200192AD890183217321632000E161488
:101098001B6E000E17141C6EFE0E18141D6E1B50CE
:1010A8001C101D10D8B40CD0ECD7192A010E162626
:1010B800000E1722000E1822D89018321732163256
:1010C800000E16141B6E000E17141C6EFF0E18145B
:1010D8001D6E1B501C101D10D8B406D0E6D719067B
:1010E800D89016361736183617BE03D0020E196078
:1010F800F6D719A0179ED8901932195018121A50FD
:10110800D8A4188E16C016F017C017F018C018F01B
:101118001200956A8C6A966A8D6A94948B9494905E
:101128009482010E926EF00E936E0F0E8A6EF19EEF
:101138008B90800ECD6E040EBA6EA190F90ECB6E18
:10114800BE6ACA6A0C0EBD6ECC6AF098F092240E84
:10115800AC6E900EAB6E080EB86E190EAF6E9D8A0F
:101168009D989E9A9E98010EC26E0E0EC16E080E34
:10117800C06E020E176E450E166EAA0EE82EFED72A
:10118800162EFCD7172EFAD7010ED56E0B0ED76E7A
:10119800DC0ED66EF294F28AF28EF28CF290F2861F
:1011A800CA84D58E010E496E12001B6A19AE06D08C
:1011B800186C191ED8B0192A010E1B6E17AE06D06E
:1011C800166C171ED8B0172A010E1B1A000E1D6EBA
:1011D800000E1C6E18501910D8B41CD0010E1A6ECF
:1011E80004D0D890183619361A2A19AEFAD7D890DA
:1011F8001C361D361850165C19501758D8A005D043
:101208001850165E1950175A1C80D8901932183287
:101218001A2EEDD71B50D8B404D01C6C1D1ED8B0A4
:101228001D2A1CC016F01DC017F01200040EBA6E5D
:10123800000ECF6E000ECE6EA1908B8000D08B90EA
:10124800010E486E82B203D04804D8B4FBD7485088
:10125800D8A402D0000E1200CD80A1B002D09EA06A
:10126800FCD7CD909EA003D09E9030681ED0000E73
:10127800246E680E256E410E266EBBCF1EF0BCCFC5
:101288001FF0D8EC0CF01EC021F01FC022F020C0C7
:1012980023F0B4EC05F021C060F022C061F023C057
:1012A80062F027EC06F06051306E30501200066A8A
:1012B80004AE06D0036C041ED8B0042A010E066ED4
:1012C80002AE06D0016C021ED8B0022A010E061A20
:1012D800000E086E000E076E03500410D8B41CD020
:1012E800010E056E04D0D89003360436052A04AEE4
:1012F800FAD7D890073608360350015C04500258D4
:10130800D8A005D00350015E0450025A0780D89037
:1013180004320332052EEDD70650D8B404D0076C3A
:10132800081ED8B0082A07C001F008C002F0120051
:101338003FC016F040C017F0000E196E0A0E186E66
:1013480084EC0BF016C01BF017C01CF03EEC0DF03F
:101358003FC016F040C017F0000E196E0A0E186E46
:1013680009EC0BF016C01DF017C01EF07CEC0AF05B
:1013780050EC0DF0010E196E010EC6EC0CF0F10EDA
:10138800196E7E0E1A6E73EC0CF0010E196E020EB9
:10139800C6EC0CF0DA0E196E7F0E1A6E73EC0CF0B8
:1013A80012003FC001F040C002F0000E046E0A0EA9
:1013B800036EC6EC0BF001C006F002C007F047EC64
:1013C8000DF03FC001F040C002F0000E046E0A0E9E
:1013D800036E5BEC0BF001C008F002C009F0ADEC45
:1013E8000AF058EC0DF0010E046E010EEAEC0CF058
:1013F800F10E046E7E0E056E88EC0CF0010E046E84
:10140800020EEAEC0CF0DA0E046E7F0E056E88EC24
:101418000CF012001B6A17AE06D0166C171ED8B057
:10142800172A010E1B6E19AE04D0186C191ED8B0FD
:10143800192A18501910D8B418D0010E1A6E04D0F1
:10144800D890183619361A2A19AEFAD71850165CD9
:1014580019501758D8A004D01850165E1950175AAA
:10146800D890193218321A2EF1D71B50D8B404D09C
:10147800166C171ED8B0172A16C016F017C017F02A
:101488001200066A02AE06D0016C021ED8B0022A0B
:10149800010E066E04AE04D0036C041ED8B0042AF4
:1014A80003500410D8B418D0010E056E04D0D8909B
:1014B80003360436052A04AEFAD70350015C0450FB
:1014C8000258D8A004D00350015E0450025AD890A4
:1014D80004320332052EF1D70650D8B404D0016C7B
:1014E800021ED8B0022A01C001F002C002F01200A8
:1014F80014D0050E8D6E1200040E8D6E1200060EAD
:101508008D6E1200020E8D6E1200030E8D6E12008B
:10151800070E8D6E12008D6A12001DC01FF01EC0CE
:1015280020F02050000AD8A4F6D71F50000AD8B4DB
:10153800E0D7010AD8B4E0D7030AD8B4E0D7010A43
:10154800D8B4E0D7070AD8B4E0D7010AD8B4E0D7AE
:10155800E2D714D0050E8D6E1200040E8D6E1200A7
:10156800060E8D6E1200020E8D6E1200030E8D6E29
:101578001200070E8D6E12008D6A120008C00AF064
:1015880009C00BF00B50000AD8A4F6D70A50000A7D
:10159800D8B4E0D7010AD8B4E0D7030AD8B4E0D762
:1015A800010AD8B4E0D7070AD8B4E0D7010AD8B4FA
:1015B800E0D7E2D7D0B21BD050EC0DF0010E196E77
:1015C800010EC6EC0CF0020E196E7F0E1A6E73EC4B
:1015D8000CF0D082020E1F6EE70E1E6E000EE82E73
:1015E800FED71E2EFCD71F2EFAD700D0120050ECC3
:1015F8000DF0010E196E010EC6EC0CF0130E196EEB
:101608007F0E1A6E73EC0CF0E5D7000E1C6E000E00
:101618001B6E18501910D8B41CD0010E1A6E04D0C5
:10162800D890183619361A2A19AEFAD7D8901B3618
:101638001C361850165C19501758D8A005D01850E9
:10164800165E1950175A1B80D890193218321A2E64
:10165800EDD71BC016F01CC017F01200956A8C6AF3
:10166800010E926E896A929A898A210E196E760EF7
:10167800E82EFED7192EFCD700D0020EFBEC06F0A0
:10168800280EFBEC06F00C0EFBEC06F0060EFBEC4D
:1016980006F0010EFBEC06F0210E196E760EE82E10
:1016A800FED7192EFCD700D050EC0DF01200000E1A
:1016B800066E000E056E03500410D8B41CD0010E3F
:1016C800076E04D0D89003360436072A04AEFAD73A
:1016D800D890053606360350015C04500258D8A04D
:1016E80005D00350015E0450025A0580D890043298
:1016F8000332072EEDD705C001F006C002F0120034
:1017080018501910D8B418D0010E1A6E04D0D890F9
:10171800183619361A2A19AEFAD71850165C195005
:101728001758D8A004D01850165E1950175AD890D8
:10173800193218321A2EF1D716C016F017C017F042
:101748001200000E426E040E416E50EC0DF0010EB8
:10175800196E010EC6EC0CF0530E196E7F0E1A6E40
:1017680073EC0CF0010E196E020EC6EC0CF0B50EFF
:10177800196E7F0E1A6E73EC0CF0010E8D6E8B9441
:10178800D59EFFD703500410D8B418D0010E056EAB
:1017980004D0D89003360436052A04AEFAD703508D
:1017A800015C04500258D8A004D00350015E0450D4
:1017B800025AD89004320332052EF1D701C001F045
:1017C80002C002F01200000E426E040E416E58EC88
:1017D8000DF0010E046E010EEAEC0CF0530E046ECF
:1017E8007F0E056E88EC0CF0010E046E020EEAEC1A
:1017F8000CF0B50E046E7F0E056E88EC0CF0010E31
:101808008D6E8B94D59EFFD7096E640E016E0950BC
:1018180026EC0CF0300F60EC0DF00A0E056E0A0E87
:10182800016E095026EC0CF0B2EC0CF0300F60ECB5
:101838000DF00A0E056E0950B2EC0CF0300F60EC9A
:101848000DF01200026E046A0150D8B415D0010ED2
:10185800036E03D0D8900136032A01AEFBD7D89087
:1018680004360150025CD8A003D00150025E048007
:10187800D8900132032EF3D7045012001D6E1D506C
:10188800080DF350400FFBEC06F01E6A1E50192499
:101898001B6E000E1A201C6E1BC0F6FF1CC0F7FF43
:1018A8000800F55092EC06F01E2A070E1E64EED7CB
:1018B8001200CC0EF66E1A0EF76E000EF86E0900C6
:1018C800F5CF49F000EE33F0160EEE6AE806FDE1BA
:1018D8004A904A92000EF86E00011AEF02F00AD000
:1018E80019C0F6FF1AC0F7FF0800F55092EC06F091
:1018F800194A1A2A19C0F6FF1AC0F7FF0800F5504E
:101908000009D8B41200ECD70AD004C0F6FF05C00D
:10191800F7FF0800F55064EC07F0044A052A04C0F4
:10192800F6FF05C0F7FF0800F5500009D8B412000B
:10193800ECD70AD002C0F6FF03C0F7FF0800F55045
:1019480060EC0DF0024A032A02C0F6FF03C0F7FF5D
:101958000800F5500009D8B41200ECD7066E080E3E
:10196800076E086AD89006340834086ED890063690
:101978000550085CD8A002D00550085E072EF2D7A3
:10198800085012001A6E1A04D8B402D0BF0E01D043
:101998007F0E19241C6E1D6A000E1D221CC01BF030
:1019A8001B50FBEC06F012001EC016F01FC017F00B
:1019B800186A8E0E196E000E1A6E36EC08F016C0F4
:1019C8001EF017C01FF018C020F01200056E0504A5
:1019D800D8B402D0BF0E01D07F0E0424066E076A69
:1019E800000E072206C008F00850CDEC07F01200E0
:1019F800016E0C0E016402D0000E12000144E8468C
:101A0800FC0B0109C26EC282C2B2FED7C4501200DA
:101A180050EC0DF0010E196E010EC6EC0CF0620EC2
:101A2800196E7F0E1A6E73EC0CF0120058EC0DF064
:101A3800010E046E010EEAEC0CF0620E046E7F0ECD
:101A4800056E88EC0CF012008984A30E166E550EF4
:101A5800E82EFED7162EFCD7000089941200898440
:101A6800210E166E760EE82EFED7162EFCD700D065
:101A7800899412001BC01DF00F0E1D168C50F00B20
:101A88001D108C6E120006C008F00F0E08168C5040
:101A9800F00B08108C6E1200010EFBEC06F0A60E7F
:101AA800E82EFED700D01200010ECDEC07F0A60EEE
:101AB800E82EFED700D01200016E9EA8FED701C006
:051AC800ADFF1200015A
:107E4C00004269656E76656E69646F20616C2043D3
:107E5C006F6E7461646F7200003134372A323538BA
:107E6C0030333639234142434404150E1F0E15049A
:107E7C00000000061F0600000004040E04040C0899
:107E8C000404040E040406091004040E040404047F
:107E9C000A50617261646120646520656D6572676A
:107EAC00656E636961200D0A0020202020202021AE
:107EBC00424F4F4D212020202020202020200052F6
:107ECC006573657420646520636F6E74656F200D37
:107EDC000A2000456E63656E646572204D6F746F89
:107EEC0072200D0A00436F6E74656F20436F6D70C6
:107EFC006C65746F210046616C6C61206465206553
:107F0C006E657267696100526573657420646520E3
:107F1C007573756172696F00417061676172206D74
:107F2C006F746F72200D0A0056616C6F722064655D
:107F3C006C2050574D3A200050574D206120313065
:107F4C003025200D0A20002120454D455247454E35
:107F5C00434941202100496E677265736520766143
:107F6C006C6F723A0052616E676F20696E76616C4D
:107F7C0069646F0050574D206120343025200D0A64
:107F8C00200050574D206120323025200D0A005022
:107F9C00574D206120363025200D0A0050574D20BA
:107FAC006120383025200D0A005265736574206DF0
:107FBC00616E75616C0050574D2061203025200D8D
:107FCC000A0044697374616E6369613A20005072EF
:107FDC006573696F6E65204F4B0046616C74616E02
:107FEC007465733A004F626A657469766F3A00255E
:047FFC000D0A00006A
:020000040020DA
:08000000FFFFFFFFFFFFFFFF00
:020000040030CA
:0E0000000009191EFF8181FF0FC00FE00F40A5
:00000001FF
