:0400000007EF00F016
:0A0008001C8280ED05F0ABEF05F05F
:100800000001000A006400E80310274C61206469BD
:100810007374616E636961206D65646964612065EC
:10082000733A20256420636D0D0046616C6C612075
:0F083000656E20656C2073656E736F720D00002E
:100840000E0E116E7BD0250E1618D8B404D016509B
:10085000B4EC05F073D0126A0D2A0D04106E10C0AE
:10086000F6FF080EF76E0800F5CF16F01650000AD6
:10087000D8B41200640AD8B403D00D0AD8A45ED04C
:100880001150D96EDA6ADECF14F0DDCF15F0020E0A
:10089000112615AE06D0030E1212146C151ED8B018
:1008A000152A010E166E1650020DF350010F106E30
:1008B00010C0F6FF080EF76E0900F550145C090031
:1008C000F5501558D8A005D0162A050E1618D8A42C
:1008D000EAD712C010F0030E1016D8B403D02D0EB4
:1008E000B4EC05F016C013F025D01350020DF350F0
:1008F000010F106E10C0F6FF080EF76E0900F5CF5D
:1009000003F00A00F5CF04F014C001F015C002F0A6
:100910001AEC05F001C008F002C009F0000E0B6EE1
:100920000A0E0A6E43EC05F00850300F166E165092
:10093000B4EC05F013061328D8A4D7D70D2A0D045C
:10094000106E10C0F6FF080EF76E0800F5CF16F017
:100950001650D8B4120077D7040EBA6E000ECF6EC0
:10096000000ECE6EA190828000D08290010E1B6E90
:1009700082B203D01B04D8B4FBD71B50D8A402D03A
:10098000000E1200CD80A1B002D09EA0FCD7CD9069
:100990009EA002D0086816D0E40EBB5C0D0EBC58B9
:1009A000D8A004D00D0EBC6EE40EBB6EBBCF01F020
:1009B000BCCF02F0000E046E0E0E036E1AEC05F0B2
:1009C0000150086E08501200949095908B908C9076
:1009D000240EAC6E800EAB6E080EB86E190EAF6EA4
:1009E0000B0ED76EDC0ED66E080ED56E800ECD6E59
:1009F000F294F28AF28ED58EACEC04F0196E195096
:100A0000D8A405D02A0E0D6E20EC04F007D00B0EF2
:100A10000D6E19C00EF00F6A20EC04F0020E186E75
:100A2000450E176EAA0EE82EFED7172EFCD7182EED
:100A3000FAD7E2D7000E066E000E056E03500410C2
:100A4000D8B41CD0010E076E04D0D89003360436FB
:100A5000072A04AEFAD7D890053606360350015C53
:100A600004500258D8A005D00350015E0450025A29
:100A70000580D89004320332072EEDD705C001F06F
:100A800006C002F012000A500B10D8B418D0010EA4
:100A90000C6E04D0D8900A360B360C2A0BAEFAD75F
:100AA0000A50085C0B500958D8A004D00A50085EC0
:100AB0000B50095AD8900B320A320C2EF1D708C0CD
:100AC00008F009C009F01200066E086A0550D8B493
:100AD00015D0010E076E03D0D8900536072A05AE53
:100AE000FBD7D89008360550065CD8A003D0055037
:100AF000065E0880D8900532072EF3D70850120002
:100B00000600F2940B0ED76EDC0ED66E8CB002D0BF
:100B10008C8001D08C901B04D8A402D01A2A01D05A
:100B20001A6A010E1A6401D01B6A1C921100026E2F
:100B3000080E036E046AD89002340434046ED89010
:100B400002360150045CD8A002D00150045E032E8E
:100B5000F2D7045012001B6A1A6A1C901C92000EF5
:100B6000F86E0001E4EF04F0016EACA2FED701C004
:100B7000ADFF1200016EACA2FED701C0ADFF1200A6
:020000040020DA
:08000000FFFFFFFFFFFFFFFF00
:020000040030CA
:0E00000000091F1EFF8381FF0FC00FE00F409D
:00000001FF
