:020000040000FA
:040000000EEF00F00F
:040008004BEF00F0CA
:0800180037EF00F0D08EF28EEC
:10002000F28EF28C0F0EC16EC26A030ED56E0B0EED
:10003000D76EDC0ED66EF294F28AF194D58EF00E65
:10004000956E8C6AF80E966E8D6A206AFD0E926E21
:10005000896AF288F18CF086F08CF18AF292F09045
:10006000F088F188F092F09E216A35EF00F0F0B24E
:100070003EEF00F0F2B444EF00F010008C6A206A0A
:10008000050E8D6EF0921000F2940B0ED76EDC0E02
:10009000D66E89721000F2B252EF00F0F0B08EEF1F
:1000A00000F01000F29221A07CEC00F021808C5036
:1000B000090AD8B45EEF00F08C2A10008C6A202A5E
:1000C0002050010AD8B47FEF00F02050020AD8B4C3
:1000D00082EF00F02050030AD8B485EF00F02050E2
:1000E000040AD8B488EF00F02050050AD8B48BEF8A
:1000F00000F0206A7CEF00F0050E8D6E1000040EFB
:100100008D6E1000060E8D6E1000020E8D6E1000AA
:10011000030E8D6E1000070E8D6E1000F90E8D6EA1
:040120008EEF00F06E
:020000040030CA
:0100000000FF
:010001000CF2
:010002001FDE
:010003001EDE
:010005008179
:010006008178
:010008000FE8
:01000900C036
:01000A000FE6
:01000B00E014
:01000C000FE4
:01000D0040B2
:00000001FF
