:020000040000FA
:040000000EEF00F00F
:0400080047EF00F0CE
:0800180033EF00F0F28ED08EF0
:10002000F28EF28C030ED56E0B0ED76EDC0ED66EF2
:10003000F294F28AF194F00E956E8C6AF80E946E3A
:100040008B6A206A7F0E936E8A6AF288F18CF08642
:10005000F08CF18AF292F090F088F092F188F09EA4
:10006000D58E31EF00F0F0B23AEF00F0F2B440EF8D
:1000700000F010008C6A206A050E8B6EF092100062
:10008000F2940B0ED76EDC0ED66E8A7E1000F2B2A2
:100090004EEF00F0F0B087EF00F01000F2928C50BD
:1000A000090AD8B456EF00F08C2A10008C6A202A76
:1000B0002050010AD8B478EF00F02050020AD8B4DA
:1000C0007BEF00F02050030AD8B47EEF00F0205000
:1000D000040AD8B481EF00F02050050AD8B484EFA8
:1000E00000F02050206A75EF00F0050E8B6E1000B6
:1000F000040E8B6E1000060E8B6E1000020E8B6EBF
:100100001000030E8B6E1000070E8B6E1000F90EA0
:060110008B6E87EF00F08A
:020000040030CA
:0100000000FF
:010001000CF2
:010002001FDE
:010003001EDE
:010005008179
:010006008178
:010008000FE8
:01000900C036
:01000A000FE6
:01000B00E014
:01000C000FE4
:01000D0040B2
:00000001FF
