:020000040000FA
:040000000EEF00F00F
:0400080044EF00F0D1
:0800180033EF00F0F28ED08EF0
:10002000F28EF28C030ED56E0B0ED76EDC0ED66EF2
:10003000F294F28AF194F00E956E8C6AF80E946E3A
:100040008B6A206A7F0E936E8A6AF288F18CF08642
:10005000F08CF18AF292F090F088F092F188F09EA4
:10006000D58E31EF00F0F0B23AEF00F0F2B43DEF90
:1000700000F010008C6AF0921000F2940B0ED76E14
:10008000DC0ED66E8A7E1000F2B24BEF00F0F0B0BC
:1000900088EF00F01000F2928C50090AD8B453EFA8
:1000A00000F08C2A10008C6A202A2050010AD8B453
:1000B00076EF00F02050020AD8B479EF00F020501B
:1000C000030AD8B47CEF00F02050040AD8B47FEFC4
:1000D00000F02050050AD8B482EF00F02050060A44
:1000E000D8B485EF00F0206A76EF00F0050E8B6E35
:1000F0001000040E8B6E1000060E8B6E1000020EA8
:100100008B6E1000030E8B6E1000070E8B6E1000AE
:08011000F90E8B6E88EF00F080
:020000040030CA
:0100000000FF
:010001000CF2
:010002001FDE
:010003001EDE
:010005008179
:010006008178
:010008000FE8
:01000900C036
:01000A000FE6
:01000B00E014
:01000C000FE4
:01000D0040B2
:00000001FF
