:020000040000FA
:040000000EEF00F00F
:0400080048EF00F0CD
:0800180034EF00F0F28ED08EEF
:10002000F28EF28C030ED56E0B0ED76EDC0ED66EF2
:10003000F294F28AF194F00E956E8C6AF80E946E3A
:100040008B6A206A7F0E936E8A6AF288F18CF08642
:10005000F08CF18AF292F090F088F092F188F09EA4
:10006000216AD58E32EF00F0F0B23BEF00F0F2B42F
:1000700041EF00F010008C6A206A050E8B6EF09242
:100080001000F2940B0ED76EDC0ED66E8A7E100036
:10009000F2B24FEF00F0F0B08CEF00F01000F292EF
:1000A00021A07AEC00F021808C50090AD8B45BEFD3
:1000B00000F08C2A10008C6A202A2050010AD8B443
:1000C0007DEF00F02050020AD8B480EF00F02050FD
:1000D000030AD8B483EF00F02050040AD8B486EFA6
:1000E00000F02050050AD8B489EF00F02050206AB3
:1000F0007AEF00F0050E8B6E1000040E8B6E100070
:10010000060E8B6E1000020E8B6E1000030E8B6EAF
:100110001000070E8B6E1000F90E8B6E8CEF00F046
:020000040030CA
:0100000000FF
:010001000CF2
:010002001FDE
:010003001EDE
:010005008179
:010006008178
:010008000FE8
:01000900C036
:01000A000FE6
:01000B00E014
:01000C000FE4
:01000D0040B2
:00000001FF
